:100000000C9443000C9416020C9460000C94600055
:100010000C9460000C9460000C9460000C946000E0
:100020000C9460000C9460000C9460000C946000D0
:100030000C9460000C9460000C94E6040C94B704DB
:100040000C9460000C9460000C94E7010C94F50093
:100050000C9460000C94CD030C9460000C94600030
:100060000C9460000C9460004C256868753A20255B
:100070006868752F25686875006364696E6F7073B2
:100080007578585B000011241FBECFEFD8E0DEBFAB
:10009000CDBF12E0A0E0B1E0ECEBFCE102C00590C6
:1000A0000D92A232B107D9F712E0A2E2B2E001C08C
:1000B0001D92A93CB107E1F70E94AC050C945C0EBF
:1000C0000C9400001092C00088E98093C10086E083
:1000D0008093C2001092C50081E08093C40008950F
:1000E0006150A0F0E091250221E02E0F209325021F
:1000F000F0E0DC012D91CD01EB58FD4F20832091E4
:100100002502203468F310922502EACF8091C100C5
:1001100085FD17C0E091260281E08E0F80932602B4
:10012000F0E0EB58FD4F80818093C600809126025D
:10013000803410F0109226028091C100806280937A
:10014000C1000895FF920F931F93CF93DF93CDB714
:10015000DEB72A970FB6F894DEBF0FBECDBF9091E1
:10016000C10095FD35C0F82E60E070E080E094E0BD
:100170000E9438028E010F5F1F4F672B682B692B7F
:1001800029F01F92FF9289E391E00EC060E070E0D9
:1001900080E092E00E943802672B682B692B91F077
:1001A0001F92FF9284E491E09F938F931F928AE0C5
:1001B0008F931F930F930E941A080FB6F894DEBF17
:1001C0000FBECDBF69E0C8010E94700081E001C090
:1001D00080E02A960FB6F894DEBF0FBECDBFDF9148
:1001E000CF911F910F91FF9008951F920F920FB61C
:1001F0000F9211248F939F93EF93FF939091260278
:1002000080912502981799F0E091260281E08E0FE7
:1002100080932602F0E0EB58FD4F80818093C6006A
:1002200080912602803440F01092260205C0809111
:10023000C1008F7D8093C100FF91EF919F918F91BD
:100240000F900FBE0F901F901895EF92FF920F9393
:100250001F93CF93DF93CDB7DEB7C354D1090FB649
:10026000F894DEBF0FBECDBF80912702882309F42A
:10027000A0C09FB7F89480912702815080932702F5
:100280009FBFDE01119620E0CD01E0912302F0E056
:10029000EB5CFD4F30813D3019F1E0912302F0E03D
:1002A000EB5CFD4F30813A30D9F040912302309120
:1002B00024024317A9F02F3399F02F5FE091230216
:1002C00031E03E0F30932302F0E0EB5CFD4F3081D4
:1002D0003D93309123023034C0F210922302D5CFE7
:1002E000309123023F5F3093230230912302303458
:1002F00010F010922302FC01E20FF11D10828E011A
:100300000F5B1F4F98012F5F3F4F3F932F931F931A
:100310000F937E0123E4E20EF11CFF92EF9228E698
:1003200030E03F932F939F938F930E944A080FB61C
:10033000F894DEBF0FBECDBF0397D9F4D701EC917F
:100340008FEF8E0F833088F4F0E0D8018C91EE0FA0
:10035000FF1FEF53FD4F808311968C9181830E9484
:10036000A50465E08EEE91E022C066E084EF91E0A6
:100370001EC089818F34C1F48A8166E0863451F0D1
:100380008E3479F48BEF91E00E94700081E08093CD
:1003900028020FC082E092E00E94700010922802B2
:1003A00008C089E092E003C065E085EF91E00E941B
:1003B0007000CD5BDF4F0FB6F894DEBF0FBECDBF30
:1003C000DF91CF911F910F91FF90EF9008951F92B1
:1003D0000F920FB60F9211248F939F93EF93FF9379
:1003E0008091C6008A3011F08D3029F49091270257
:1003F0009F5F90932702E091240291E09E0F9093DB
:100400002402F0E0EB5CFD4F808380912402803475
:1004100010F010922402FF91EF919F918F910F9015
:100420000FBE0F901F901895E89A08951F920F9293
:100430000FB60F9211248F93EF93FF93E8988BB12F
:10044000806F8BB988B18F6088B9EAE7F0E080816E
:100450008068808380818064808387E08093180136
:10046000FF91EF918F910F900FBE0F901F901895F5
:10047000CF92DF92EF92FF922FB7F894C090B9021B
:10048000D090BA02E090BB02F090BC022FBF6C216A
:100490007D218E219F21FF90EF90DF90CF900895D6
:1004A0000F931F934FB7F8940091BD021091BE02B5
:1004B0002091BF023091C0026023712382239323D5
:1004C0000091BD021091BE022091BF023091C00286
:1004D00006271727282739270093BD021093BE024D
:1004E0002093BF023093C0024FBF1F910F91089518
:1004F0000F931F934FB7F8940091B5021091B60275
:100500002091B7023091B802602371238223932394
:100510000091B5021091B6022091B7023091B80255
:1005200006271727282739270093B5021093B6020C
:100530002093B7023093B8024FBF1F910F910895D7
:100540008F929F92AF92BF92CF92DF92FF920F93C2
:100550001F93CF93DF93CDB7DEB7A0970FB6F89474
:10056000DEBF0FBECDBF20E2E9E1F1E0DE01119672
:1005700001900D922A95E1F72FEF260F283008F011
:1005800053C0162FF92E082FC22ED12CA1E0B0E0B7
:10059000AC0FBD1F34E0239FA00DB11D11248D9021
:1005A0009D90AD90BC90C501B4010E945002672B94
:1005B000682B692BD1F0C601865F9E4F6C01FC0150
:1005C000108360E070E088E090E00E943802672BC2
:1005D000682B692B19F0185FF6011083F6018081F2
:1005E0001F928F9380E192E010C0C501B4010E9478
:1005F0007802672B682B692BC9F0F601E65FFE4F86
:1006000080811F928F9389E192E09F938F931F9235
:1006100089E08F93FF920F930E941A080FB6F89407
:10062000DEBF0FBECDBF03C08FEF01C080E0A0963C
:100630000FB6F894DEBF0FBECDBFDF91CF911F91F3
:100640000F91FF90DF90CF90BF90AF909F908F90D1
:1006500008958091290280FD3EC084B1807F84B9D5
:1006600034B120912902269581E090E0022E01C04C
:10067000880F0A94EAF7832B84B9809129028111AB
:100680005AC08091B90229B12827207F80910901A1
:1006900082238095809309019091040192239827E9
:1006A00090930401822389239091B9029827909313
:1006B000B9029091B9022091BD029823922B909398
:1006C000BD022091B9029091B50220958223892B19
:1006D0008093B50230C0869590E0FC01E754FD4F51
:1006E000208146B12F70406F40954227DC01AB5FFF
:1006F000BE4F2C91242320952C93DC01A050BF4F9A
:100700003C91342332273C93242323233081322706
:1007100030833081DC01A354BD4F4C913223342B04
:100720003C933081FC01EB54FD4F8081932F9095D9
:100730002923282B2083809129028F5F883018F489
:1007400080932902089510922902089587E48093E6
:100750007C00EAE7F0E08EE8808310927B008081E5
:10076000806480833D9A80E090E00E94E30C909347
:10077000C2028093C102089580912B0208951092C5
:100780002B02089580912A0208952FB7F894809142
:100790001301909114012FBF08951F920F920FB66D
:1007A0000F9211242F933F934F935F936F937F93F7
:1007B0008F939F93AF93BF93EF93FF938091120119
:1007C00090912C02882399F1409178005091790002
:1007D00020912D0230912E02240F351F30932E02CE
:1007E00020932D029F5F903118F490932C027AC0D1
:1007F00010922C02C90161E870E00E94E4078EE7C4
:10080000861B90912A02891729F091E090932B0280
:1008100080932A021092120180917C00807F8E606A
:1008200080937C0010922E0210922D025BC09830B3
:1008300070F0209178003091790040912D02509114
:100840002E02240F351F30932E0220932D029F5F1E
:1008500090932C02903108F445C06091C1027091D0
:10086000C202CB01A0E0B0E0BC01CD012DE0660FDB
:10087000771F881F991F2A95D1F720912D0230915B
:100880002E0240E050E00E94F807309314012093BC
:10089000130129363041B8F08091C1029091C20213
:1008A00001979093C2028093C1026091C10270913E
:1008B000C20280E090E00E94E90C88E690E190930B
:1008C00014018093130110922E0210922D021092A7
:1008D0002C0281E08093120180917C00807F8760F0
:1008E00080937C0080917A00806480937A00FF91ED
:1008F000EF91BF91AF919F918F917F916F915F9198
:100900004F913F912F910F900FBE0F901F90189510
:1009100084B1806384B93C9A0895813031F018F035
:10092000823029F008952C9808952D9808954498C0
:100930000895813031F018F0823029F008952C9A12
:1009400008952D9A0895449A089581E080931601A0
:10095000089582E084BD84E287BD87B5869586953B
:1009600088BD85E085BD86E080936E0008951F9266
:100970000F920FB60F9211242F933F934F935F93D3
:100980006F937F938F939F93AF93BF93EF93FF9357
:1009900098B587B5981708F018BC87B598B58695AF
:1009A0008695890F88BD0E942903FF91EF91BF9121
:1009B000AF919F918F917F916F915F914F913F91F7
:1009C0002F910F900FBE0F901F9018951F920F92AE
:1009D0000FB60F921124CF92DF92EF92FF920F93F6
:1009E0001F932F933F934F935F936F937F938F93B7
:1009F0009F93AF93BF93CF93DF93EF93FF93809138
:100A00001501815080931501811139C08091180121
:100A100081508093180181112FC00E94990481E0B8
:100A20000E94990482E00E9499048BB18F708BB967
:100A300088B1807F88B95B98109228024598809190
:100A40007A008F7780937A008091C100877F8093AE
:100A5000C1000E94140283B7817F846083BF83B783
:100A6000816083BF85B7806685BF8F7D85BF7894A1
:100A7000889583B78E7F83BF84E68093150180912C
:100A80001701882329F08091170181508093170165
:100A900080911601882371F01092320210922F0279
:100AA00010923302109230021092340210923102EE
:100AB00010921601C2E3D2E09FE2E92E92E0F92EF5
:100AC00000E010E0CC24C394D02E9881911105C091
:100AD0008D2D0E949904C88204C091509883992357
:100AE000B9F3D7019C91911110C0F801EE0FFF1FCF
:100AF000ED53FD4F8181D7018C93808188838823BA
:100B000049F08D2D0E948D0405C09150F70190830E
:100B1000992359F30F5F1F4F2196FFEFEF1AFF0A3A
:100B20000330110589F6FF91EF91DF91CF91BF91CD
:100B3000AF919F918F917F916F915F914F913F9175
:100B40002F911F910F91FF90EF90DF90CF900F901A
:100B50000FBE0F901F901895CF93DF93CDB7DEB7E0
:100B60002A970FB6F894DEBF0FBECDBF8091640008
:100B70008460809364008091640080688093640046
:100B8000809164008F7D8093640092E080E80FB6CE
:100B9000F89480936100909361000FBE8FE088B954
:100BA00084EF8BB9539A0E94A6030E9462000E94B0
:100BB00088040E94A90478948E010F5F1F4F9AE564
:100BC000C92E91E0D92E2FE4A22E21E0B22E3AE0D8
:100BD000E32E44E4842E41E0942E59E3652E51E047
:100BE000752E6AEF562E442443948CE3382E0E94CF
:100BF000250160E070E080E096E00E945002672BE3
:100C0000682B692B21F48091170181115AC00E9431
:100C1000C203F82E60E070E080E094E00E943802A9
:100C2000672B682B692B29F01F92FF927F926F929E
:100C300013C060E070E080E092E00E943802672B11
:100C4000682B692B29F01F92FF929F928F9204C00C
:100C50001F92FF92BF92AF921F92EF921F930F933A
:100C60000E941A080FB6F894DEBF0FBECDBF69E030
:100C7000C8010E9470000E94C5039F938F93DF926A
:100C8000CF921F9289E08F931F930F930E941A08AF
:100C900068E0C8010E9470000E94C5030FB6F89476
:100CA000DEBF0FBECDBF88349D4020F466E083E6F2
:100CB00091E003C065E08AE691E00E9470005092E6
:100CC00017010E94BC03882339F00E94C2030E94CE
:100CD000A20081110E94BF0360E071E080E090E01B
:100CE0000E945002672B682B692B29F067E080E790
:100CF00091E00E94700060E071E080E090E00E946E
:100D00007802672B682B692B29F067E088E791E070
:100D10000E947000FF24F3946F2DC8010E94A0026E
:100D2000181624F4682FC8010E947000F39489E01B
:100D3000F812F2CF68E070E080E090E00E9450028C
:100D4000672B682B692BB9F01092220260E070E0EB
:100D500088E090E00E943802672B682B692B31F005
:100D60004092220269E080E891E003C06AE08AE8EC
:100D700091E00E94700068E070E080E090E00E94E6
:100D80007802672B682B692B69F0809122028823F7
:100D900021F069E085E991E003C06AE08FE991E024
:100DA0000E94700080912802882309F4C8C060E87E
:100DB00070E080E090E00E947802672B682B692B3E
:100DC00079F060E870E080E090E00E943802672BE4
:100DD000682B692B29F465E08AEA91E00E94700093
:100DE00060E470E080E090E00E947802672B682B5E
:100DF000692B79F060E470E080E090E00E943802B6
:100E0000672B682B692B29F465E080EB91E00E9449
:100E1000700060E270E080E090E00E947802672B52
:100E2000682B692B79F060E270E080E090E00E942E
:100E30003802672B682B692B29F465E086EB91E07B
:100E40000E94700060E170E080E090E00E94780213
:100E5000672B682B692B79F060E170E080E090E00F
:100E60000E943802672B682B692B29F465E08CEB14
:100E700091E00E94700060E870E080E090E00E94E5
:100E80005002672B682B692B79F060E870E080E0F6
:100E900090E00E943802672B682B692B29F065E0EF
:100EA00082EC91E00E94700060E470E080E090E0ED
:100EB0000E945002672B682B692B79F060E470E088
:100EC00080E090E00E943802672B682B692B29F0A4
:100ED00065E088EC91E00E94700060E270E080E0E4
:100EE00090E00E945002672B682B692B79F060E23A
:100EF00070E080E090E00E943802672B682B692B3D
:100F000029F065E08EEC91E00E94700060E170E0F5
:100F100080E090E00E945002672B682B692B79F0EB
:100F200060E170E080E090E00E943802672B682B5F
:100F3000692B29F065E084ED91E00E94700060EF7C
:100F400070E080E090E00E943802672B682B692BEC
:100F500029F10E94C50389349D4038F05B9A459A77
:100F60008091C10088608093C1000E94C503853EC6
:100F70009C4030F08FB7F894309218018FBF0EC0AC
:100F800068E08AED91E00E9470008FEF9FEB28EA05
:100F9000815090402040E1F700C00000809118018E
:100FA000833040F05B9923CE81E08093C70250925A
:100FB000C80219CE6AE083EE91E00E947000809131
:100FC00018018330E0F3EECFAA1BBB1B51E107C031
:100FD000AA1FBB1FA617B70710F0A61BB70B881FC9
:100FE000991F5A95A9F780959095BC01CD01089558
:100FF000A1E21A2EAA1BBB1BFD010DC0AA1FBB1F1D
:10100000EE1FFF1FA217B307E407F50720F0A21B8E
:10101000B30BE40BF50B661F771F881F991F1A94FB
:1010200069F760957095809590959B01AC01BD0125
:10103000CF010895AEE0B0E0E0E2F8E00C94330EAA
:101040000D891E898F89988D26E02C831A83098348
:1010500097FF02C080E090E801979E838D83AE01E8
:10106000455E5F4F698D7A8DCE0101960E946308BF
:101070004D815E8157FD0AC02F8138854217530785
:101080000CF49A01F801E20FF31F10822E96E4E0AF
:101090000C944F0EAEE0B0E0E0E5F8E00C94350EB5
:1010A0008DE08C838B899C899A838983AE01495E0C
:1010B0005F4F6D897E89CE0101960E94B50B2E96F9
:1010C000E2E00C94510EACE0B0E0E9E6F8E00C94FC
:1010D000250E7C016B018A01FC0117821682838137
:1010E00081FFBDC1CE0101964C01F7019381F6014C
:1010F00093FD859193FF81916F01882309F4ABC122
:10110000853239F493FD859193FF81916F0185328A
:1011100029F4B70190E00E94550DE7CF512C312CF6
:1011200020E02032A0F48B3269F030F4803259F0A4
:10113000833269F420612CC08D3239F0803339F468
:10114000216026C02260246023C0286021C027FDC2
:1011500027C030ED380F3A3078F426FF06C0FAE0A9
:101160005F9E300D1124532E13C08AE0389E300D3F
:101170001124332E20620CC08E3221F426FD6BC167
:10118000206406C08C3611F4206802C0883641F411
:10119000F60193FD859193FF81916F018111C1CF7C
:1011A000982F9F7D9554933028F40C5F1F4FFFE3D9
:1011B000F9830DC0833631F0833771F0833509F040
:1011C0005BC022C0F801808189830E5F1F4F4424D9
:1011D0004394512C540115C03801F2E06F0E711C7C
:1011E000F801A080B18026FF03C0652D70E002C029
:1011F0006FEF7FEFC5012C870E940C0D2C0183013E
:101200002C852F77222E17C03801F2E06F0E711C4B
:10121000F801A080B18026FF03C0652D70E002C0F8
:101220006FEF7FEFC5012C870E94010D2C012C85EB
:101230002068222E830123FC1BC0832D90E04816DA
:101240005906B0F4B70180E290E00E94550D3A943F
:10125000F4CFF50127FC859127FE81915F01B7014D
:1012600090E00E94550D31103A94F1E04F1A510868
:101270004114510471F7E5C0843611F0893639F50F
:10128000F80127FF07C060817181828193810C5F23
:101290001F4F08C060817181882777FD8095982F46
:1012A0000E5F1F4F2F76722E97FF09C09095809585
:1012B000709561957F4F8F4F9F4F2068722E2AE067
:1012C00030E0A4010E94A60DA82EA81844C08537BE
:1012D00029F42F7EB22E2AE030E025C0F22FF97FCC
:1012E000BF2E8F36C1F018F4883579F0B4C080373E
:1012F00019F0883721F0AFC02F2F2061B22EB4FE35
:101300000DC08B2D8460B82E09C024FF0AC09F2F0A
:101310009660B92E06C028E030E005C020E130E03C
:1013200002C020E132E0F801B7FE07C060817181A0
:10133000828193810C5F1F4F06C06081718180E0C4
:1013400090E00E5F1F4FA4010E94A60DA82EA818C2
:10135000FB2DFF777F2E76FE0BC0372D3E7FA51429
:1013600050F474FE0AC072FC08C0372D3E7E05C0E2
:10137000BA2C372D03C0BA2C01C0B52C34FF0DC0D8
:10138000FE01EA0DF11D8081803311F4397E09C020
:1013900032FF06C0B394B39404C0832F867809F05B
:1013A000B39433FD13C030FF06C05A2CB31418F4A5
:1013B000530C5B18B32CB31468F4B70180E290E0CF
:1013C0003C870E94550DB3943C85F5CFB31410F4BF
:1013D0003B1801C0312C34FF12C0B70180E390E00C
:1013E0003C870E94550D3C8532FF17C031FD03C07C
:1013F00088E790E002C088E590E0B7010CC0832F39
:10140000867859F031FF02C08BE201C080E237FDDF
:101410008DE2B70190E00E94550DA51438F4B70194
:1014200080E390E00E94550D5A94F7CFAA94F401FE
:10143000EA0DF11D8081B70190E00E94550DA110C9
:10144000F5CF332009F451CEB70180E290E00E943D
:10145000550D3A94F6CFF7018681978102C08FEF40
:101460009FEF2C96E2E10C94410E20FD09C0FC0197
:1014700023FD05C022FF02C0738362835183408332
:10148000089544FD10C046FD10C0DB01FC01AA0F09
:10149000BB1FEE1FFF1F1094D1F76A0F7B1F8E1F1B
:1014A0009F1F31E003C033E001C034E0660F771FB7
:1014B000881F991F3150D1F7620F711D811D911D39
:1014C00008950F931F93CF93DF938C01C8010E945F
:1014D000170DEC0197FD08C00E94EE0C892BB1F7A7
:1014E000B801CE010E948D0DCE01DF91CF911F91E9
:1014F0000F910895A1E0B0E0E0E8FAE00C942B0E23
:101500008C01C62E7A0129830E94170DAC01552744
:1015100029814B32510521F04D32510569F4206883
:10152000CA94C11002C080E076C0C80129830E941D
:10153000170D298197FDF7CF322F3D7FD32E322F04
:10154000307349F5803339F5BB24BA94BC0C09F4E7
:101550004EC0C80129830E94170D298197FD47C0FD
:10156000382F3F7D383569F48D2D8264D82ECA948A
:10157000CA94CC20E1F1C8010E94170D97FF0BC05F
:1015800036C026FF04C02D2D2260D22E03C03D2D73
:101590003261D32ECB2C812C912C540120ED280FBD
:1015A000283080F0D4FE04C0B8010E948D0D1CC00C
:1015B0002A3040F0D6FEF8CF2F7D3FEE320F363086
:1015C00098F727504D2DC501B4010E94410A4B01E7
:1015D0005C018D2D8260D82ECA94CC2059F0C801B0
:1015E0000E94170D97FFDACFD1FC04C09CCF812C4D
:1015F000912C5401D7FE08C0B094A094909480948C
:10160000811C911CA11CB11C2D2DB501A401C70189
:101610000E94350A81E02196ECE00C94470EA1E28D
:10162000B0E0E5E1FBE00C94290E5C017A01CE010B
:1016300001966C0180E2F60111928A95E9F7F501B5
:10164000838040E050E0912C712C70E0A1E0B0E08C
:10165000F90183FC859183FE81918F01982F9F0171
:10166000811103C080E090E07CC08E3519F44115F3
:10167000510549F1E72FF0E0E417F5073CF48D350B
:1016800059F18D3219F4772001F103C0711001C0B6
:10169000982E892F8695869586958601080F111DAF
:1016A000892F87703D0101C0660C8A95EAF7F80121
:1016B000808186298083991559F0991510F49F5FD0
:1016C000E8CF9150E6CF71E004C07724739401C055
:1016D000712C4F5F5F4FBCCF772019F08E818062F5
:1016E0008E83711103C09924939416C0F6019E0154
:1016F0002F5D3F4F808180958193E217F307D1F7EB
:10170000F2CFE114F10429F0F7018083C7010196BB
:101710007C016150912CF9F0C50169A30E94170D5D
:1017200069A197FD16C0282F269526952695F601C6
:10173000E20FF11D208130E0AC014770552702C057
:10174000359527954A95E2F720FDDBCFB5010E943C
:101750008D0D911087CFE114F10411F0F701108283
:10176000C801A196EEE00C94450E4F925F927F92D5
:101770008F929F92AF92BF92CF92DF92EF92FF92A1
:101780000F931F93CF93DF931F92CDB7DEB76C01FA
:101790002B015A01FC0117821682712CF601F3808D
:1017A000F201F3FC8591F3FE8191382F2F018823FC
:1017B00009F4F3C090E039830E94EE0C3981892B43
:1017C00021F0C6010E94610AE9CF353241F4F201ED
:1017D000F3FC3591F3FE31912F01353269F4C601E6
:1017E00039830E94170D398197FDD5C03817B1F2A2
:1017F000B6010E948D0DD1C03A3239F4F3FC359117
:10180000F3FE31912F0151E001C050E0420110E0A0
:1018100020ED230F2A3090F45260612F70E080E0B9
:1018200090E040E259830E94410A162FF401F3FC34
:101830003591F3FE31914F015981EACF052F232FC6
:10184000240151FF03C0111102C0A7C01FEF383699
:1018500019F03C3659F011C0F401F3FC2591F3FE68
:1018600021912F01283649F4052F08600460F20108
:10187000F3FC2591F3FE21912F01222309F48DC061
:10188000622F70E089E790E029830E94F60C29819D
:10189000892B09F482C000FD07C0F501E080F180CA
:1018A000C50102965C0102C0E12CF12C2E3651F4E8
:1018B000F6014681578160E070E0202FC7010E9449
:1018C000350A6CCF233691F401FF11E0C6010E9466
:1018D000170D97FD60C0E114F10429F0F701808332
:1018E000C70101967C01115089F751C02B3559F47D
:1018F0009201A701612FC6010E940F0B2C010097D6
:1019000009F045C03FC0C60129830E94610A2981B0
:1019100097FD41C02F3659F128F4243631F129368C
:1019200049F127C0233769F02537F9F022C0E114C7
:10193000F10429F0F7018082C70101967C01115062
:1019400071F0C6010E94170D4C0197FD08C00E945E
:10195000EE0C892B61F3B601C4010E948D0DE114D8
:10196000F104A9F0F701108212C0006203C0006107
:1019700001C00064202FA701612FC6010E947A0ACE
:10198000811105C0F6018381807329F406C000FD32
:1019900005CF739403CF772019F0872D90E002C014
:1019A0008FEF9FEF0F90DF91CF911F910F91FF90DD
:1019B000EF90DF90CF90BF90AF909F908F907F90EF
:1019C0005F904F900895A8E1B0E042E050E00C94A1
:1019D000060E0E94140E272F0C94150E911132C181
:1019E000803219F089508550D0F70895FC01059098
:1019F000061621F00020D9F7C00108953197CF01D4
:101A00000895FC010590615070400110D8F7809551
:101A100090958E0F9F1F0895FC01615070400190BA
:101A20000110D8F7809590958E0F9F1F0895CF9342
:101A3000DF93EC012B8120FF33C026FF0AC02F7BF0
:101A40002B838E819F8101969F838E838A8190E074
:101A500029C022FF0FC0E881F9818081992787FD85
:101A60009095009719F420622B831AC03196F98360
:101A7000E8830EC0EA85FB85099597FF09C02B8195
:101A8000019611F080E201C080E1822B8B8308C0B7
:101A90002E813F812F5F3F4F3F832E83992702C0C6
:101AA0008FEF9FEFDF91CF9108950F931F93CF9307
:101AB000DF93FB01238121FD03C08FEF9FEF28C03F
:101AC00022FF16C046815781248135814217530772
:101AD00044F4A081B1819D012F5F3F4F318320836A
:101AE0008C93268137812F5F3F4F3783268310C029
:101AF000EB01092F182F0084F185E02D0995892B22
:101B0000E1F68E819F8101969F838E83812F902F96
:101B1000DF91CF911F910F910895FB01238120FF49
:101B200012C026FD10C08F3F3FEF930761F0828304
:101B30002F7D20642383268137812150310937830B
:101B40002683992708958FEF9FEF0895FA01AA271A
:101B5000283051F1203181F1E8946F936E7F6E5FF0
:101B60007F4F8F4F9F4FAF4FB1E03ED0B4E03CD09E
:101B7000670F781F891F9A1FA11D680F791F8A1F81
:101B8000911DA11D6A0F711D811D911DA11D20D0E8
:101B900009F468943F912AE0269F11243019305DA2
:101BA0003193DEF6CF010895462F4770405D419393
:101BB000B3E00FD0C9F7F6CF462F4F70405D4A33E0
:101BC00018F0495D31FD4052419302D0A9F7EACFA8
:101BD000B4E0A6959795879577956795BA95C9F7D7
:101BE00000976105710508959B01AC010A2E0694CA
:101BF0005795479537952795BA95C9F7620F731F83
:101C0000841F951FA01D0895DC01CB01FC01F999EB
:101C1000FECF06C0F2BDE1BDF89A319600B40D9238
:101C200041505040B8F70895262FF999FECF1FBABA
:101C300092BD81BD20BD0FB6F894FA9AF99A0FBEF5
:101C4000019608959927882708952F923F924F92E1
:101C50005F926F927F928F929F92AF92BF92CF923C
:101C6000DF92EF92FF920F931F93CF93DF93CDB745
:101C7000DEB7CA1BDB0B0FB6F894DEBF0FBECDBFBD
:101C800009942A88398848885F846E847D848C848E
:101C90009B84AA84B984C884DF80EE80FD800C8197
:101CA0001B81AA81B981CE0FD11D0FB6F894DEBF7A
:0C1CB0000FBECDBFED010895F894FFCFEA
:101CBC00FFFFFFFFFFFFFFFFFFFF0102030405060D
:101CCC00070801100E6401FA3C010000000002003C
:101CDC0000000001000200000000040000000002EF
:101CEC00000400000000080000533A253033753A18
:101CFC00460D0A00533A253033753A520D0A0053FB
:101D0C003A253033753A450D0A00563A253034756C
:101D1C000D0A00424C4F570D0A00424F4B0D0A0062
:101D2C0046305F444E0D0A0046305F55500D0A0098
:101D3C00434F4E465F444E0D0A004553544F505F7F
:101D4C00444E0D0A00434F4E465F55500D0A004558
:101D5C0053544F505F55500D0A002D4C310D0A0055
:101D6C002D4C320D0A002D4C330D0A002D4C340D28
:101D7C000A002B4C310D0A002B4C320D0A002B4C57
:101D8C00330D0A002B4C340D0A0042454D5054596A
:101D9C000D0A005057525F444F574E0D0A004C4FDE
:101DAC004B0D0A004C4552520D0A004F4E4F4B0D35
:101DBC000A004F464F4B0D0A004F4552520D0A0078
:101DCC004625755F444E0D0A004625755F55500D2E
:021DDC000A00FB
:00000001FF
