:100000000C9443000C9460000C9460000C9460000D
:100010000C9460000C9460000C9460000C946000E0
:100020000C9460000C9460000C9460000C946000D0
:100030000C9460000C9460000C949C030C94600081
:100040000C9460000C9460000C94E6010C94ED009C
:100050000C9460000C944B030C9460000C946000B2
:100060000C9460000C9460004C256868753A20255B
:100070006868752F25686875006364696E6F7073B2
:100080007578585B000011241FBECFEFD8E0DEBFAB
:10009000CDBF11E0A0E0B1E0EAEBF6E102C00590CF
:1000A0000D92AC3CB107D9F712E0ACECB1E001C065
:1000B0001D92AF36B107E1F70E944A040C945B0B26
:1000C0000C9400001092C00088E98093C10086E083
:1000D0008093C2001092C50081E08093C40008950F
:1000E0006150A0F0E091CF0121E02E0F2093CF01CD
:1000F000F0E0DC012D91CD01E35EFD4F20832091E6
:10010000CF01203468F31092CF01EACF8091C10073
:1001100085FD17C0E091D00181E08E0F8093D00162
:10012000F0E0E35EFD4F80818093C6008091D001B6
:10013000803410F01092D0018091C10080628093D1
:10014000C1000895FF920F931F93CF93DF93CDB714
:10015000DEB72A970FB6F894DEBF0FBECDBF9091E1
:10016000C10095FD2DC0F82E82E090E00E941302A0
:100170008E010F5F1F4F892B29F01F92FF9287E39B
:1001800091E00AC081E090E00E941302892B91F077
:100190001F92FF9282E491E09F938F931F928AE0D7
:1001A0008F931F930F930E9442050FB6F894DEBF02
:1001B0000FBECDBF69E0C8010E94700081E001C0A0
:1001C00080E02A960FB6F894DEBF0FBECDBFDF9158
:1001D000CF911F910F91FF9008951F920F920FB62C
:1001E0000F9211248F939F93EF93FF939091D001DF
:1001F0008091CF01981799F0E091D00181E08E0FA6
:100200008093D001F0E0E35EFD4F80818093C600D3
:100210008091D001803440F01092D00105C08091CF
:10022000C1008F7D8093C100FF91EF919F918F91CD
:100230000F900FBE0F901F901895EF92FF920F93A3
:100240001F93CF93DF93CDB7DEB7C454D1090FB658
:10025000F894DEBF0FBECDBF8091D101882309F491
:10026000A7C09FB7F8948091D10181508093D101AC
:100270009FBFDE01119620E0CD01E091CD01F0E0BD
:10028000E352FE4F30813D3019F1E091CD01F0E0B5
:10029000E352FE4F30813A30D9F04091CD01309198
:1002A000CE014317A9F02F3399F02F5FE091CD01D4
:1002B00031E03E0F3093CD01F0E0E352FE4F30814C
:1002C0003D933091CD013034C0F21092CD01D5CFA5
:1002D0003091CD013F5F3093CD013091CD0130346D
:1002E00010F01092CD01FC01E20FF11D10827E0191
:1002F00021E4E20EF11C97012F5F3F4F3F932F93B4
:10030000FF92EF928E010C5B1F4F1F930F9328E615
:1003100030E03F932F939F938F930E9472050FB607
:10032000F894DEBF0FBECDBF039799F5D801EC91CD
:100330008FEF8E0F833048F5F0E03197CF01880FB3
:10034000991FE80FF91FEA59FD4F9081D7018C9151
:10035000981304C0918111968C9198130E948F0379
:10036000D801EC91F0E03197D7018C919F01220FD9
:10037000331FE20FF31FEA59FD4F808311968C91D2
:10038000818365E086EA91E011C066E08CEA91E045
:100390000DC089818B3439F488E080930B0165E0CE
:1003A00083EB91E003C065E08DEA91E00E9470006C
:1003B000CC5BDF4F0FB6F894DEBF0FBECDBFDF9131
:1003C000CF911F910F91FF90EF9008951F920F9280
:1003D0000FB60F9211248F939F93EF93FF93809109
:1003E000C6008A3011F08D3029F49091D1019F5FC1
:1003F0009093D101E091CE0191E09E0F9093CE01B8
:10040000F0E0E352FE4F80838091CE01803410F003
:100410001092CE01FF91EF919F918F910F900FBE9F
:100420000F901F9018954FB7F89420915F0230916C
:1004300060024FBF8223932308954FB7F894209111
:1004400061023091620282239323209161023091F4
:1004500062022827392730936202209361024FBF3E
:1004600008954FB7F89420915D0230915E02822387
:10047000932320915D0230915E0228273927309323
:100480005E0220935D024FBF0895AF92BF92DF924C
:10049000EF92FF920F931F93CF93DF93CDB7DEB709
:1004A00028970FB6F894DEBF0FBECDBF28E0ECE072
:1004B000F1E0DE01119601900D922A95E1F70FEF20
:1004C000060F043008F04FC0F62ED92EE82E10E0AB
:1004D000F801EE0FFF1F21E030E02C0F3D1FE20F6F
:1004E000F31FA080B180C5010E941D02892BF9F085
:1004F0000C5F1E4FF801F08280E190E00E94130231
:10050000892B21F064E06F0DF801608380E290E0B8
:100510000E941302892B21F0F8018081885F80837B
:10052000F80180811F928F9389EB91E00DC0C50186
:100530000E943102892BC9F0F801EC5FFE4F8081E7
:100540001F928F9382EC91E09F938F931F9289E08B
:100550008F93DF92EF920E9442050FB6F894DEBFB0
:100560000FBECDBF03C08FEF01C080E028960FB64D
:10057000F894DEBF0FBECDBFDF91CF911F910F91D9
:10058000FF90EF90DF90BF90AF900895CF93DF93EF
:10059000EFE5F2E0908123B12095292780910301B6
:1005A00082238095809303019091020192239827E2
:1005B00090930201822389239081982790839081D0
:1005C000C1E6D2E028819823922B98832081ADE563
:1005D000B2E09C9120958223892B8C93918126B146
:1005E0002095292780910101822380958093010124
:1005F00090910001922398279093000182238923F0
:10060000918198279183918129819823922B9983B5
:10061000218111969C91119720958223892B119607
:100620008C93DF91CF910895809165028823E1F04A
:100630002FB7F89480916302909164022FBF60EE0F
:1006400071E00E942E05E2E2E61BF0E0EC5EFE4F58
:1006500080819091D201891729F091E09093D30184
:100660008093D20110926502089587E480937C0004
:10067000EAE7F0E08EE8808310927B00808180645E
:10068000808308958091D30108951092D301089535
:100690008091D20108951F920F920FB60F921124EC
:1006A0002F933F938F939F932091780030917900FF
:1006B0008091D5019091D601820F931F9093D6011E
:1006C0008093D5012091D4012F5F2093D401203154
:1006D00068F0909364028093630281E080936502E6
:1006E0001092D4011092D6011092D50180917A0017
:1006F000806480937A009F918F913F912F910F900A
:100700000FBE0F901F901895E6E6F2E084E082831A
:1007100088E0858380E280878CE28AB9089581E051
:1007200080930901089582E084BD94E297BD95E02D
:1007300095BD80936E0008951F920F920FB60F9291
:1007400011242F933F934F935F936F937F938F93D6
:100750009F93AF93BF93CF93DF93EF93FF938091DA
:100760000801815080930801811129C080910B01FB
:10077000815080930B0181111FC0809168022091EC
:100780006B0290916E02822B892B8BB985B78066A4
:1007900085BF8F7D85BF83B7817F846083BF83B72B
:1007A000816083BF85B7806685BF8F7D85BF789464
:1007B000889583B78E7F83BF84E6809308018091FC
:1007C0000A01882329F080910A01815080930A014F
:1007D0000E94C60280910901882371F01092DA010B
:1007E0001092D7011092DB011092D8011092DC0117
:1007F0001092D90110920901AAEDB1E0C7EDD1E044
:1008000080E090E041E02C9121110DC0FC01EE0F41
:10081000FF1FE80FF91FEA59FD4F22813BB1232B3F
:100820002BB94C9304C021502C93222379F32881B7
:10083000211113C0FC01EE0FFF1FE80FF91FEA5949
:10084000FD4F2181288320812C93222351F0228186
:100850003BB1209523232BB904C0215028832223A8
:1008600049F30196119621968330910561F6FF9127
:10087000EF91DF91CF91BF91AF919F918F917F9138
:100880006F915F914F913F912F910F900FBE0F90FD
:100890001F901895CF93DF93CDB7DEB72A970FB689
:1008A000F894DEBF0FBECDBF80916400846080935A
:1008B000640080916400806880936400809164008B
:1008C0008F7D8093640092E080E80FB6F894809367
:1008D0006100909361000FBE8BE385B98FE188B909
:1008E0000E9435030E9462000E9484030E949303C9
:1008F00078948E010F5F1F4F8DE4C82E81E0D82EB3
:100900009AE0E92E22E4A22E21E0B22E37E3832ED4
:1009100031E0932E772473944AEF642E0E941D01D8
:100920000E94140383E090E00E941D02892B21F4B1
:1009300080910A01811133C00E944803F82E82E0A1
:1009400090E00E941302892B29F01F92FF929F9240
:100950008F920FC081E090E00E941302892B29F052
:100960001F92FF92BF92AF9204C01F92FF92DF923C
:10097000CF921F92EF921F930F930E9442050FB6E2
:10098000F894DEBF0FBECDBF69E0C8010E947000C1
:1009900063E188E591E00E94700060920A010E9484
:1009A0004203882339F00E9448030E94A20081116B
:1009B0000E94450380E091E00E941D02892B29F0EE
:1009C00067E08CE691E00E94700080E091E00E9478
:1009D0003102892B29F067E084E791E00E947000E2
:1009E000FF24F3946F2DC8010E944502181624F4C9
:1009F000682FC8010E947000F39495E0F912F2CFBD
:100A000088E090E00E941D02892B99F01092CC01A1
:100A100080E390E00E941302892B31F07092CC01A8
:100A200069E08CE791E003C06AE086E891E00E940B
:100A3000700088E090E00E943102892B09F46ECFAB
:100A40008091CC01882321F069E081E991E003C025
:100A50006AE08BE991E00E94700060CFAA1BBB1B8B
:100A600051E107C0AA1FBB1FA617B70710F0A61BAE
:100A7000B70B881F991F5A95A9F780959095BC01CF
:100A8000CD010895AEE0B0E0E8E4F5E00C94320B5F
:100A90000D891E898F89988D26E02C831A830983FE
:100AA00097FF02C080E090E801979E838D83AE019E
:100AB000455E5F4F698D7A8DCE0101960E948B0550
:100AC0004D815E8157FD0AC02F813885421753073B
:100AD0000CF49A01F801E20FF31F10822E96E4E065
:100AE0000C944E0BAEE0B0E0E8E7F5E00C94340B6C
:100AF0008DE08C838B899C899A838983AE01495EC2
:100B00005F4F6D897E89CE0101960E94DD082E9689
:100B1000E2E00C94500BACE0B0E0E1E9F5E00C94BD
:100B2000240B7C016B018A01FC01178216828381F0
:100B300081FFBDC1CE0101964C01F7019381F60101
:100B400093FD859193FF81916F01882309F4ABC1D7
:100B5000853239F493FD859193FF81916F01853240
:100B600029F4B70190E00E94720AE7CF512C312C92
:100B700020E02032A0F48B3269F030F4803259F05A
:100B8000833269F420612CC08D3239F0803339F41E
:100B9000216026C02260246023C0286021C027FD78
:100BA00027C030ED380F3A3078F426FF06C0FAE05F
:100BB0005F9E300D1124532E13C08AE0389E300DF5
:100BC0001124332E20620CC08E3221F426FD6BC11D
:100BD000206406C08C3611F4206802C0883641F4C7
:100BE000F60193FD859193FF81916F018111C1CF32
:100BF000982F9F7D9554933028F40C5F1F4FFFE38F
:100C0000F9830DC0833631F0833771F0833509F0F5
:100C10005BC022C0F801808189830E5F1F4F44248E
:100C20004394512C540115C03801F2E06F0E711C31
:100C3000F801A080B18026FF03C0652D70E002C0DE
:100C40006FEF7FEFC5012C870E94290A2C018301D9
:100C50002C852F77222E17C03801F2E06F0E711C01
:100C6000F801A080B18026FF03C0652D70E002C0AE
:100C70006FEF7FEFC5012C870E941E0A2C012C8587
:100C80002068222E830123FC1BC0832D90E0481690
:100C90005906B0F4B70180E290E00E94720A3A94DB
:100CA000F4CFF50127FC859127FE81915F01B70103
:100CB00090E00E94720A31103A94F1E04F1A510804
:100CC0004114510471F7E5C0843611F0893639F5C5
:100CD000F80127FF07C060817181828193810C5FD9
:100CE0001F4F08C060817181882777FD8095982FFC
:100CF0000E5F1F4F2F76722E97FF09C0909580953B
:100D0000709561957F4F8F4F9F4F2068722E2AE01C
:100D100030E0A4010E94C30AA82EA81844C0853759
:100D200029F42F7EB22E2AE030E025C0F22FF97F81
:100D3000BF2E8F36C1F018F4883579F0B4C08037F3
:100D400019F0883721F0AFC02F2F2061B22EB4FEEA
:100D50000DC08B2D8460B82E09C024FF0AC09F2FC0
:100D60009660B92E06C028E030E005C020E130E0F2
:100D700002C020E132E0F801B7FE07C06081718156
:100D8000828193810C5F1F4F06C06081718180E07A
:100D900090E00E5F1F4FA4010E94C30AA82EA8185E
:100DA000FB2DFF777F2E76FE0BC0372D3E7FA514DF
:100DB00050F474FE0AC072FC08C0372D3E7E05C098
:100DC000BA2C372D03C0BA2C01C0B52C34FF0DC08E
:100DD000FE01EA0DF11D8081803311F4397E09C0D6
:100DE00032FF06C0B394B39404C0832F867809F011
:100DF000B39433FD13C030FF06C05A2CB31418F45B
:100E0000530C5B18B32CB31468F4B70180E290E084
:100E10003C870E94720AB3943C85F5CFB31410F45A
:100E20003B1801C0312C34FF12C0B70180E390E0C1
:100E30003C870E94720A3C8532FF17C031FD03C017
:100E400088E790E002C088E590E0B7010CC0832FEE
:100E5000867859F031FF02C08BE201C080E237FD95
:100E60008DE2B70190E00E94720AA51438F4B70130
:100E700080E390E00E94720A5A94F7CFAA94F4019A
:100E8000EA0DF11D8081B70190E00E94720AA11065
:100E9000F5CF332009F451CEB70180E290E00E94F3
:100EA000720A3A94F6CFF7018681978102C08FEFDC
:100EB0009FEF2C96E2E10C94400B20FD09C0FC0151
:100EC00023FD05C022FF02C07383628351834083E8
:100ED000089544FD10C046FD10C0DB01FC01AA0FBF
:100EE000BB1FEE1FFF1F1094D1F76A0F7B1F8E1FD1
:100EF0009F1F31E003C033E001C034E0660F771F6D
:100F0000881F991F3150D1F7620F711D811D911DEE
:100F100008950F931F93CF93DF938C01C8010E9414
:100F2000340AEC0197FD08C00E940B0A892BB1F727
:100F3000B801CE010E94AA0ACE01DF91CF911F9184
:100F40000F910895A1E0B0E0E8EAF7E00C942A0BD5
:100F50008C01C62E7A0129830E94340AAC015527E0
:100F600029814B32510521F04D32510569F4206839
:100F7000CA94C11002C080E076C0C80129830E94D3
:100F8000340A298197FDF7CF322F3D7FD32E322FA0
:100F9000307349F5803339F5BB24BA94BC0C09F49D
:100FA0004EC0C80129830E94340A298197FD47C099
:100FB000382F3F7D383569F48D2D8264D82ECA9440
:100FC000CA94CC20E1F1C8010E94340A97FF0BC0FB
:100FD00036C026FF04C02D2D2260D22E03C03D2D29
:100FE0003261D32ECB2C812C912C540120ED280F73
:100FF000283080F0D4FE04C0B8010E94AA0A1CC0A8
:101000002A3040F0D6FEF8CF2F7D3FEE320F36303B
:1010100098F727504D2DC501B4010E9469074B0177
:101020005C018D2D8260D82ECA94CC2059F0C80165
:101030000E94340A97FFDACFD1FC04C09CCF812CE8
:10104000912C5401D7FE08C0B094A0949094809441
:10105000811C911CA11CB11C2D2DB501A401C7013F
:101060000E945D0781E02196ECE00C94460BA1E222
:10107000B0E0EDE3F8E00C94280B5C017A01CE01BE
:1010800001966C0180E2F60111928A95E9F7F5016B
:10109000838040E050E0912C712C70E0A1E0B0E042
:1010A000F90183FC859183FE81918F01982F9F0127
:1010B000811103C080E090E07CC08E3519F44115A9
:1010C000510549F1E72FF0E0E417F5073CF48D35C1
:1010D00059F18D3219F4772001F103C0711001C06C
:1010E000982E892F8695869586958601080F111D65
:1010F000892F87703D0101C0660C8A95EAF7F801D7
:10110000808186298083991559F0991510F49F5F85
:10111000E8CF9150E6CF71E004C07724739401C00A
:10112000712C4F5F5F4FBCCF772019F08E818062AA
:101130008E83711103C09924939416C0F6019E0109
:101140002F5D3F4F808180958193E217F307D1F7A0
:10115000F2CFE114F10429F0F7018083C701019671
:101160007C016150912CF9F0C50169A30E94340AF9
:1011700069A197FD16C0282F269526952695F6017C
:10118000E20FF11D208130E0AC014770552702C00D
:10119000359527954A95E2F720FDDBCFB5010E94F2
:1011A000AA0A911087CFE114F10411F0F70110821F
:1011B000C801A196EEE00C94440B4F925F927F928F
:1011C0008F929F92AF92BF92CF92DF92EF92FF9257
:1011D0000F931F93CF93DF931F92CDB7DEB76C01B0
:1011E0002B015A01FC0117821682712CF601F38043
:1011F000F201F3FC8591F3FE8191382F2F018823B2
:1012000009F4F3C090E039830E940B0A3981892BDD
:1012100021F0C6010E948907E9CF353241F4F2017D
:10122000F3FC3591F3FE31912F01353269F4C6019B
:1012300039830E94340A398197FDD5C03817B1F23D
:10124000B6010E94AA0AD1C03A3239F4F3FC3591B2
:10125000F3FE31912F0151E001C050E0420110E056
:1012600020ED230F2A3090F45260612F70E080E06F
:1012700090E040E259830E946907162FF401F3FCC5
:101280003591F3FE31914F015981EACF052F232F7C
:10129000240151FF03C0111102C0A7C01FEF38364F
:1012A00019F03C3659F011C0F401F3FC2591F3FE1E
:1012B00021912F01283649F4052F08600460F201BE
:1012C000F3FC2591F3FE21912F01222309F48DC017
:1012D000622F70E089E790E029830E94130A298138
:1012E000892B09F482C000FD07C0F501E080F18080
:1012F000C50102965C0102C0E12CF12C2E3651F49E
:10130000F6014681578160E070E0202FC7010E94FE
:101310005D076CCF233691F401FF11E0C6010E94F6
:10132000340A97FD60C0E114F10429F0F7018083CD
:10133000C70101967C01115089F751C02B3559F432
:101340009201A701612FC6010E9437082C01009766
:1013500009F045C03FC0C60129830E948907298141
:1013600097FD41C02F3659F128F4243631F1293642
:1013700049F127C0233769F02537F9F022C0E1147D
:10138000F10429F0F7018082C70101967C01115018
:1013900071F0C6010E94340A4C0197FD08C00E94FA
:1013A0000B0A892B61F3B601C4010E94AA0AE11459
:1013B000F104A9F0F701108212C0006203C00061BD
:1013C00001C00064202FA701612FC6010E94A2075F
:1013D000811105C0F6018381807329F406C000FDE8
:1013E00005CF739403CF772019F0872D90E002C0CA
:1013F0008FEF9FEF0F90DF91CF911F910F91FF9093
:10140000EF90DF90CF90BF90AF909F908F907F90A4
:101410005F904F900895911114C1803219F0895056
:101420008550D0F70895FC010590061621F00020A4
:10143000D9F7C00108953197CF010895FC010590B7
:10144000615070400110D8F7809590958E0F9F1FC6
:101450000895FC016150704001900110D8F780950B
:1014600090958E0F9F1F0895CF93DF93EC012B81F2
:1014700020FF33C026FF0AC02F7B2B838E819F81E4
:1014800001969F838E838A8190E029C022FF0FC03E
:10149000E881F9818081992787FD9095009719F45B
:1014A00020622B831AC03196F983E8830EC0EA8547
:1014B000FB85099597FF09C02B81019611F080E209
:1014C00001C080E1822B8B8308C02E813F812F5F7A
:1014D0003F4F3F832E83992702C08FEF9FEFDF910D
:1014E000CF9108950F931F93CF93DF93FB01238137
:1014F00021FD03C08FEF9FEF28C022FF16C0468159
:101500005781248135814217530744F4A081B1816A
:101510009D012F5F3F4F318320838C93268137813C
:101520002F5F3F4F3783268310C0EB01092F182F01
:101530000084F185E02D0995892BE1F68E819F814C
:1015400001969F838E83812F902FDF91CF911F91E2
:101550000F910895FB01238120FF12C026FD10C0CA
:101560008F3F3FEF930761F082832F7D20642383B9
:1015700026813781215031093783268399270895A1
:101580008FEF9FEF0895FA01AA27283051F12031FB
:1015900081F1E8946F936E7F6E5F7F4F8F4F9F4F07
:1015A000AF4FB1E03ED0B4E03CD0670F781F891F49
:1015B0009A1FA11D680F791F8A1F911DA11D6A0F17
:1015C000711D811D911DA11D20D009F468943F91CA
:1015D0002AE0269F11243019305D3193DEF6CF01C9
:1015E0000895462F4770405D4193B3E00FD0C9F78F
:1015F000F6CF462F4F70405D4A3318F0495D31FDFC
:101600004052419302D0A9F7EACFB4E0A69597954E
:10161000879577956795BA95C9F700976105710524
:1016200008959B01AC010A2E06945795479537956E
:101630002795BA95C9F7620F731F841F951FA01DC8
:1016400008959927882708952F923F924F925F928D
:101650006F927F928F929F92AF92BF92CF92DF92C2
:10166000EF92FF920F931F93CF93DF93CDB7DEB727
:10167000CA1BDB0B0FB6F894DEBF0FBECDBF0994BB
:101680002A88398848885F846E847D848C849B8412
:10169000AA84B984C884DF80EE80FD800C811B8120
:1016A000AA81B981CE0FD11D0FB6F894DEBF0FBE4F
:0A16B000CDBFED010895F894FFCFBF
:1016BA00FFFFFFFF010203046401FA0800020004AD
:1016CA0000080010000102040507090B0D1012158D
:1016DA00181B1E2124282C3034383D41464B5055C6
:1016EA005A60666C72787E533A253033753A460DE5
:1016FA000A00533A253033753A520D0A00533A25F7
:10170A003033753A450D0A005232303139303831AA
:10171A00382D333531356334660D0A0046305F445F
:10172A004E0D0A0046305F55500D0A00434F4E4693
:10173A005F444E0D0A004553544F505F444E0D0A04
:10174A0000434F4E465F55500D0A004553544F50C3
:10175A005F55500D0A004C4F4B0D0A004C45525232
:10176A000D0A004B4F4B0D0A004625755F444E0D7E
:0C177A000A004625755F55500D0A00005E
:00000001FF
