:100000000C9443000C94C3010C9460000C946000A9
:100010000C9460000C9460000C9460000C946000E0
:100020000C9460000C9460000C9460000C946000D0
:100030000C9460000C9460000C94CF040C94A00409
:100040000C9460000C9460000C9494010C94A20039
:100050000C9460000C947F030C9460000C9460007E
:100060000C9460000C9460004C256868753A20255B
:100070006868752F25686875006364696E6F7073B2
:100080007578585B000011241FBECFEFD8E0DEBFAB
:10009000CDBF12E0A0E0B1E0E4EEFBE102C00590CC
:1000A0000D92A831B107D9F712E0A8E1B2E001C082
:1000B0001D92AF3BB107E1F70E949A050C94F00D39
:1000C0000C9400001092C00088E98093C10086E083
:1000D0008093C2001092C50081E08093C40008950F
:1000E0006150A0F0E0911B0221E02E0F20931B0233
:1000F000F0E0DC012D91CD01E559FD4F20832091E9
:100100001B02203468F310921B02EACF8091C100D9
:1001100085FD17C0E0911C0281E08E0F80931C02C8
:10012000F0E0E559FD4F80818093C60080911C026C
:10013000803410F010921C028091C1008062809384
:10014000C10008951F920F920FB60F9211248F9342
:100150009F93EF93FF9390911C0280911B0298173D
:1001600099F0E0911C0281E08E0F80931C02F0E078
:10017000E559FD4F80818093C60080911C02803438
:1001800040F010921C0205C08091C1008F7D8093C9
:10019000C100FF91EF919F918F910F900FBE0F9033
:1001A0001F901895EF92FF920F931F93CF93DF93B9
:1001B000CDB7DEB7C354D1090FB6F894DEBF0FBE7A
:1001C000CDBF80911D02882309F4A0C09FB7F89489
:1001D00080911D02815080931D029FBFDE01119608
:1001E00020E0CD01E0911902F0E0E55DFD4F3081A6
:1001F0003D3019F1E0911902F0E0E55DFD4F3081ED
:100200003A30D9F04091190230911A024317A9F0FF
:100210002F3399F02F5FE091190231E03E0F3093B8
:100220001902F0E0E55DFD4F30813D9330911902F8
:100230003034C0F210921902D5CF309119023F5FCD
:100240003093190230911902303410F010921902D3
:10025000FC01E20FF11D10828E010F5B1F4F980110
:100260002F5F3F4F3F932F931F930F937E0123E404
:10027000E20EF11CFF92EF9228E630E03F932F93BD
:100280009F938F930E94DE070FB6F894DEBF0FBED8
:10029000CDBF0397D9F4D701EC918FEF8E0F833048
:1002A00088F4F0E0D8018C91EE0FFF1FE954FD4F68
:1002B000808311968C9181830E948E0466E083EE88
:1002C00091E022C067E089EE91E01EC089818F3401
:1002D000C1F48A8167E0863451F08E3479F480EF7E
:1002E00091E00E94700081E080931E020FC087EFB2
:1002F00091E00E94700010921E0208C08EEF91E003
:1003000003C066E08AEE91E00E947000CD5BDF4F93
:100310000FB6F894DEBF0FBECDBFDF91CF911F9116
:100320000F91FF90EF9008951F920F920FB60F92CA
:1003300011248F939F93EF93FF938091C6008A308F
:1003400011F08D3029F490911D029F5F90931D0252
:10035000E0911A0291E09E0F90931A02F0E0E55DA1
:10036000FD4F808380911A02803410F010921A029F
:10037000FF91EF919F918F910F900FBE0F901F9063
:100380001895E89A08951F920F920FB60F921124B4
:100390008F93EF93FF93E8988BB1806F8BB988B1FF
:1003A0008F6088B9459AEAE7F0E0808180688083B1
:1003B00080818064808385E080931801FF91EF91B4
:1003C0008F910F900FBE0F901F901895CF92DF92D4
:1003D000EF92FF922FB7F894C090AF02D090B00286
:1003E000E090B102F090B2022FBF6C217D218E21EE
:1003F0009F21FF90EF90DF90CF9008950F931F9370
:100400004FB7F8940091B3021091B4022091B50255
:100410003091B60260237123822393230091B302AB
:100420001091B4022091B5023091B6020627172729
:10043000282739270093B3021093B4022093B50202
:100440003093B6024FBF1F910F9108950F931F93E2
:100450004FB7F8940091AB021091AC022091AD021D
:100460003091AE0260237123822393230091AB026B
:100470001091AC022091AD023091AE0206271727F1
:10048000282739270093AB021093AC022093AD02CA
:100490003093AE024FBF1F910F9108958F929F929C
:1004A000AF92BF92CF92DF92FF920F931F93CF93A1
:1004B000DF93CDB7DEB7A0970FB6F894DEBF0FBEBF
:1004C000CDBF20E2E9E1F1E0DE01119601900D924D
:1004D0002A95E1F72FEF260F283008F054C0162F89
:1004E000F92E082FC22ED12CA1E0B0E0AC0FBD1F19
:1004F00034E0239FA00DB11D11248D909D90AD90EF
:10050000BC90C501B4010E94FE01672B682B692BCA
:10051000D1F0C601865F9E4F6C01FC01108360E044
:1005200070E088E090E00E94E601672B682B692B61
:1005300019F0185FF6011083F60180811F928F93E6
:1005400085E092E010C0C501B4010E942602672B2D
:10055000682B692BD1F0F601E65FFE4F80811F9278
:100560008F938EE092E09F938F931F9289E08F93F9
:10057000FF920F930E94AE078F5F0FB6F894DEBF15
:100580000FBECDBF03C08FEF01C080E0A0960FB6B5
:10059000F894DEBF0FBECDBFDF91CF911F910F91B9
:1005A000FF90DF90CF90BF90AF909F908F90089575
:1005B00080911F0280FD3EC084B1807F84B934B138
:1005C00020911F02269581E090E0022E01C0880F45
:1005D0000A94EAF7832B84B980911F0281115AC0D3
:1005E0008091AF0229B12827207F809109018223C1
:1005F000809580930901909104019223982790930C
:100600000401822389239091AF0298279093AF022F
:100610009091AF022091B3029823922B9093B30252
:100620002091AF029091AB0220958223892B809379
:10063000AB0230C0869590E0FC01E155FD4F208172
:1006400046B12F70406F40954227DC01AB5FBE4F33
:100650002C91242320952C93DC01A050BF4F3C917A
:10066000342332273C9324232323308132273083C1
:100670003081DC01AD54BD4F4C913223342B3C937F
:100680003081FC01E555FD4F8081932F9095292302
:10069000282B208380911F028F5F883018F480936D
:1006A0001F02089510921F02089587E480937C0032
:1006B000EAE7F0E08EE8808310927B00808180641E
:1006C00080833D9A459A80E090E00E94770C909359
:1006D000B8028093B702089580912102811110928F
:1006E00021020895109221028091200208952FB7CF
:1006F000F89480911301909114012FBF08951F92D7
:100700000F920FB60F921124CF92DF92EF92FF92C9
:100710002F933F934F935F936F937F938F939F9309
:10072000AF93BF93EF93FF938091120190912202B8
:10073000882309F452C040917800509179002091AB
:10074000230230912402240F351F3093240220937A
:1007500023029F5F903118F49093220239C01092C7
:100760002202C90161E870E00E9478078EE7861BCB
:10077000482F50E02091200230E02F5F3F4F241798
:100780003507CCF02091200230E04F5F5F4F4217D9
:1007900053078CF090912002891791F08E3729F43D
:1007A000909120029D3738F40BC0811109C09091BF
:1007B0002002923028F491E090932102809320024D
:1007C0001092120180917C00807F8E6080937C006B
:1007D00010922402109223026AC09E3070F0209181
:1007E0007800309179004091230250912402240F27
:1007F000351F30932402209323029F5F909322029F
:10080000903108F454C06091B7027091B802CB01E6
:10081000A0E0B0E0BC01CD013BE0660F771F881F70
:10082000991F3A95D1F7209123023091240240E09C
:1008300050E00E948C0769017A01309314012093E3
:100840001301293680E1380718F12091B702309161
:10085000B8022F5F3F4FA4E3B8E00E946907D69427
:10086000C794960140E050E00E948C073093B80294
:100870002093B7026091B7027091B80280E090E0D7
:100880000E947D0C88E690E19093140180931301FF
:1008900010922402109223021092220281E080938F
:1008A000120180917C00807F876080937C00809122
:1008B0007A00806480937A00FF91EF91BF91AF91AD
:1008C0009F918F917F916F915F914F913F912F9168
:1008D000FF90EF90DF90CF900F900FBE0F901F9082
:1008E000189584B1806384B93C9A0895813031F0C1
:1008F00018F0823029F008952C9808952D980895C5
:1009000044980895813031F018F0823029F008952C
:100910002C9A08952D9A0895449A089581E0809321
:100920001601089582E084BD84E287BD87B586956F
:10093000869588BD85E085BD86E080936E0008952C
:100940001F920F920FB60F9211242F933F934F9344
:100950005F936F937F938F939F93AF93BF93EF9327
:10096000FF9398B587B5981708F018BC87B598B568
:1009700086958695890F88BD0E94D802FF91EF91D8
:10098000BF91AF919F918F917F916F915F914F91A7
:100990003F912F910F900FBE0F901F9018951F92AF
:1009A0000F920FB60F921124AF92BF92CF92DF92A7
:1009B000EF92FF920F931F932F933F934F935F9369
:1009C0006F937F938F939F93AF93BF93CF93DF9357
:1009D000EF93FF9380911501815080931501811150
:1009E00034C08091180181508093180181112AC070
:1009F0000E94820481E00E94820482E00E948204BC
:100A00008BB18F708BB988B1807F88B95B98109259
:100A10001E02459880917A008F7780937A000E9419
:100A2000C10183B7817F846083BF83B7816083BF47
:100A300085B7806685BF8F7D85BF7894889583B79D
:100A40008E7F83BF84E680931501809117018823F0
:100A500029F0809117018150809317018091160130
:100A6000882371F010922802109225021092290218
:100A70001092260210922A0210922702109216015A
:100A8000C8E2D2E095E2E92E92E0F92E00E010E013
:100A9000AA24A394B02E6E019881911105C08B2DCC
:100AA0000E948204A88204C0915098839923B9F3CC
:100AB000D7019C9191110EC08B2D0E947604F801F4
:100AC000EE0FFF1FE754FD4F8181D7018C9380818A
:100AD000888305C09150F7019083992369F321968B
:100AE000D6018C91811103C08B2D0E9482040F5F6F
:100AF0001F4FBFEFEB1AFB0A0330110559F6FF91A8
:100B0000EF91DF91CF91BF91AF919F918F917F91A5
:100B10006F915F914F913F912F911F910F91FF9096
:100B2000EF90DF90CF90BF90AF900F900FBE0F90DF
:100B30001F901895CF93DF93CDB7DEB72B970FB6E5
:100B4000F894DEBF0FBECDBF8091640084608093B7
:100B500064008091640080688093640080916400E8
:100B60008F7D8093640092E080E80FB6F8948093C4
:100B70006100909361000FBE8FE088B984EF8BB95C
:100B8000539A0E9455030E9462000E9471040E94C1
:100B9000920478948E010F5F1F4F9AE5C92E91E061
:100BA000D92E29E0E22E3AEF532E4FE4A42E41E055
:100BB000B42E54E4852E51E0952E69E3662E61E053
:100BC000762E442443948CE3382E0E94D20060E0B9
:100BD00070E080E096E00E94FE01672B682B692B95
:100BE00091F00E947203F82E60E070E080E094E0E3
:100BF0000E94E601672B682B692B71F01F92FF9210
:100C00007F926F921CC00E946C038111EACF809189
:100C10001701882331F348C060E070E080E092E083
:100C20000E94E601672B682B692B29F01F92FF9227
:100C30009F928F9204C01F92FF92BF92AF921F9219
:100C40008AE08F931F930F930E94AE070FB6F8941C
:100C5000DEBF0FBECDBF6AE0C8010E9470000E94D7
:100C600077039F938F93DF92CF921F92EF921F9300
:100C70000F930E94AE0769E0C8010E9470000E94B5
:100C800077030FB6F894DEBF0FBECDBF8C3A9D4000
:100C900020F467E083E691E003C066E08AE691E035
:100CA0000E9470005092170160E071E080E090E0D7
:100CB0000E94FE01672B682B692B29F068E080E712
:100CC00091E00E94700060E071E080E090E00E949E
:100CD0002602672B682B692B29F068E088E791E0F2
:100CE0000E947000FF24F3946F2DC8010E944E02F1
:100CF000181624F4682FC8010E947000F39489E04C
:100D0000F812F2CF68E070E080E090E00E94FE010F
:100D1000672B682B692BB9F01092180260E070E025
:100D200088E090E00E94E601672B682B692B31F088
:100D3000409218026AE080E891E003C06BE08AE824
:100D400091E00E94700068E070E080E090E00E9416
:100D50002602672B682B692B69F080911802882383
:100D600021F06AE085E991E003C06BE08FE991E052
:100D70000E94700080911E02882309F478C060E808
:100D800070E080E090E00E942602672B682B692BC0
:100D900029F066E08AEA91E00E94700060E470E069
:100DA00080E090E00E942602672B682B692B29F0D7
:100DB00066E080EB91E00E94700060E270E080E00D
:100DC00090E00E942602672B682B692B29F066E0D1
:100DD00086EB91E00E94700060E170E080E090E0BE
:100DE0000E942602672B682B692B29F066E08CEBAA
:100DF00091E00E94700060E870E080E090E00E9466
:100E0000FE01672B682B692B29F066E082EC91E0EC
:100E10000E94700060E470E080E090E00E94FE01BB
:100E2000672B682B692B29F066E088EC91E00E9423
:100E3000700060E270E080E090E00E94FE01672BAD
:100E4000682B692B29F066E08EEC91E00E9470001F
:100E500060E170E080E090E00E94FE01672B682B6B
:100E6000692B29F066E084ED91E00E94700060EF4C
:100E700070E080E090E00E94E601672B682B692B10
:100E8000F9F00E9477038D3A9D4008F05B9A0E942A
:100E90007703853E9C4030F08FB7F894309218016C
:100EA0008FBF0EC069E08AED91E00E9470008FEF65
:100EB0009FEB28EA815090402040E1F700C00000FD
:100EC0005B9983CE85E08093BD0284E68093BE0269
:100ED00078CEA29FB001B39FC001A39F700D811D6A
:100EE0001124911DB29F700D811D1124911D089533
:100EF000AA1BBB1B51E107C0AA1FBB1FA617B70740
:100F000010F0A61BB70B881F991F5A95A9F780955B
:100F10009095BC01CD010895A1E21A2EAA1BBB1B1E
:100F2000FD010DC0AA1FBB1FEE1FFF1FA217B307B5
:100F3000E407F50720F0A21BB30BE40BF50B661FCB
:100F4000771F881F991F1A9469F76095709580958F
:100F500090959B01AC01BD01CF010895AEE0B0E0DA
:100F6000E4EBF7E00C94C70D0D891E898F89988DED
:100F700026E02C831A83098397FF02C080E090E863
:100F800001979E838D83AE01455E5F4F698D7A8D9B
:100F9000CE0101960E94F7074D815E8157FD0AC080
:100FA0002F813885421753070CF49A01F801E20F9C
:100FB000F31F10822E96E4E00C94E30DAEE0B0E057
:100FC000E4EEF7E00C94C90D8DE08C838B899C894D
:100FD0009A838983AE01495E5F4F6D897E89CE0118
:100FE00001960E94490B2E96E2E00C94E50DACE0D0
:100FF000B0E0EDEFF7E00C94B90D7C016B018A01D4
:10100000FC0117821682838181FFBDC1CE0101964A
:101010004C01F7019381F60193FD859193FF819136
:101020006F01882309F4ABC1853239F493FD8591B2
:1010300093FF81916F01853229F4B70190E00E94FE
:10104000E90CE7CF512C312C20E02032A0F48B3278
:1010500069F030F4803259F0833269F420612CC099
:101060008D3239F0803339F4216026C0226024604B
:1010700023C0286021C027FD27C030ED380F3A304B
:1010800078F426FF06C0FAE05F9E300D1124532E3F
:1010900013C08AE0389E300D1124332E20620CC01C
:1010A0008E3221F426FD6BC1206406C08C3611F40B
:1010B000206802C0883641F4F60193FD859193FFC4
:1010C00081916F018111C1CF982F9F7D95549330ED
:1010D00028F40C5F1F4FFFE3F9830DC0833631F016
:1010E000833771F0833509F05BC022C0F80180813D
:1010F00089830E5F1F4F44244394512C540115C023
:101100003801F2E06F0E711CF801A080B18026FF5B
:1011100003C0652D70E002C06FEF7FEFC5012C8723
:101120000E94A00C2C0183012C852F77222E17C042
:101130003801F2E06F0E711CF801A080B18026FF2B
:1011400003C0652D70E002C06FEF7FEFC5012C87F3
:101150000E94950C2C012C852068222E830123FCF3
:101160001BC0832D90E048165906B0F4B70180E209
:1011700090E00E94E90C3A94F4CFF50127FC8591A8
:1011800027FE81915F01B70190E00E94E90C3110C8
:101190003A94F1E04F1A51084114510471F7E5C037
:1011A000843611F0893639F5F80127FF07C06081D0
:1011B0007181828193810C5F1F4F08C060817181B2
:1011C000882777FD8095982F0E5F1F4F2F76722E00
:1011D00097FF09C090958095709561957F4F8F4FCF
:1011E0009F4F2068722E2AE030E0A4010E943A0D41
:1011F000A82EA81844C0853729F42F7EB22E2AE0E5
:1012000030E025C0F22FF97FBF2E8F36C1F018F4E1
:10121000883579F0B4C0803719F0883721F0AFC035
:101220002F2F2061B22EB4FE0DC08B2D8460B82EFE
:1012300009C024FF0AC09F2F9660B92E06C028E07F
:1012400030E005C020E130E002C020E132E0F801EA
:10125000B7FE07C060817181828193810C5F1F4F4F
:1012600006C06081718180E090E00E5F1F4FA40195
:101270000E943A0DA82EA818FB2DFF777F2E76FE30
:101280000BC0372D3E7FA51450F474FE0AC072FCCB
:1012900008C0372D3E7E05C0BA2C372D03C0BA2CAE
:1012A00001C0B52C34FF0DC0FE01EA0DF11D808197
:1012B000803311F4397E09C032FF06C0B394B39471
:1012C00004C0832F867809F0B39433FD13C030FF38
:1012D00006C05A2CB31418F4530C5B18B32CB31477
:1012E00068F4B70180E290E03C870E94E90CB39477
:1012F0003C85F5CFB31410F43B1801C0312C34FFFA
:1013000012C0B70180E390E03C870E94E90C3C8565
:1013100032FF17C031FD03C088E790E002C088E5C6
:1013200090E0B7010CC0832F867859F031FF02C0DE
:101330008BE201C080E237FD8DE2B70190E00E94B0
:10134000E90CA51438F4B70180E390E00E94E90CA1
:101350005A94F7CFAA94F401EA0DF11D8081B701E8
:1013600090E00E94E90CA110F5CF332009F451CE92
:10137000B70180E290E00E94E90C3A94F6CFF701C1
:101380008681978102C08FEF9FEF2C96E2E10C944B
:10139000D50D20FD09C0FC0123FD05C022FF02C0C0
:1013A0007383628351834083089544FD10C046FDDA
:1013B00010C0DB01FC01AA0FBB1FEE1FFF1F109422
:1013C000D1F76A0F7B1F8E1F9F1F31E003C033E0F0
:1013D00001C034E0660F771F881F991F3150D1F785
:1013E000620F711D811D911D08950F931F93CF935F
:1013F000DF938C01C8010E94AB0CEC0197FD08C083
:101400000E94820C892BB1F7B801CE010E94210DF8
:10141000CE01DF91CF911F910F910895A1E0B0E02F
:10142000E4E1FAE00C94BF0D8C01C62E7A01298309
:101430000E94AB0CAC01552729814B32510521F09C
:101440004D32510569F42068CA94C11002C080E091
:1014500076C0C80129830E94AB0C298197FDF7CF84
:10146000322F3D7FD32E322F307349F5803339F53B
:10147000BB24BA94BC0C09F44EC0C80129830E9455
:10148000AB0C298197FD47C0382F3F7D383569F473
:101490008D2D8264D82ECA94CA94CC20E1F1C80163
:1014A0000E94AB0C97FF0BC036C026FF04C02D2D49
:1014B0002260D22E03C03D2D3261D32ECB2C812C45
:1014C000912C540120ED280F283080F0D4FE04C068
:1014D000B8010E94210D1CC02A3040F0D6FEF8CF82
:1014E0002F7D3FEE320F363098F727504D2DC50136
:1014F000B4010E94D5094B015C018D2D8260D82E6C
:10150000CA94CC2059F0C8010E94AB0C97FFDACFE7
:10151000D1FC04C09CCF812C912C5401D7FE08C073
:10152000B094A09490948094811C911CA11CB11C37
:101530002D2DB501A401C7010E94C90981E02196A2
:10154000ECE00C94DB0DA1E2B0E0E9EAFAE00C94E7
:10155000BD0D5C017A01CE0101966C0180E2F601BD
:1015600011928A95E9F7F501838040E050E0912CD3
:10157000712C70E0A1E0B0E0F90183FC859183FE5D
:1015800081918F01982F9F01811103C080E090E02D
:101590007CC08E3519F44115510549F1E72FF0E073
:1015A000E417F5073CF48D3559F18D3219F47720A5
:1015B00001F103C0711001C0982E892F8695869580
:1015C00086958601080F111D892F87703D0101C086
:1015D000660C8A95EAF7F80180818629808399153F
:1015E00059F0991510F49F5FE8CF9150E6CF71E064
:1015F00004C07724739401C0712C4F5F5F4FBCCF40
:10160000772019F08E8180628E83711103C0992436
:10161000939416C0F6019E012F5D3F4F8081809507
:101620008193E217F307D1F7F2CFE114F10429F027
:10163000F7018083C70101967C016150912CF9F07C
:10164000C50169A30E94AB0C69A197FD16C0282FA4
:10165000269526952695F601E20FF11D208130E0B2
:10166000AC014770552702C0359527954A95E2F79A
:1016700020FDDBCFB5010E94210D911087CFE11431
:10168000F10411F0F7011082C801A196EEE00C946C
:10169000D90D4F925F927F928F929F92AF92BF929D
:1016A000CF92DF92EF92FF920F931F93CF93DF932E
:1016B0001F92CDB7DEB76C012B015A01FC011782D6
:1016C0001682712CF601F380F201F3FC8591F3FE92
:1016D0008191382F2F01882309F4F3C090E03983DA
:1016E0000E94820C3981892B21F0C6010E94F509E4
:1016F000E9CF353241F4F201F3FC3591F3FE31913B
:101700002F01353269F4C60139830E94AB0C39814F
:1017100097FDD5C03817B1F2B6010E94210DD1C096
:101720003A3239F4F3FC3591F3FE31912F0151E057
:1017300001C050E0420110E020ED230F2A3090F468
:101740005260612F70E080E090E040E259830E9497
:10175000D509162FF401F3FC3591F3FE31914F01B9
:101760005981EACF052F232F240151FF03C0111106
:1017700002C0A7C01FEF383619F03C3659F011C02F
:10178000F401F3FC2591F3FE21912F01283649F451
:10179000052F08600460F201F3FC2591F3FE21910E
:1017A0002F01222309F48DC0622F70E089E790E0B9
:1017B00029830E948A0C2981892B09F482C000FDAB
:1017C00007C0F501E080F180C50102965C0102C00E
:1017D000E12CF12C2E3651F4F6014681578160E060
:1017E00070E0202FC7010E94C9096CCF233691F405
:1017F00001FF11E0C6010E94AB0C97FD60C0E1142F
:10180000F10429F0F7018083C70101967C01115092
:1018100089F751C02B3559F49201A701612FC601F8
:101820000E94A30A2C01009709F045C03FC0C601E1
:1018300029830E94F509298197FD41C02F3659F16E
:1018400028F4243631F1293649F127C0233769F0CD
:101850002537F9F022C0E114F10429F0F701808264
:10186000C70101967C01115071F0C6010E94AB0CBA
:101870004C0197FD08C00E94820C892B61F3B601D0
:10188000C4010E94210DE114F104A9F0F7011082B6
:1018900012C0006203C0006101C00064202FA701D4
:1018A000612FC6010E940E0A811105C0F6018381D5
:1018B000807329F406C000FD05CF739403CF772011
:1018C00019F0872D90E002C08FEF9FEF0F90DF910E
:1018D000CF911F910F91FF90EF90DF90CF90BF902D
:1018E000AF909F908F907F905F904F900895A8E168
:1018F000B0E042E050E00C949A0D0E94A80D272F12
:101900000C94A90D911132C1803219F08950855083
:10191000D0F70895FC010590061621F00020D9F7B4
:10192000C00108953197CF010895FC0105906150E1
:1019300070400110D8F7809590958E0F9F1F0895E5
:10194000FC016150704001900110D8F7809590958E
:101950008E0F9F1F0895CF93DF93EC012B8120FF03
:1019600033C026FF0AC02F7B2B838E819F81019677
:101970009F838E838A8190E029C022FF0FC0E88177
:10198000F9818081992787FD9095009719F420624D
:101990002B831AC03196F983E8830EC0EA85FB8554
:1019A000099597FF09C02B81019611F080E201C0D3
:1019B00080E1822B8B8308C02E813F812F5F3F4FB8
:1019C0003F832E83992702C08FEF9FEFDF91CF9146
:1019D00008950F931F93CF93DF93FB01238121FD84
:1019E00003C08FEF9FEF28C022FF16C046815781AA
:1019F000248135814217530744F4A081B1819D01B0
:101A00002F5F3F4F318320838C93268137812F5F57
:101A10003F4F3783268310C0EB01092F182F008416
:101A2000F185E02D0995892BE1F68E819F81019644
:101A30009F838E83812F902FDF91CF911F910F91E4
:101A40000895FB01238120FF12C026FD10C08F3FA7
:101A50003FEF930761F082832F7D206423832681EB
:101A600037812150310937832683992708958FEFD5
:101A70009FEF0895FA01AA27283051F1203181F112
:101A8000E8946F936E7F6E5F7F4F8F4F9F4FAF4F86
:101A9000B1E03ED0B4E03CD0670F781F891F9A1F99
:101AA000A11D680F791F8A1F911DA11D6A0F711D4D
:101AB000811D911DA11D20D009F468943F912AE059
:101AC000269F11243019305D3193DEF6CF01089541
:101AD000462F4770405D4193B3E00FD0C9F7F6CF72
:101AE000462F4F70405D4A3318F0495D31FD40523A
:101AF000419302D0A9F7EACFB4E0A69597958795D0
:101B000077956795BA95C9F70097610571050895AE
:101B10009B01AC010A2E069457954795379527955A
:101B2000BA95C9F7620F731F841F951FA01D0895F2
:101B3000DC01CB01FC01F999FECF06C0F2BDE1BD8D
:101B4000F89A319600B40D9241505040B8F708957C
:101B5000262FF999FECF1FBA92BD81BD20BD0FB6C9
:101B6000F894FA9AF99A0FBE019608959927882752
:101B700008952F923F924F925F926F927F928F9231
:101B80009F92AF92BF92CF92DF92EF92FF920F930C
:101B90001F93CF93DF93CDB7DEB7CA1BDB0B0FB616
:101BA000F894DEBF0FBECDBF09942A8839884888D3
:101BB0005F846E847D848C849B84AA84B984C88469
:101BC000DF80EE80FD800C811B81AA81B981CE0F60
:101BD000D11D0FB6F894DEBF0FBECDBFED01089545
:041BE000F894FFCFA7
:101BE400FFFFFFFFFFFFFFFFFFFF010203040506E6
:101BF400070801100E6401FA3C0100000000020015
:101C040000000001000200000000040000000002C7
:101C1400000400000000080000533A253033753AF0
:101C2400460D0A00533A253033753A520D0A0053D3
:101C34003A253033753A450D0A00563A2530347545
:101C44000D0A00424C4F570D0A00424F4B0D0A003B
:101C540046305F444E0D0A0046305F55500D0A0071
:101C6400434F4E465F444E0D0A004553544F505F58
:101C7400444E0D0A00434F4E465F55500D0A004531
:101C840053544F505F55500D0A002D4C310D0A002E
:101C94002D4C320D0A002D4C330D0A002D4C340D01
:101CA4000A002B4C310D0A002B4C320D0A002B4C30
:101CB400330D0A002B4C340D0A0042454D50545943
:101CC4000D0A004C4F4B0D0A004C4552520D0A00B0
:101CD4004F4E4F4B0D0A004F464F4B0D0A004F45D8
:101CE40052520D0A004625755F444E0D0A004625E2
:081CF400755F55500D0A000058
:00000001FF
