:100000000C9443000C9432020C9460000C94600039
:100010000C9460000C9460000C9460000C946000E0
:100020000C9460000C9460000C9460000C946000D0
:100030000C9460000C9460000C94C8050C94980516
:100040000C9460000C9460000C9405020C94F50074
:100050000C9460000C94E2040C9460000C9460001A
:100060000C9460000C9460006364696E6F7073752B
:1000700078585B004C256868753A20256868752FAC
:1000800025686875000011241FBECFEFD8E0DEBFE1
:10009000CDBF12E0A0E0B1E0E4EFFEE102C00590C8
:1000A0000D92AC33B107D9F722E0ACE3B2E001C066
:1000B0001D92AE3EB207E1F70E94A1060C94780FA4
:1000C0000C9400001092C00088E98093C10086E083
:1000D0008093C2001092C50081E08093C40008950F
:1000E0006150E0F48091C10085FD17C0E0914002AD
:1000F00081E08E0F80934002F0E0E157FD4F808158
:100100008093C60080914002803410F0109240022B
:100110008091C10080628093C1000895FC01A0918C
:100120003F0281E08A0F80933F02B0E08191A157A6
:10013000BD4F8C9380913F02803410F010923F02AB
:10014000CF01CECFFF920F931F93CF93DF93CDB705
:10015000DEB72A970FB6F894DEBF0FBECDBFF82EDC
:100160008091C10085FD3FC060E070E080E094E0D8
:100170000E944F028E010F5F1F4F672B682B692B68
:1001800019F11F92FF928CE391E09F938F931F923E
:100190008AE08F931F930F930E9483090FB6F89400
:1001A000DEBF0FBECDBF69E0C8010E94700081E0D4
:1001B0002A960FB6F894DEBF0FBECDBFDF91CF9168
:1001C0001F910F91FF90089560E070E080E092E051
:1001D0000E944F02672B682B692B29F31F92FF9215
:1001E00087E491E0D2CF80E0E3CF1F921FB61F9249
:1001F00011248F939F93EF93FF93909140028091EE
:100200003F029817D1F0E091400281E08E0F809379
:100210004002F0E0E157FD4F80818093C60080915D
:100220004002803410F010924002FF91EF919F91B4
:100230008F911F901FBE1F9018958091C1008F7DD8
:100240008093C100F2CFEF92FF920F931F93CF9351
:10025000DF93CDB7DEB7C454D1090FB6F894DEBF33
:100260000FBECDBF80914102882309F4B2C09FB771
:10027000F894809141028150809341029FBF9E017A
:100280002F5F3F4FE0E0C901A0913D02B0E0A15BCC
:10029000BD4F4C914D3089F0A0913D02B0E0A15B83
:1002A000BD4F4C914A3049F050913D0240913E0281
:1002B000541719F0EF3309F062C020913D022F5F0F
:1002C00020933D0220913D02203410F010923D0217
:1002D000E80FF92FF11D10828E010F5B1F4F98015F
:1002E0002F5F3F4F3F932F931F930F937E01B4E4F3
:1002F000EB0EF11CFF92EF9224E730E03F932F9337
:100300009F938F930E94B3090FB6F894DEBF0FBE80
:10031000CDBF039709F04DC0D701EC918FEF8E0F41
:10032000833008F042C02E2F2150330BF901EE0F1D
:10033000FF1FE20FF31FEB51FD4F9081D8018C910D
:10034000981304C0918111968C9198130E94850591
:10035000F70180818150990BD8012C91FC01EE0F9F
:10036000FF1FE80FF91FEB51FD4F208311968C9171
:10037000818365E087E092E00E9470002AC0A0912E
:100380003D0241E04A0F40933D02B0E0EF5FA15BC8
:10039000BD4F4C91D9014D939D0140913D02403498
:1003A00008F472CF10923D026FCF66E08DE092E0CC
:1003B000E3CF89818F3429F58A8166E08634B9F0EC
:1003C0008E34E1F484E192E00E94700081E0809339
:1003D0004202CC5BDF4F0FB6F894DEBF0FBECDBF3D
:1003E000DF91CF911F910F91FF90EF9008958BE1D6
:1003F00092E00E94700010924202EBCF82E292E003
:10040000BBCF65E08EE092E0B7CF1F921FB61F9280
:1004100011248F939F93EF93FF938091C6008A30AE
:1004200011F08D3029F4909141029F5F9093410229
:10043000E0913E0291E09E0F90933E02F0E0E15B7E
:10044000FD4F808380913E02803410F010923E0276
:10045000FF91EF919F918F911F901FBE1F90189554
:10046000E89A08958F938FB78F93EF93FF93E8984F
:100470008BB1806F8BB988B18F6088B9EAE7F0E003
:1004800080818068808380818064808381E0809324
:100490001B01FF91EF918F918FBF8F9118950F9353
:1004A0001F934FB7F8940091D3021091D40220917A
:1004B000D5023091D6024FBF60237123822393234C
:1004C0001F910F9108950F931F934FB7F8940091C8
:1004D000D7021091D8022091D9023091DA0260231C
:1004E0007123822393230091D7021091D802209187
:1004F000D9023091DA0206271727282739270093D7
:10050000D7021093D8022093D9023093DA024FBF5A
:100510001F910F9108950F931F934FB7F894009177
:10052000CF021091D0022091D1023091D2026023EB
:100530007123822393230091CF021091D002209146
:10054000D1023091D2020627172728273927009396
:10055000CF021093D0022093D1023093D2024FBF2A
:100560001F910F9108958F929F92AF92BF92DF9249
:10057000EF92FF920F931F93CF93DF93CDB7DEB728
:10058000A0970FB6F894DEBF0FBECDBFE82ED92ED0
:10059000F62E80E2ECE1F1E0DE01119601900D9281
:1005A0008A95E1F70FEF060F8FEF0830F0F510E0B6
:1005B000F801EE0FFF1FEE0FFF1F21E030E02C0FC0
:1005C0003D1FE20FF31F80809180A280B380C501A0
:1005D000B4010E946302672B682B692BC1F1065F8F
:1005E0001E4FF801F08260E070E088E090E00E9429
:1005F0004F02672B682B692B21F088E08F0DF801E3
:100600008083F80180811F928F9389E292E09F930B
:100610008F931F9289E08F93DF92EF920E9483095C
:100620000FB6F894DEBF0FBECDBFA0960FB6F894FC
:10063000DEBF0FBECDBFDF91CF911F910F91FF9015
:10064000EF90DF90BF90AF909F908F900895C5017D
:10065000B4010E948B02672B682B692B49F0F801CB
:10066000E65FFE4F80811F928F9382E392E0CFCFAF
:1006700080E0DBCF8091430280FD6EC084B1807F3B
:1006800084B987B1807F87B988B18F6088B980913C
:1006900043028695813009F444C0882309F43FC0A1
:1006A000823009F440C0833009F446C0809143028F
:1006B00081112CC08091D30229B12827207F9091ED
:1006C0000901392F322330953093090180910401BB
:1006D000482F4223342730930401892B80958223AD
:1006E0009091D30298279093D3029091D3022091B6
:1006F000D7029823922B9093D7029091D302209106
:10070000CF0290958923822B8093CF028091430260
:100710008F5F883008F054C0809343020895209A78
:10072000C5CF219AC3CF8091ED02882319F03A9A60
:10073000229ABCCF4298FCCF239A8091E70288236B
:1007400039F0389A8091EA02882321F03B9AAECFA3
:100750004098F8CF4398AACF869590E0FC01ED52DF
:10076000FD4F208146B12F70406F4227542F509586
:10077000DC01AB5FBE4F3C91632F652360956C93AA
:10078000DC01A050BF4F2C91522356275C93232BA2
:10079000242B20953081322730833081DC01A9520F
:1007A000BD4F4C913223342B3C933081FC01E153FB
:1007B000FD4F9081832F80952823292B2083A6CF5E
:1007C000109243020895CF93DF938091E302882330
:1007D000B9F18FB7F8942091DF023091E0028FBF1A
:1007E000C091DB02D091DC02BE0190E080E0EEE03F
:1007F000660F771F881F991FEA95D1F750E040E0F8
:100800000E94520930931601209315012936304178
:10081000A8F0C538E3E0DE0758F0BE016150710969
:100820007093DC026093DB0284E090E00E941E0F74
:1008300088E690E190931601809315011092E302EF
:100840008091E402882331F0459907C01092E402B8
:1008500010924402DF91CF9108958FB7F894C09120
:10086000DF02D091E0028FBF8091DD029091DE0225
:10087000C817D90748F4D093DE02C093DD02BE0149
:1008800082E090E00E941E0F8091E1029091E202CE
:100890008C179D0748F4D093E202C093E102BE0199
:1008A00080E090E00E941E0F8091E1029091E202B0
:1008B0002091DD023091DE02AC01421B530B652F0B
:1008C0007727FE01E21BF30B9F01E617F707A0F065
:1008D000861B970B8E179F0778F0809113019091DC
:1008E0001401FB01E20FF31FE817F90728F0860F48
:1008F000971F82179307D8F43093140120931301A4
:10090000AFE7B0E00E9474099A0150E040E00E9415
:1009100052092F3708F02EE78EE7821B9091440290
:10092000981729F091E09093450280934402109229
:10093000E40290CF87E480937C00EAE7F0E08EE861
:10094000808310927B008081806480833D9A84E064
:1009500090E00E94180F9093DC028093DB0282E00B
:1009600090E00E94180F9093DE028093DD0280E0F9
:1009700090E00E94180F9093E2028093E1020895A4
:100980008091450208951092450208958091440295
:1009900008952FB7F89480911501909116012FBFFB
:1009A0000895BC0184E090E00C941E0F60E070E4B8
:1009B00082E090E00E941E0F60E070E480E090E032
:1009C0000C941E0F1F921FB61F9211242F933F935A
:1009D0004F935F938F939F939091460281E0890F8D
:1009E000209112012223B1F12091780030917900F9
:1009F0004091470250914802240F351F309348021E
:100A000020934702809346028032A8F03093E002A0
:100A10002093DF0281E08093E4021092460210925C
:100A20004802109247021092120180917C00807F50
:100A30008E6080937C0080917A00806480937A003D
:100A40009F918F915F914F913F912F911F901FBE6A
:100A50001F901895903170F0409178005091790076
:100A60002091470230914802240F351F30934802ED
:100A700020934702809346028032E8F28091470239
:100A8000909148029093E0028093DF0281E080938E
:100A9000E30210924602109248021092470280939D
:100AA000120180917C00807F8760C3CF84B1806316
:100AB00084B93C9A44980895813089F0882319F0CC
:100AC000823011F008952C9890E0FC01EE0FFF1F8A
:100AD000E80FF91FEB51FD4F81E0828308952D98B7
:100AE000F3CF813081F0882319F0823011F008951E
:100AF0002C9A90E0FC01EE0FFF1FE80FF91FEB515D
:100B0000FD4F128208952D9AF4CF81E08093180151
:100B1000089582E084BD84E287BD87B56CE00E94C1
:100B2000460988BD85E085BD86E080936E00089506
:100B30001F920F920FB60F9211242F933F934F9352
:100B40005F936F937F938F939F93AF93BF93EF9335
:100B5000FF9398B587B5981708F018BC87B528B5E6
:100B60006CE00E944609820F88BD0E943A03FF9103
:100B7000EF91BF91AF919F918F917F916F915F9115
:100B80004F913F912F910F900FBE0F901F9018958E
:100B90001F920F920FB60F921124AF92BF92CF9275
:100BA000DF92EF92FF920F931F932F933F934F93F8
:100BB0005F936F937F938F939F93AF93BF93CF93E5
:100BC000DF93EF93FF93809117018150809317017A
:100BD000811143C080911B01815080931B018111C1
:100BE00030C00E94710581E00E94710582E00E9480
:100BF000710544988BB18F708BB988B1807F88B9AB
:100C00005B9810924202459880917A008F7780938A
:100C10007A008091C100877F8093C1000E943002DA
:100C200083B7817F846083BF83B7816083BF85B7CB
:100C3000806685BF8F7D85BF7894889583B78E7FCA
:100C400083BF80911A01882329F080911A01815075
:100C500080931A0184E680931701809119018823FB
:100C600029F0809119018150809319018091180118
:100C7000882371F010924C021092490210924D029A
:100C800010924A0210924E0210924B0210921801DA
:100C90009CE4E92E92E0F92E09E412E0D0E0C0E0F5
:100CA000AA24A394BC2ED7018D917D01FD0131971B
:100CB0006F0181111CC08B2D0E947105D601AC9271
:100CC000D8018C91811118C0FE01EE0FFF1FEC0FAF
:100CD000FD1FEB51FD4F8181D8018C938081F6017E
:100CE0008083882369F08B2D0E945C0509C08150A8
:100CF0008083882301F3E4CF81508C93882321F3F0
:100D000021960F5F1F4FC330D10561F6FF91EF9120
:100D1000DF91CF91BF91AF919F918F917F916F9113
:100D20005F914F913F912F911F910F91FF90EF9005
:100D3000DF90CF90BF90AF900F900FBE0F901F909D
:100D40001895CDB7DEB72A970FB6F894DEBF0FBE61
:100D5000CDBF8091640084608093640080916400C2
:100D6000806880936400809164008F7D809364002C
:100D700080E892E00FB6F894809361009093610050
:100D80000FBE8FE088B984EF8BB9539A0E949A0402
:100D90000E9462000E9456050E9489057894809105
:100DA000DB029091DC02019609F4EDC18E010F5F28
:100DB0001F4F5AE6E52E51E0F52E62E5C62E61E0A2
:100DC000D62E7AE0672EE7E4AE2EE1E0BE2EFCE3FD
:100DD0008F2EF1E09F2EAAEF5A2E4424439482E0F6
:100DE000382E0E9423010E94E30360E070E080E05F
:100DF00096E00E946302672B682B692B21F4809197
:100E00001901811149C00E94C604782E60E070E08B
:100E100080E094E00E944F02672B682B692B09F455
:100E2000F6C11F927F929F928F921F926F921F9393
:100E30000F930E9483090FB6F894DEBF0FBECDBF9B
:100E400069E0C8010E9470000E94C90488349D4076
:100E500008F0F1C166E08DE591E00E9470000E940B
:100E6000C9049F938F93FF92EF921F9289E08F9313
:100E70001F930F930E94830968E0C8010E947000CD
:100E800065E183E791E00E947000509219010FB66E
:100E9000F894DEBF0FBECDBF0E94C004882339F096
:100EA0000E94C6040E94A20081110E94C30460E057
:100EB00071E080E090E00E946302672B682B692B51
:100EC00029F067E089E891E00E94700060E071E03D
:100ED00080E090E00E948B02672B682B692B29F041
:100EE00067E081E991E00E94700077247394672D98
:100EF000C8010E94B302181624F4682FC8010E948A
:100F00007000739499E07912F2CF68E070E080E0AD
:100F100090E00E946302672B682B692BA1F010926E
:100F20003C0260E070E088E090E00E944F02672B96
:100F3000682B692B09F483C140923C0269E089E97E
:100F400091E00E94700068E070E080E090E00E9414
:100F50008B02672B682B692B51F080913C02882310
:100F600009F471C169E08EEA91E00E9470008091FD
:100F70004202882309F4C8C060E870E080E090E095
:100F80000E948B02672B682B692B79F060E870E078
:100F900080E090E00E944F02672B682B692B29F4B8
:100FA00065E083EC91E00E94700060E470E080E016
:100FB00090E00E948B02672B682B692B79F060E42C
:100FC00070E080E090E00E944F02672B682B692B55
:100FD00029F465E089EC91E00E94700060E270E025
:100FE00080E090E00E948B02672B682B692B79F0E0
:100FF00060E270E080E090E00E944F02672B682B77
:10100000692B29F465E08FEC91E00E94700060E1AB
:1010100070E080E090E00E948B02672B682B692BC8
:1010200079F060E170E080E090E00E944F02672B71
:10103000682B692B29F465E085ED91E00E94700032
:1010400060E870E080E090E00E946302672B682B0C
:10105000692B79F060E870E080E090E00E944F0238
:10106000672B682B692B29F065E08BED91E00E94DE
:10107000700060E470E080E090E00E946302672B03
:10108000682B692B79F060E470E080E090E00E94CA
:101090004F02672B682B692B29F065E081EE91E008
:1010A0000E94700060E270E080E090E00E946302C5
:1010B000672B682B692B79F060E270E080E090E0AC
:1010C0000E944F02672B682B692B29F065E087EEA1
:1010D00091E00E94700060E170E080E090E00E948A
:1010E0006302672B682B692B79F060E170E080E088
:1010F00090E00E944F02672B682B692B29F065E076
:101100008DEE91E00E94700060EF70E080E090E072
:101110000E944F02672B682B692BB9F00E94C9040B
:1011200089349D4038F05B9A459A8091C10088606F
:101130008093C1000E94C904853E9C4008F487C08A
:1011400088E080931B0130921A010E94C904853EF9
:101150009C4060F060E070E088E090E00E944F0208
:10116000672B682B692B09F485C0449A80911B0179
:10117000882309F481C05B9934CE81E08093EB022F
:101180005092EC022ACE82E38093EB0284E68093B5
:10119000EC028093E6028093E9020E9485055B9A47
:1011A00080EB94E00E94D10480EB94E09093DC0209
:1011B0008093DB020E94D60412E048E0F42E02E3A2
:1011C000F0921B016FEF7FE08BE096E00E946302DC
:1011D000672B682B692BA1F3812F90E0FC01EE0FA8
:1011E000FF1FE80FF91FEB51FD4F10821F5F1330F7
:1011F00009F410E0812F90E0FC01EE0FFF1FE80FD3
:10120000F91FEB51FD4F00830E948505D9CF60E0A7
:1012100070E080E092E00E944F02672B682B692B00
:1012200029F01F927F92BF92AF92FFCD1F927F92C3
:10123000DF92CF92FACD65E084E691E00ECE6AE0CF
:1012400083EA91E07ECE6AE088EB91E08ECE8091D9
:101250001A0181117ACF68E083EF91E00E9470005B
:101260008FEF9FE726E1815090402040E1F700C0DA
:1012700000006BCF44987ACF6AE08CEF91E00E9437
:10128000700080911B018823E1F375CF991B79E0F1
:1012900004C0991F961708F0961B881F7A95C9F706
:1012A00080950895A1E21A2EAA1BBB1BFD010DC05B
:1012B000AA1FBB1FEE1FFF1FA217B307E407F50706
:1012C00020F0A21BB30BE40BF50B661F771F881FE2
:1012D000991F1A9469F760957095809590959B0178
:1012E000AC01BD01CF010895A29FB001B39FC00121
:1012F000A39F700D811D1124911DB29F700D811D42
:101300001124911D0895AEE0B0E0E9E8F9E00C94F5
:101310004F0F0D891E898F89988D26E02C831A83A3
:10132000098397FF02C080E090E801979E838D8338
:10133000AE01455E5F4F698D7A8DCE0101960E94A8
:10134000CC094D815E8157FD0AC02F813885421737
:1013500053070CF49A01020F131FF80110822E9606
:10136000E4E00C946B0FAEE0B0E0E9EBF9E00C9434
:10137000510F8DE08C838B899C899A838983AE0180
:10138000495E5F4F6D897E89CE0101960E94090DED
:101390002E96E2E00C946D0FABE0B0E0E2EDF9E0E8
:1013A0000C94410F7C013B018A01FC0117821682DB
:1013B000838181FFB9C19AE0292ECE0101965C019B
:1013C000F7019381F30193FD859193FF81913F0193
:1013D000882309F446C1853239F493FD859193FF42
:1013E00081913F01853229F4B70190E00E946F0E90
:1013F000E7CF912C412C512CFFE1F51538F08B32C1
:1014000009F188F4803201F1833221F157FC3AC0AE
:1014100020ED280F2A3040F556FE1FC0929C200D6B
:101420001124922E06C08D3291F0803379F76894A2
:1014300050F8F30193FD859193FF81913F01811154
:10144000DBCF20C0689451F8689452F8F2CF6894CA
:1014500053F8EFCF689454F8ECCF429C200D112440
:10146000422E689455F8E5CF8E3229F456FCF9C027
:10147000689456F8DECF8C3619F4689457F8D9CFB3
:101480008836B9F2982F9F7D95549330C0F08336FB
:10149000A1F18337C1F1833509F05BC0F801C19038
:1014A000D1908F01692D70E056FC02C06FEF7FEF85
:1014B000C6010E941F0E4C01689457F80AC00C5FC9
:1014C0001F4F2FE3298388248394912C6501E8948E
:1014D00057F853FC04C04814190409F018F5342CCB
:1014E0008114910431F5332009F46ACFB70180E209
:1014F00090E00E946F0E3A94F6CFF80180818983C4
:101500000E5F1F4FE0CFF801C190D1908F01692D80
:1015100070E056FC02C06FEF7FEFC6010E942A0EFA
:101520004C01D5CFB70180E290E00E946F0E4A9443
:10153000D2CFF60157FC859157FE81916F01B7011B
:1015400090E00E946F0E31103A94F1E08F1A9108EA
:10155000C7CF843619F0893609F074C0F80157FEF8
:101560006AC061917191819191918F01252D2F76A2
:10157000D22E97FF09C090958095709561957F4F09
:101580008F4F9F4F6894D7F82AE030E0A5010E9462
:10159000B70EC82ECA188C2C5D2CD6FE0CC0E89451
:1015A00050F8C91440F4D4FE05C0D2FC03C0FD2D90
:1015B000FE7E5F2E892C54FE8FC0FE01EC0DF11DC6
:1015C0008081803309F081C0252D297E522E852D02
:1015D0008870382E53FC8FC050FE89C09C2C841418
:1015E00018F44C0C942C981854FE8BC0B70180E36F
:1015F00090E00E946F0E52FE09C088E790E051FE15
:1016000002C088E590E0B7010E946F0EC91408F48B
:1016100084C0CA94D12C9FEFC91AD90ACA0CDB1C0A
:10162000F60182916F01B70190E00E946F0EAC1439
:10163000BD04B1F758CF61917191072E000C880B52
:10164000990B93CFD52CE894D4F82AE030E0853775
:1016500039F1952D997FD92E8F3601F148F48835CF
:10166000A9F0F701868197812B96E2E10C945D0F3A
:10167000803749F08837A9F7D4FE02C06894D2F8C1
:1016800020E130E00DC06894D4F8F6CF54FE03C0DA
:10169000E92FE660DE2E20E132E002C028E030E0F3
:1016A000F801D7FE0DC061917191819191918F01E7
:1016B000A5010E94B70EC82ECA18E894D7F86BCFC0
:1016C0006191719190E080E0F2CF52FC02C083946E
:1016D0007ECF839483947BCF852D867809F477CF52
:1016E000F6CFB70180E290E00E946F0E83948414DD
:1016F000C0F3312C79CF342C3818841408F474CF0B
:10170000F8CF852D867809F481CF8BE251FE80E2F7
:1017100057FC8DE2B70190E077CFB70180E390E00E
:101720000E946F0E9A9472CF8FEF9FEF9DCF20FD96
:1017300009C0FC0123FD05C022FF02C07383628340
:1017400051834083089533E044FD10C034E046FDEA
:101750000DC0DB01FC01AA0FBB1FEE1FFF1F109481
:10176000D1F76A0F7B1F8E1F9F1F31E0660F771F17
:10177000881F991F3150D1F7620F711D811D911D76
:1017800008950F931F93CF93DF938C01C8010E949C
:10179000350EEC0197FD08C00E940B0E892BB1F7A6
:1017A000B801CE010E949F0ECE01DF91CF911F9113
:1017B0000F9108958F929F92AF92BF92EF92FF92F6
:1017C0000F931F93CF93DF938C01D62F7A01B22E04
:1017D0000E94350E9C0133272B32310529F02D3222
:1017E0003105A9F46894B7F8D15061F480E0DF9135
:1017F000CF911F910F91FF90EF90BF90AF909F906E
:101800008F900895C8010E94350E97FDEFCFCB2D24
:10181000CD7F2B2D2073F9F48033E9F4AA24AA9408
:10182000AD0E89F0C8010E94350E97FD0CC0282F1F
:101830002F7D283561F4C264D25029F0C8010E947E
:10184000350E97FF08C0812C912C54011BC0B6FEA9
:101850002BC0C260DA2D812C912C540120ED280F71
:10186000283028F1C4FD09C02A3008F1C6FF05C0A0
:101870002F7D3FEE320F3630C8F0B8010E949F0E28
:10188000C1FFB4CFC7FF08C0B094A09490948094D7
:10189000811C911CA11CB11C2C2FB501A401C701F6
:1018A0000E94970B81E0A3CFC261D4CF27504C2F69
:1018B000C501B4010E94A30B4B015C01C260D15071
:1018C00009F3C8010E94350E97FFC8CFDBCFA0E215
:1018D000B0E0EDE6FCE00C94470F5C01962E7A0137
:1018E000CE0101966C0180E2F60111928A95E9F72A
:1018F000F5018380890150E040E0B0E020E0A0E005
:1019000061E070E0F80183FC959183FE9191892F4D
:101910008F01911107C010E000E0C801A096ECE033
:101920000C94630F9E3519F44115510531F1A4173C
:101930001506ECF49D3549F19D32C9F4222309F1D5
:10194000E82FE695E695E695EC0DFD2DF11D982F17
:1019500097709B0101C0220F9A95EAF79081292B7D
:1019600020838B1781F08B1730F48F5FE9CF211123
:10197000E7CFB92FE5CF8150E3CFA1E04F5F5F4FB5
:10198000C1CF21E0FBCF20E0F9CF222319F08E81D7
:1019900080628E83AA2361F0F6019E012F5D3F4F86
:1019A000DF018D9180958083FD01A217B307C1F7F8
:1019B00088248394C5010E94350E97FD16C0E82F38
:1019C000E695E695E695EC0DFD2DF11D208130E0C4
:1019D000AC014770552702C0359527954A95E2F727
:1019E00020FD06C0B5010E949F0E882059F093CFBC
:1019F000E114F10419F0F70181937F019A94812C8D
:101A00009110D8CFE114F10409F487CFF7011082C7
:101A100084CFB0E0A0E0EFE0FDE00C94450F5C0166
:101A2000EB01742E652EFC0117821682C12CF50184
:101A3000F380FE01F3FC8591F3FE8191182FEF01F5
:101A40008823E9F090E00E940B0E892B21F0C5015C
:101A50000E94C10BECCF153241F4FE01F3FC15914D
:101A6000F3FE1191EF01153269F4C5010E94350EA4
:101A700097FD8CC01817D9F2B5010E949F0E8C2DCE
:101A800090E088C000E01A3231F4F3FC1591F3FEC7
:101A90001191EF0101E0D12C20ED210F2A3048F106
:101AA00001FF37C0DD2059F31836B1F11C3609F4B7
:101AB0003DC0112321F3612F70E088E690E00E9481
:101AC000140E892BE1F2F12CE12C00FD06C0E72D6C
:101AD000F62DE190F1907E2E6F2E1E3679F5F501F0
:101AE0004681578170E060E0202FC7010E94970B6C
:101AF0009ECF02606D2D70E090E080E040E20E9499
:101B0000A30BD62EFE01F3FC1591F3FE1191EF010C
:101B1000C3CFDD24DA94C8CFFE01F3FC1591F3FEA8
:101B20001191EF01183609F0C4CF08600460FE017E
:101B3000F3FC1591F3FE1191EF01BBCF1336B1F415
:101B400001FD02C0DD24D394C5010E94350E97FD2E
:101B50001DC0E114F10419F0F70181937F01DA94BB
:101B6000D110F2CF00FD63CFC39461CF1B35B9F420
:101B70009E01A7016D2DC5010E94670CEC01892B08
:101B800089F7F5018381807309F479CF8FEF9FEF97
:101B9000C11075CFCDB7DEB7EEE00C94610FC50173
:101BA0000E94C10B97FDF2CF1F3699F130F4143625
:101BB00041F0193639F0006405C01337A9F0153724
:101BC000D1F70062202FA7016D2DC5010E94DA0B0D
:101BD0008111C8CFD6CFE114F10419F0F701819239
:101BE0007F01DA94DD2071F0C5010E94350E4C01B1
:101BF00097FD08C00E940B0E892B69F3B501C40143
:101C00000E949F0EE114F10409F4ACCFF701108299
:101C1000A9CF0061D7CF91110C94150F803219F024
:101C200089508550C8F70895FC010590061621F0EB
:101C30000020D9F7C00108953197CF010895FC0124
:101C40000590615070400110D8F7809590958E0FE7
:101C50009F1F0895FC016150704001900110D8F75A
:101C6000809590958E0F9F1F0895CF93DF93EC0181
:101C70002B8120FF2FC026FF0CC02F7B2B838E8152
:101C80009F8101969F838E838A8190E0DF91CF911F
:101C9000089522FF14C0E881F9818081082E000C8C
:101CA000990B20620097A9F03196F983E8832E8181
:101CB0003F812F5F3F4F3F832E839927E7CFEA85F0
:101CC000FB85099597FFF3CF2B81019631F080E2D8
:101CD000282B2B838FEF9FEFD9CF80E1F9CF0F9384
:101CE0001F93CF93DF93182F092FEB018B8181FD79
:101CF00009C01FEF0FEF812F902FDF91CF911F9120
:101D00000F91089582FF14C02E813F818C819D81A7
:101D1000281739073CF4E881F981CF0101969983AE
:101D2000888310838E819F8101969F838E83E3CF6A
:101D3000E885F985812F0995892BA1F3DACFFB017D
:101D4000238120FF11C026FD0FC08F3F980771F03F
:101D500082832F7D2064238326813781215031099E
:101D600037832683992708958FEF9FEF0895FA010F
:101D7000AA27283051F1203181F1E8946F936E7FCA
:101D80006E5F7F4F8F4F9F4FAF4FB1E03ED0B4E0BB
:101D90003CD0670F781F891F9A1FA11D680F791FFC
:101DA0008A1F911DA11D6A0F711D811D911DA11D0D
:101DB00020D009F468943F912AE0269F112430191D
:101DC000305D3193DEF6CF010895462F4770405DB8
:101DD0004193B3E00FD0C9F7F6CF462F4F70405D67
:101DE0004A3318F0495D31FD4052419302D0A9F7C2
:101DF000EACFB4E0A6959795879577956795BA95BC
:101E0000C9F700976105710508959B01AC010A2E81
:101E100006945795479537952795BA95C9F7620F58
:101E2000731F841F951FA01D089599278827089563
:101E3000A8E1B0E042E050E00C94250F0E94330F7F
:101E4000272F0C94340FDC01CB01FC01F999FECF54
:101E500006C0F2BDE1BDF89A319600B40D92415032
:101E60005040B8F70895262FF999FECF1FBA92BDBA
:101E700081BD20BD0FB6F894FA9AF99A0FBE01966B
:101E800008952F923F924F925F926F927F928F921E
:101E90009F92AF92BF92CF92DF92EF92FF920F93F9
:101EA0001F93CF93DF93CDB7DEB7CA1BDB0B0FB603
:101EB000F894DEBF0FBECDBF09942A8839884888C0
:101EC0005F846E847D848C849B84AA84B984C88456
:101ED000DF80EE80FD800C811B81AA81B981CE0F4D
:101EE000D11D0FB6F894DEBF0FBECDBFED01089532
:041EF000F894FFCF94
:101EF400FFFFFFFFFFFFFFFFFFFF010203040506D3
:101F04000708010040100E6401FA020801000000F5
:101F140000020000000001000200000000040000B4
:101F2400000002000400000000080000533A2530BD
:101F340033753A460D0A00533A253033753A520D3B
:101F44000A00533A253033753A450D0A00424C4F86
:101F5400570D0A00424F4B0D0A00563A253034758E
:101F64000D0A0052323032312D30312D30362D638E
:101F74006665313365360D0A0046305F444E0D0AFE
:101F84000046305F55500D0A00434F4E465F444EA5
:101F94000D0A004553544F505F444E0D0A00434F01
:101FA4004E465F55500D0A004553544F505F5550EF
:101FB4000D0A002D4C310D0A002D4C320D0A002D56
:101FC4004C330D0A002D4C340D0A002B4C310D0AF4
:101FD400002B4C320D0A002B4C330D0A002B4C34D1
:101FE4000D0A0042454D5054590D0A005057525F96
:101FF400444F574E0D0A004C4F4B0D0A004C4552AE
:10200400520D0A004F4E4F4B0D0A004F464F4B0DD9
:102014000A004F4552520D0A004625755F444E0D85
:0C2024000A004625755F55500D0A0000AB
:00000001FF
