:100000000C9443000C94B2010C9460000C946000BA
:100010000C9460000C9460000C9460000C946000E0
:100020000C9460000C9460000C9460000C946000D0
:100030000C9460000C9460000C94C8040C94990417
:100040000C9460000C9460000C9483010C94A2004A
:100050000C9460000C9463030C9460000C9460009A
:100060000C9460000C9460004C256868753A20255B
:100070006868752F25686875006364696E6F7073B2
:100080007578585B000011241FBECFEFD8E0DEBFAB
:10009000CDBF11E0A0E0B1E0ECE2FBE102C00590D1
:1000A0000D92AA3EB107D9F712E0AAEEB1E001C065
:1000B0001D92A239B107E1F70E948C050C94940DB2
:1000C0000C9400001092C00088E98093C10086E083
:1000D0008093C2001092C50081E08093C40008950F
:1000E0006150A0F0E091ED0121E02E0F2093ED0191
:1000F000F0E0DC012D91CD01E25CFD4F20832091E9
:10010000ED01203468F31092ED01EACF8091C10037
:1001100085FD17C0E091EE0181E08E0F8093EE0126
:10012000F0E0E25CFD4F80818093C6008091EE019B
:10013000803410F01092EE018091C10080628093B3
:10014000C10008951F920F920FB60F9211248F9342
:100150009F93EF93FF939091EE018091ED0198179B
:1001600099F0E091EE0181E08E0F8093EE01F0E0D6
:10017000E25CFD4F80818093C6008091EE01803467
:1001800040F01092EE0105C08091C1008F7D8093F8
:10019000C100FF91EF919F918F910F900FBE0F9033
:1001A0001F901895EF92FF920F931F93CF93DF93B9
:1001B000CDB7DEB7C354D1090FB6F894DEBF0FBE7A
:1001C000CDBF8091EF01882309F48FC09FB7F894C9
:1001D0008091EF0181508093EF019FBFDE01119666
:1001E00020E0CD01E091EB01F0E0E250FE4F3081E4
:1001F0003D3019F1E091EB01F0E0E250FE4F30812B
:100200003A30D9F04091EB013091EC014317A9F05D
:100210002F3399F02F5FE091EB0131E03E0F3093E7
:10022000EB01F0E0E250FE4F30813D933091EB0165
:100230003034C0F21092EB01D5CF3091EB013F5F2B
:100240003093EB013091EB01303410F01092EB0160
:10025000FC01E20FF11D10828E010F5B1F4F980110
:100260002F5F3F4F3F932F931F930F937E0123E404
:10027000E20EF11CFF92EF9228E630E03F932F93BD
:100280009F938F930E9482070FB6F894DEBF0FBE34
:10029000CDBF0397D9F4D701EC918FEF8E0F833048
:1002A00088F4F0E0D8018C91EE0FFF1FE657FD4F68
:1002B000808311968C9181830E94870466E084EC90
:1002C00091E011C067E08AEC91E00DC089818B3428
:1002D00039F48CE38093180166E081ED91E003C06E
:1002E00066E08BEC91E00E947000CD5BDF4F0FB6B3
:1002F000F894DEBF0FBECDBFDF91CF911F910F915C
:10030000FF90EF9008951F920F920FB60F92112455
:100310008F939F93EF93FF938091C6008A3011F0E3
:100320008D3029F49091EF019F5F9093EF01E09160
:10033000EC0191E09E0F9093EC01F0E0E250FE4F53
:1003400080838091EC01803410F01092EC01FF91D9
:10035000EF919F918F910F900FBE0F901F90189566
:10036000E89A08951F920F920FB60F9211248F935F
:10037000E8988BB1806F8BB988B18F6088B95B9A30
:10038000459A8CE3809318018F910F900FBE0F90C8
:100390001F901895CF92DF92EF92FF922FB7F894AB
:1003A000C0908202D0908302E0908402F090850297
:1003B0002FBF6C217D218E219F21FF90EF90DF9038
:1003C000CF9008950F931F934FB7F8940091860232
:1003D0001091870220918802309189026023712355
:1003E0008223932300918602109187022091880234
:1003F000309189020627172728273927009386027C
:100400001093870220938802309389024FBF1F9177
:100410000F9108950F931F934FB7F89400917E02A8
:1004200010917F022091800230918102602371231C
:100430008223932300917E0210917F0220918002FB
:1004400030918102062717272827392700937E023B
:1004500010937F0220938002309381024FBF1F913F
:100460000F9108958F929F92AF92BF92CF92DF9299
:10047000FF920F931F93CF93DF93CDB7DEB7A09773
:100480000FB6F894DEBF0FBECDBF20E2E9E1F1E088
:10049000DE01119601900D922A95E1F72FEF260FBC
:1004A000283008F054C0162FF92E082FC22ED12C58
:1004B000A1E0B0E0AC0FBD1F34E0239FA00DB11D43
:1004C00011248D909D90AD90BC90C501B4010E9407
:1004D000E201672B682B692BD1F0C601865F9E4F26
:1004E0006C01FC01108360E070E088E090E00E9405
:1004F000CA01672B682B692B19F0185FF60110836E
:10050000F60180811F928F9387ED91E010C0C501A5
:10051000B4010E940A02672B682B692BD1F0F60107
:10052000E65FFE4F80811F928F9380EE91E09F9354
:100530008F931F9289E08F93FF920F930E9452072F
:100540008F5F0FB6F894DEBF0FBECDBF03C08FEF35
:1005500001C080E0A0960FB6F894DEBF0FBECDBFFD
:10056000DF91CF911F910F91FF90DF90CF90BF90BF
:10057000AF909F908F9008958091F00180FD3EC0D4
:1005800084B1807F84B934B12091F001269581E057
:1005900090E0022E01C0880F0A94EAF7832B84B9F9
:1005A0008091F00181115AC08091820229B12827DF
:1005B000207F809109018223809580930901909189
:1005C0000401922398279093040182238923909118
:1005D0008202982790938202909182022091860253
:1005E0009823922B909386022091820290917E0212
:1005F00020958223892B80937E0230C0869590E0DF
:10060000FC01EE57FD4F208146B12F70406F4095A1
:100610004227DC01AB5FBE4F2C91242320952C9305
:10062000DC01A050BF4F3C91342332273C9324235C
:1006300023233081322730833081DC01AA57BD4F1C
:100640004C913223342B3C933081FC01E258FD4F16
:100650008081932F90952923282B20838091F0016E
:100660008F5F883018F48093F00108951092F001A4
:10067000089587E480937C00EAE7F0E08EE88083C9
:1006800010927B008081806480833D9A459A80E04F
:1006900090E00E941B0C90938B0280938A02089535
:1006A0008091F40181111092F40108951092F401E7
:1006B0008091F30108952FB7F894809113019091E0
:1006C00014012FBF08951F920F920FB60F9211249D
:1006D000CF92DF92EF92FF922F933F934F935F93CE
:1006E0006F937F938F939F93AF93BF93EF93FF93FA
:1006F000809112019091F501882309F452C0409134
:100700007800509179002091F6013091F701240F83
:10071000351F3093F7012093F6019F5F903118F455
:100720009093F50139C01092F501C90161E870E0BC
:100730000E941C078EE7861B482F50E02091F30192
:1007400030E02F5F3F4F24173507CCF02091F301A5
:1007500030E04F5F5F4F421753078CF09091F301E9
:10076000891791F08E3729F49091F3019D3738F471
:100770000BC0811109C09091F301923028F491E0EF
:100780009093F4018093F3011092120180917C0008
:10079000807F8E6080937C001092F7011092F601AA
:1007A0007FC09E3070F020917800309179004091A8
:1007B000F6015091F701240F351F3093F701209374
:1007C000F6019F5F9093F501903108F469C0609144
:1007D0008A0270918B02CB01A0E0B0E0BC01CD0198
:1007E0003BE0660F771F881F991F3A95D1F720913C
:1007F000F6013091F70140E050E00E9430076901B6
:100800007A013093140120931301293680E13807CF
:1008100018F120918A0230918B022F5F3F4FA4E3A1
:10082000B8E00E940D07D694C794960140E050E0CE
:100830000E94300730938B0220938A0260918A02D3
:1008400070918B0280E090E00E94210C88E690E19C
:10085000909314018093130120911301309114019E
:100860002D3A9DE0390728F01092F1011092F20123
:1008700008C081E08093F201243E3C4010F4809354
:10088000F1011092F7011092F6011092F50181E04A
:100890008093120180917C00807F876080937C0030
:1008A00080917A00806480937A00FF91EF91BF91EC
:1008B000AF919F918F917F916F915F914F913F91F8
:1008C0002F91FF90EF90DF90CF900F900FBE0F9081
:1008D0001F90189584B1806384B93C9A0895813043
:1008E00031F018F0823029F008952C9808952D9851
:1008F000089544980895813031F018F0823029F03D
:1009000008952C9A08952D9A0895449A089581E0A7
:1009100080931601089582E084BD84E287BD87B587
:100920008695869588BD85E085BD86E080936E00BE
:1009300008951F920F920FB60F9211242F933F9399
:100940004F935F936F937F938F939F93AF93BF93D7
:10095000EF93FF9398B587B5981708F018BC87B543
:1009600098B586958695890F88BD0E94BC02FF9137
:10097000EF91BF91AF919F918F917F916F915F9117
:100980004F913F912F910F900FBE0F901F90189590
:100990001F920F920FB60F921124AF92BF92CF9277
:1009A000DF92EF92FF920F931F932F933F934F93FA
:1009B0005F936F937F938F939F93AF93BF93CF93E7
:1009C000DF93EF93FF938091150181508093150180
:1009D00081112DC0809118018150809318018111DF
:1009E00023C00E947B0481E00E947B0482E00E947D
:1009F0007B048BB18F708BB988B1807F88B95B988D
:100A000045980E94B00183B7817F846083BF83B71C
:100A1000816083BF85B7806685BF8F7D85BF7894F1
:100A2000889583B78E7F83BF84E68093150180917C
:100A30001701882329F080911701815080931701B5
:100A400080911601882371F01092FB011092F80139
:100A50001092FC011092F9011092FD011092FA011E
:100A600010921601CBEFD1E098EFE92E91E0F92E2C
:100A700000E010E0AA24A394B02E6E019881911199
:100A800005C08B2D0E947B04A88204C091509883DE
:100A90009923B9F3D7019C9191110EC08B2D0E941F
:100AA0006F04F801EE0FFF1FE457FD4F8181D7015E
:100AB0008C938081888305C09150F701908399239E
:100AC00069F32196D6018C91811103C08B2D0E9470
:100AD0007B040F5F1F4FBFEFEB1AFB0A03301105BA
:100AE00059F6FF91EF91DF91CF91BF91AF919F9117
:100AF0008F917F916F915F914F913F912F911F91B6
:100B00000F91FF90EF90DF90CF90BF90AF900F903C
:100B10000FBE0F901F901895CF93DF93CDB7DEB720
:100B20002B970FB6F894DEBF0FBECDBF8091640047
:100B30008460809364008091640080688093640086
:100B4000809164008F7D8093640092E080E80FB60E
:100B5000F89480936100909361000FBE8FE088B994
:100B600084EF8BB9539A5B9A0E9439030E9462000A
:100B70000E946A040E948B0478948E010F5F1F4FBD
:100B80008FE4C82E81E0D82E94E4A92E91E0B92EEE
:100B900029E3822E21E0922E3AEF732E662463948D
:100BA0004CE3E42E0E94D20060E070E080E096E02A
:100BB0000E94E201672B682B692B91F00E9456037B
:100BC000F82E60E070E080E094E00E94CA01672B9C
:100BD000682B692B71F01F92FF929F928F921CC01D
:100BE0000E9450038111EACF80911701882331F3CD
:100BF00025C060E070E080E092E00E94CA01672BAF
:100C0000682B692B29F01F92FF92BF92AF9204C00C
:100C10001F92FF92DF92CF921F928AE08F931F93D1
:100C20000F930E9452070FB6F894DEBF0FBECDBFE0
:100C30006AE0C8010E9470007092170160E071E0E4
:100C400080E090E00E94E201672B682B692B29F07D
:100C500068E08AE591E00E94700060E071E080E069
:100C600090E00E940A02672B682B692B29F068E04C
:100C700082E691E00E947000FF24F3946F2DC8017A
:100C80000E943202181624F4682FC8010E947000D6
:100C9000F39499E0F912F2CF68E070E080E090E020
:100CA0000E94E201672B682B692BB9F01092EA01D0
:100CB00060E070E088E090E00E94CA01672B682B3A
:100CC000692B31F06092EA016AE08AE691E003C0A4
:100CD0006BE084E791E00E94700068E070E080E0E3
:100CE00090E00E940A02672B682B692B69F08091C3
:100CF000EA01882321F06AE08FE791E003C06BE00E
:100D000089E891E00E94700060E870E080E090E087
:100D10000E94E201672B682B692B29F066E084E9C9
:100D200091E00E94700060E470E080E090E00E943A
:100D3000E201672B682B692B29F066E08AE991E0D4
:100D40000E94700060E270E080E090E00E94E201AA
:100D5000672B682B692B29F066E080EA91E00E94FE
:100D6000700060E170E080E090E00E94E201672B9B
:100D7000682B692B29F066E086EA91E00E947000FA
:100D800060E870E080E090E00E940A02672B682B28
:100D9000692B29F066E08CEA91E00E94700060E423
:100DA00070E080E090E00E940A02672B682B692BBC
:100DB00029F066E082EB91E00E94700060E270E052
:100DC00080E090E00E940A02672B682B692B29F0D3
:100DD00066E088EB91E00E94700060E170E080E0E6
:100DE00090E00E940A02672B682B692B29F066E0CD
:100DF0008EEB91E00E94700060EF70E080E090E088
:100E00000E94CA01672B682B692B09F4CBCE8FB7E0
:100E1000F894E09218018FBFC5CEA29FB001B39F96
:100E2000C001A39F700D811D1124911DB29F700DF3
:100E3000811D1124911D0895AA1BBB1B51E107C000
:100E4000AA1FBB1FA617B70710F0A61BB70B881F5A
:100E5000991F5A95A9F780959095BC01CD010895E9
:100E6000A1E21A2EAA1BBB1BFD010DC0AA1FBB1FAE
:100E7000EE1FFF1FA217B307E407F50720F0A21B20
:100E8000B30BE40BF50B661F771F881F991F1A948D
:100E900069F760957095809590959B01AC01BD01B7
:100EA000CF010895AEE0B0E0E8E5F7E00C946B0DFB
:100EB0000D891E898F89988D26E02C831A830983DA
:100EC00097FF02C080E090E801979E838D83AE017A
:100ED000455E5F4F698D7A8DCE0101960E949B071A
:100EE0004D815E8157FD0AC02F8138854217530717
:100EF0000CF49A01F801E20FF31F10822E96E4E041
:100F00000C94870DAEE0B0E0E8E8F7E00C946D0DCE
:100F10008DE08C838B899C899A838983AE01495E9D
:100F20005F4F6D897E89CE0101960E94ED0A2E9653
:100F3000E2E00C94890DACE0B0E0E1EAF7E00C945B
:100F40005D0D7C016B018A01FC0117821682838191
:100F500081FFBDC1CE0101964C01F7019381F601DD
:100F600093FD859193FF81916F01882309F4ABC1B3
:100F7000853239F493FD859193FF81916F0185321C
:100F800029F4B70190E00E948D0CE7CF512C312C51
:100F900020E02032A0F48B3269F030F4803259F036
:100FA000833269F420612CC08D3239F0803339F4FA
:100FB000216026C02260246023C0286021C027FD54
:100FC00027C030ED380F3A3078F426FF06C0FAE03B
:100FD0005F9E300D1124532E13C08AE0389E300DD1
:100FE0001124332E20620CC08E3221F426FD6BC1F9
:100FF000206406C08C3611F4206802C0883641F4A3
:10100000F60193FD859193FF81916F018111C1CF0D
:10101000982F9F7D9554933028F40C5F1F4FFFE36A
:10102000F9830DC0833631F0833771F0833509F0D1
:101030005BC022C0F801808189830E5F1F4F44246A
:101040004394512C540115C03801F2E06F0E711C0D
:10105000F801A080B18026FF03C0652D70E002C0BA
:101060006FEF7FEFC5012C870E94440C2C01830198
:101070002C852F77222E17C03801F2E06F0E711CDD
:10108000F801A080B18026FF03C0652D70E002C08A
:101090006FEF7FEFC5012C870E94390C2C012C8546
:1010A0002068222E830123FC1BC0832D90E048166C
:1010B0005906B0F4B70180E290E00E948D0C3A949A
:1010C000F4CFF50127FC859127FE81915F01B701DF
:1010D00090E00E948D0C31103A94F1E04F1A5108C3
:1010E0004114510471F7E5C0843611F0893639F5A1
:1010F000F80127FF07C060817181828193810C5FB5
:101100001F4F08C060817181882777FD8095982FD7
:101110000E5F1F4F2F76722E97FF09C09095809516
:10112000709561957F4F8F4F9F4F2068722E2AE0F8
:1011300030E0A4010E94DE0CA82EA81844C0853718
:1011400029F42F7EB22E2AE030E025C0F22FF97F5D
:10115000BF2E8F36C1F018F4883579F0B4C08037CF
:1011600019F0883721F0AFC02F2F2061B22EB4FEC6
:101170000DC08B2D8460B82E09C024FF0AC09F2F9C
:101180009660B92E06C028E030E005C020E130E0CE
:1011900002C020E132E0F801B7FE07C06081718132
:1011A000828193810C5F1F4F06C06081718180E056
:1011B00090E00E5F1F4FA4010E94DE0CA82EA8181D
:1011C000FB2DFF777F2E76FE0BC0372D3E7FA514BB
:1011D00050F474FE0AC072FC08C0372D3E7E05C074
:1011E000BA2C372D03C0BA2C01C0B52C34FF0DC06A
:1011F000FE01EA0DF11D8081803311F4397E09C0B2
:1012000032FF06C0B394B39404C0832F867809F0EC
:10121000B39433FD13C030FF06C05A2CB31418F436
:10122000530C5B18B32CB31468F4B70180E290E060
:101230003C870E948D0CB3943C85F5CFB31410F419
:101240003B1801C0312C34FF12C0B70180E390E09D
:101250003C870E948D0C3C8532FF17C031FD03C0D6
:1012600088E790E002C088E590E0B7010CC0832FCA
:10127000867859F031FF02C08BE201C080E237FD71
:101280008DE2B70190E00E948D0CA51438F4B701EF
:1012900080E390E00E948D0C5A94F7CFAA94F40159
:1012A000EA0DF11D8081B70190E00E948D0CA11024
:1012B000F5CF332009F451CEB70180E290E00E94CF
:1012C0008D0C3A94F6CFF7018681978102C08FEF9B
:1012D0009FEF2C96E2E10C94790D20FD09C0FC01F2
:1012E00023FD05C022FF02C07383628351834083C4
:1012F000089544FD10C046FD10C0DB01FC01AA0F9B
:10130000BB1FEE1FFF1F1094D1F76A0F7B1F8E1FAC
:101310009F1F31E003C033E001C034E0660F771F48
:10132000881F991F3150D1F7620F711D811D911DCA
:1013300008950F931F93CF93DF938C01C8010E94F0
:101340004F0CEC0197FD08C00E94260C892BB1F7C9
:10135000B801CE010E94C50CCE01DF91CF911F9143
:101360000F910895A1E0B0E0E8EBF9E00C94630D73
:101370008C01C62E7A0129830E944F0CAC0155279F
:1013800029814B32510521F04D32510569F4206815
:10139000CA94C11002C080E076C0C80129830E94AF
:1013A0004F0C298197FDF7CF322F3D7FD32E322F5F
:1013B000307349F5803339F5BB24BA94BC0C09F479
:1013C0004EC0C80129830E944F0C298197FD47C058
:1013D000382F3F7D383569F48D2D8264D82ECA941C
:1013E000CA94CC20E1F1C8010E944F0C97FF0BC0BA
:1013F00036C026FF04C02D2D2260D22E03C03D2D05
:101400003261D32ECB2C812C912C540120ED280F4E
:10141000283080F0D4FE04C0B8010E94C50C1CC066
:101420002A3040F0D6FEF8CF2F7D3FEE320F363017
:1014300098F727504D2DC501B4010E9479094B0141
:101440005C018D2D8260D82ECA94CC2059F0C80141
:101450000E944F0C97FFDACFD1FC04C09CCF812CA7
:10146000912C5401D7FE08C0B094A094909480941D
:10147000811C911CA11CB11C2D2DB501A401C7011B
:101480000E946D0981E02196ECE00C947F0DA1E2B1
:10149000B0E0EDE4FAE00C94610D5C017A01CE015C
:1014A00001966C0180E2F60111928A95E9F7F50147
:1014B000838040E050E0912C712C70E0A1E0B0E01E
:1014C000F90183FC859183FE81918F01982F9F0103
:1014D000811103C080E090E07CC08E3519F4411585
:1014E000510549F1E72FF0E0E417F5073CF48D359D
:1014F00059F18D3219F4772001F103C0711001C048
:10150000982E892F8695869586958601080F111D40
:10151000892F87703D0101C0660C8A95EAF7F801B2
:10152000808186298083991559F0991510F49F5F61
:10153000E8CF9150E6CF71E004C07724739401C0E6
:10154000712C4F5F5F4FBCCF772019F08E81806286
:101550008E83711103C09924939416C0F6019E01E5
:101560002F5D3F4F808180958193E217F307D1F77C
:10157000F2CFE114F10429F0F7018083C70101964D
:101580007C016150912CF9F0C50169A30E944F0CB8
:1015900069A197FD16C0282F269526952695F60158
:1015A000E20FF11D208130E0AC014770552702C0E9
:1015B000359527954A95E2F720FDDBCFB5010E94CE
:1015C000C50C911087CFE114F10411F0F7011082DE
:1015D000C801A196EEE00C947D0D4F925F927F9230
:1015E0008F929F92AF92BF92CF92DF92EF92FF9233
:1015F0000F931F93CF93DF931F92CDB7DEB76C018C
:101600002B015A01FC0117821682712CF601F3801E
:10161000F201F3FC8591F3FE8191382F2F0188238D
:1016200009F4F3C090E039830E94260C3981892B9C
:1016300021F0C6010E949909E9CF353241F4F20147
:10164000F3FC3591F3FE31912F01353269F4C60177
:1016500039830E944F0C398197FDD5C03817B1F2FC
:10166000B6010E94C50CD1C03A3239F4F3FC359171
:10167000F3FE31912F0151E001C050E0420110E032
:1016800020ED230F2A3090F45260612F70E080E04B
:1016900090E040E259830E947909162FF401F3FC8F
:1016A0003591F3FE31914F015981EACF052F232F58
:1016B000240151FF03C0111102C0A7C01FEF38362B
:1016C00019F03C3659F011C0F401F3FC2591F3FEFA
:1016D00021912F01283649F4052F08600460F2019A
:1016E000F3FC2591F3FE21912F01222309F48DC0F3
:1016F000622F70E089E790E029830E942E0C2981F7
:10170000892B09F482C000FD07C0F501E080F1805B
:10171000C50102965C0102C0E12CF12C2E3651F479
:10172000F6014681578160E070E0202FC7010E94DA
:101730006D096CCF233691F401FF11E0C6010E94C0
:101740004F0C97FD60C0E114F10429F0F70180838C
:10175000C70101967C01115089F751C02B3559F40E
:101760009201A701612FC6010E94470A2C01009730
:1017700009F045C03FC0C60129830E94990929810B
:1017800097FD41C02F3659F128F4243631F129361E
:1017900049F127C0233769F02537F9F022C0E11459
:1017A000F10429F0F7018082C70101967C011150F4
:1017B00071F0C6010E944F0C4C0197FD08C00E94B9
:1017C000260C892B61F3B601C4010E94C50CE114FB
:1017D000F104A9F0F701108212C0006203C0006199
:1017E00001C00064202FA701612FC6010E94B20929
:1017F000811105C0F6018381807329F406C000FDC4
:1018000005CF739403CF772019F0872D90E002C0A5
:101810008FEF9FEF0F90DF91CF911F910F91FF906E
:10182000EF90DF90CF90BF90AF909F908F907F9080
:101830005F904F900895A8E1B0E042E050E00C9432
:101840003E0D0E944C0D272F0C944D0D911132C16D
:10185000803219F089508550D0F70895FC01059029
:10186000061621F00020D9F7C00108953197CF0165
:101870000895FC010590615070400110D8F78095E3
:1018800090958E0F9F1F0895FC016150704001904C
:101890000110D8F7809590958E0F9F1F0895CF93D4
:1018A000DF93EC012B8120FF33C026FF0AC02F7B82
:1018B0002B838E819F8101969F838E838A8190E006
:1018C00029C022FF0FC0E881F9818081992787FD17
:1018D0009095009719F420622B831AC03196F983F2
:1018E000E8830EC0EA85FB85099597FF09C02B8127
:1018F000019611F080E201C080E1822B8B8308C049
:101900002E813F812F5F3F4F3F832E83992702C057
:101910008FEF9FEFDF91CF9108950F931F93CF9398
:10192000DF93FB01238121FD03C08FEF9FEF28C0D0
:1019300022FF16C046815781248135814217530703
:1019400044F4A081B1819D012F5F3F4F31832083FB
:101950008C93268137812F5F3F4F3783268310C0BA
:10196000EB01092F182F0084F185E02D0995892BB3
:10197000E1F68E819F8101969F838E83812F902F28
:10198000DF91CF911F910F910895FB01238120FFDB
:1019900012C026FD10C08F3F3FEF930761F0828396
:1019A0002F7D20642383268137812150310937839D
:1019B0002683992708958FEF9FEF0895FA01AA27AC
:1019C000283051F1203181F1E8946F936E7F6E5F82
:1019D0007F4F8F4F9F4FAF4FB1E03ED0B4E03CD030
:1019E000670F781F891F9A1FA11D680F791F8A1F13
:1019F000911DA11D6A0F711D811D911DA11D20D07A
:101A000009F468943F912AE0269F11243019305D33
:101A10003193DEF6CF010895462F4770405D419324
:101A2000B3E00FD0C9F7F6CF462F4F70405D4A3371
:101A300018F0495D31FD4052419302D0A9F7EACF39
:101A4000B4E0A6959795879577956795BA95C9F768
:101A500000976105710508959B01AC010A2E06945B
:101A60005795479537952795BA95C9F7620F731F14
:101A7000841F951FA01D0895DC01CB01FC01F9997D
:101A8000FECF06C0F2BDE1BDF89A319600B40D92CA
:101A900041505040B8F70895262FF999FECF1FBA4C
:101AA00092BD81BD20BD0FB6F894FA9AF99A0FBE87
:101AB000019608959927882708952F923F924F9273
:101AC0005F926F927F928F929F92AF92BF92CF92CE
:101AD000DF92EF92FF920F931F93CF93DF93CDB7D7
:101AE000DEB7CA1BDB0B0FB6F894DEBF0FBECDBF4F
:101AF00009942A88398848885F846E847D848C8420
:101B00009B84AA84B984C884DF80EE80FD800C8128
:101B10001B81AA81B981CE0FD11D0FB6F894DEBF0B
:0C1B20000FBECDBFED010895F894FFCF7B
:101B2C00FFFFFFFFFFFFFFFFFFFF0102030405069E
:101B3C00070801100E6401FA3C01000000000200CD
:101B4C000000000100020000000004000000000280
:101B5C00000400000000080000533A253033753AA9
:101B6C00460D0A00533A253033753A520D0A00538C
:101B7C003A253033753A450D0A0046305F444E0D18
:101B8C000A0046305F55500D0A00434F4E465F44E5
:101B9C004E0D0A004553544F505F444E0D0A0043FE
:101BAC004F4E465F55500D0A004553544F505F55EC
:101BBC00500D0A002B4C310D0A002B4C320D0A0033
:101BCC002B4C330D0A002B4C340D0A002D4C310DCF
:101BDC000A002D4C320D0A002D4C330D0A002D4CF1
:101BEC00340D0A004C4F4B0D0A004C4552520D0A55
:101BFC00004B4F4B0D0A004625755F444E0D0A00F5
:0A1C0C004625755F55500D0A0000D3
:00000001FF
