:100000000C9443000C942E020C9460000C9460003D
:100010000C9460000C9460000C9460000C946000E0
:100020000C9460000C9460000C9460000C946000D0
:100030000C9460000C9460000C944E050C941F0509
:100040000C9460000C9460000C94FF010C94F5007B
:100050000C9460000C9464040C9460000C94600098
:100060000C9460000C9460004C256868753A20255B
:100070006868752F25686875006364696E6F7073B2
:100080007578585B000011241FBECFEFD8E0DEBFAB
:10009000CDBF12E0A0E0B1E0E8E4FEE102C00590CF
:1000A0000D92A432B107D9F712E0A4E2B2E001C088
:1000B0001D92A23DB107E1F70E9422060C94220F87
:1000C0000C9400001092C00088E98093C10086E083
:1000D0008093C2001092C50081E08093C40008950F
:1000E0006150A0F0E091270221E02E0F209327021B
:1000F000F0E0DC012D91CD01E958FD4F20832091E6
:100100002702203468F310922702EACF8091C100C1
:1001100085FD17C0E091280281E08E0F80932802B0
:10012000F0E0E958FD4F80818093C600809128025D
:10013000803410F0109228028091C1008062809378
:10014000C1000895FF920F931F93CF93DF93CDB714
:10015000DEB72A970FB6F894DEBF0FBECDBF9091E1
:10016000C10095FD35C0F82E60E070E080E094E0BD
:100170000E9450028E010F5F1F4F672B682B692B67
:1001800029F01F92FF928AE391E00EC060E070E0D8
:1001900080E092E00E945002672B682B692B91F05F
:1001A0001F92FF9285E491E09F938F931F928AE0C4
:1001B0008F931F930F930E94E0080FB6F894DEBF51
:1001C0000FBECDBF69E0C8010E94700081E001C090
:1001D00080E02A960FB6F894DEBF0FBECDBFDF9148
:1001E000CF911F910F91FF9008951F920F920FB61C
:1001F0000F9211248F939F93EF93FF939091280276
:1002000080912702981799F0E091280281E08E0FE3
:1002100080932802F0E0E958FD4F80818093C6006A
:1002200080912802803440F01092280205C080910D
:10023000C1008F7D8093C100FF91EF919F918F91BD
:100240000F900FBE0F901F901895EF92FF920F9393
:100250001F93CF93DF93CDB7DEB7C454D1090FB648
:10026000F894DEBF0FBECDBF80912902882309F428
:10027000B8C09FB7F89480912902815080932902D9
:100280009FBFDE01119620E0CD01E0912502F0E054
:10029000E95CFD4F30813D3019F1E0912502F0E03D
:1002A000E95CFD4F30813A30D9F040912502309120
:1002B00026024317A9F02F3399F02F5FE091250212
:1002C00031E03E0F30932502F0E0E95CFD4F3081D4
:1002D0003D93309125023034C0F210922502D5CFE3
:1002E000309125023F5F3093250230912502303452
:1002F00010F010922502FC01E20FF11D10827E0128
:1003000021E4E20EF11C97012F5F3F4F3F932F93A3
:10031000FF92EF928E010C5B1F4F1F930F9328E605
:1003200030E03F932F939F938F930E9410090FB655
:10033000F894DEBF0FBECDBF039799F5D801EC91BD
:100340008FEF8E0F833048F5F0E03197CF01880FA3
:10035000991FE80FF91FE753FD4F9081D7018C914A
:10036000981304C0918111968C9198130E940D05E9
:10037000D801EC91F0E03197D7018C919F01220FC9
:10038000331FE20FF31FE753FD4F808311968C91CB
:10039000818365E08FEE91E022C066E085EF91E019
:1003A0001EC089818F34C1F48A8166E0863451F0A1
:1003B0008E3479F48CEF91E00E94700081E080939C
:1003C0002A020FC083E092E00E94700010922A027D
:1003D00008C08AE092E003C065E086EF91E00E94E9
:1003E0007000CC5BDF4F0FB6F894DEBF0FBECDBF01
:1003F000DF91CF911F910F91FF90EF9008951F9281
:100400000F920FB60F9211248F939F93EF93FF9348
:100410008091C6008A3011F08D3029F49091290224
:100420009F5F90932902E091260291E09E0F9093A6
:100430002602F0E0E95CFD4F808380912602803443
:1004400010F010922602FF91EF919F918F910F90E3
:100450000FBE0F901F901895E89A08951F920F9263
:100460000FB60F9211248F93EF93FF93E8988BB1FF
:10047000806F8BB988B18F6088B9EAE7F0E080813E
:100480008068808380818064808381E0809319010B
:10049000FF91EF918F910F900FBE0F901F901895C5
:1004A000CF92DF92EF92FF922FB7F894C090BB02E9
:1004B000D090BC02E090BD02F090BE022FBF6C2134
:1004C0007D218E219F21FF90EF90DF90CF900895A6
:1004D0000F931F934FB7F8940091BF021091C00281
:1004E0002091C1023091C2026023712382239323A1
:1004F0000091BF021091C0022091C1023091C2024E
:1005000006271727282739270093BF021093C00218
:100510002093C1023093C2024FBF1F910F910895E3
:100520000F931F934FB7F8940091B7021091B80240
:100530002091B9023091BA02602371238223932360
:100540000091B7021091B8022091B9023091BA021D
:1005500006271727282739270093B7021093B802D8
:100560002093B9023093BA024FBF1F910F910895A3
:100570008F929F92AF92BF92CF92DF92FF920F9392
:100580001F93CF93DF93CDB7DEB7A0970FB6F89444
:10059000DEBF0FBECDBF20E2EAE1F1E0DE01119641
:1005A00001900D922A95E1F72FEF260F283008F0E1
:1005B00053C0162FF92E082FC22ED12CA1E0B0E087
:1005C000AC0FBD1F34E0239FA00DB11D11248D90F1
:1005D0009D90AD90BC90C501B4010E946802672B4C
:1005E000682B692BD1F0C601865F9E4F6C01FC0120
:1005F000108360E070E088E090E00E945002672B7A
:10060000682B692B19F0185FF6011083F6018081C1
:100610001F928F9381E192E010C0C501B4010E9446
:100620009002672B682B692BC9F0F601E65FFE4F3D
:1006300080811F928F938AE192E09F938F931F9204
:1006400089E08F93FF920F930E94E0080FB6F89411
:10065000DEBF0FBECDBF03C08FEF01C080E0A0960C
:100660000FB6F894DEBF0FBECDBFDF91CF911F91C3
:100670000F91FF90DF90CF90BF90AF909F908F90A1
:10068000089580912B0280FD5EC084B1807F84B983
:1006900087B1807F87B988B18F6088B980912B023C
:1006A0008695813041F028F0823039F0833071F046
:1006B0001CC0209A1AC0219A18C08091D1028823A8
:1006C00011F03A9A01C04298229A0FC0239A809161
:1006D000CB02882311F0389A01C040988091CE0255
:1006E000882311F03B9A01C0439880912B0281111D
:1006F0005AC08091BB0229B12827207F809109012F
:100700008223809580930901909104019223982778
:1007100090930401822389239091BB0298279093A0
:10072000BB029091BB022091BF029823922B909321
:10073000BF022091BB029091B70220958223892BA2
:100740008093B70230C0869590E0FC01E554FD4FE0
:10075000208146B12F70406F40954227DC01AB5F8E
:10076000BE4F2C91242320952C93DC01A050BF4F29
:100770003C91342332273C93242323233081322796
:1007800030833081DC01A154BD4F4C913223342B96
:100790003C933081FC01E954FD4F8081932F90956B
:1007A0002923282B208380912B028F5F883018F417
:1007B00080932B02089510922B020895CF93DF931C
:1007C0008091C8028823C1F02FB7F8948091C502A8
:1007D0009091C6022FBF61E870E00E94AA088EE7E0
:1007E000861B90912C02891729F091E090932D029D
:1007F00080932C021092C8028091C7028823A9F12D
:100800008FB7F8942091C5023091C6028FBFC09176
:10081000C302D091C402CE01A0E0B0E0BC01CD0182
:100820004DE0660F771F881F991F4A95D1F740E06A
:1008300050E00E94BE083093140120931301293622
:10084000304188F0BE01615071097093C402609319
:10085000C30280E090E00E94AF0D88E690E19093A3
:100860001401809313011092C702DF91CF91089574
:1008700087E480937C00EAE7F0E08EE880831092C2
:100880007B008081806480833D9A80E090E00E94BC
:10089000A90D9093C4028093C302089580912D0204
:1008A000089510922D02089580912C0208952FB77B
:1008B000F89480911301909114012FBF0895BC0109
:1008C00080E090E00C94AF0D1F920F920FB60F9244
:1008D00011242F933F934F935F938F939F93909106
:1008E000120180912E02992341F14091780050919C
:1008F000790020912F0230913002240F351F309360
:10090000300220932F028F5F80932E02803108F4F3
:1009100042C03093C6022093C50281E08093C80292
:1009200010922E021092300210922F021092120199
:1009300080917C00807F8E602CC0883070F0209188
:1009400078003091790040912F0250913002240FAD
:10095000351F3093300220932F028F5F80932E0239
:100960008031C8F080912F02909130029093C6029E
:100970008093C50281E08093C70210922E021092EC
:10098000300210922F028093120180917C00807FB0
:10099000876080937C0080917A00806480937A00E5
:1009A0009F918F915F914F913F912F910F900FBE2B
:1009B0000F901F90189584B1806384B93C9A089574
:1009C000813031F018F0823029F008952C9803C05E
:1009D0002D9801C0449890E0FC01EE0FFF1F8E0F90
:1009E0009F1FFC01E753FD4F81E082830895813012
:1009F00031F018F0823029F008952C9A03C02D9A16
:100A000001C0449A90E0FC01EE0FFF1F8E0F9F1F64
:100A1000FC01E753FD4F1282089581E08093160197
:100A2000089582E084BD84E287BD87B5869586956A
:100A300088BD85E085BD86E080936E0008951F9295
:100A40000F920FB60F9211242F933F934F935F9302
:100A50006F937F938F939F93AF93BF93EF93FF9386
:100A600098B587B5981708F018BC87B598B58695DE
:100A70008695890F88BD0E944103FF91EF91BF9138
:100A8000AF919F918F917F916F915F914F913F9126
:100A90002F910F900FBE0F901F9018951F920F92DD
:100AA0000FB60F921124CF92DF92EF92FF920F9325
:100AB0001F932F933F934F935F936F937F938F93E6
:100AC0009F93AF93BF93CF93DF93EF93FF93809167
:100AD0001501815080931501811142C08091190147
:100AE00081508093190181112FC00E94F70481E089
:100AF0000E94F70482E00E94F7048BB18F708BB9DB
:100B000088B1807F88B95B9810922A0245988091BD
:100B10007A008F7780937A008091C100877F8093DD
:100B2000C1000E942C0283B7817F846083BF83B79A
:100B3000816083BF85B7806685BF8F7D85BF7894D0
:100B4000889583B78E7F83BF80911801882329F011
:100B50008091180181508093180184E680931501DB
:100B600080911701882329F080911701815080938B
:100B7000170180911601882371F0109234021092AF
:100B80003102109235021092320210923602109207
:100B900033021092160104E312E091E3E92E92E091
:100BA000F92EC0E0D0E0CC24C394DC2ED8019C9177
:100BB000911106C08D2D0E94F704F801C08205C076
:100BC0009150D8019C939923A9F3F7019081911139
:100BD00013C0FE01EE0FFF1FEC0FFD1FE753FD4F8B
:100BE0008181D7018C938081F8018083882341F033
:100BF0008D2D0E94E00404C091509083992349F305
:100C000021960F5F1F4FBFEFEB1AFB0AC330D105D0
:100C100061F6FF91EF91DF91CF91BF91AF919F91DD
:100C20008F917F916F915F914F913F912F911F9184
:100C30000F91FF90EF90DF90CF900F900FBE0F902D
:100C40001F901895CF93DF93CDB7DEB72A970FB6D5
:100C5000F894DEBF0FBECDBF8091640084608093A6
:100C600064008091640080688093640080916400D7
:100C70008F7D8093640092E080E80FB6F8948093B3
:100C80006100909361000FBE8FE088B984EF8BB94B
:100C9000539A0E9438040E9462000E94DB040E9462
:100CA000110578948091C3029091C4020196F1F5E8
:100CB00082E38093CF0284E68093D0028093CA02BD
:100CC0008093CD020E940D055B9A80EB94E00E9418
:100CD0005F0412E0B8E0FB2E02E3F09219016FEF1F
:100CE0007FE08BE096E00E946802672B682B692BFF
:100CF000A1F3812F90E0FC01EE0FFF1F8E0F9F1FCD
:100D0000FC01E753FD4F10821F5F133009F410E020
:100D1000812F90E0FC01EE0FFF1F8E0F9F1FFC0143
:100D2000E753FD4F00830E940D05D7CF8E010F5F63
:100D30001F4F9BE5C92E91E0D92E20E5A22E21E080
:100D4000B22E3AE0E32E45E4842E41E0942E5AE39D
:100D5000652E51E0752E6AEF562E4424439482E0AE
:100D6000382E0E9425010E94DE0360E070E080E0E2
:100D700096E00E946802672B682B692B21F4809112
:100D8000170181115AC00E945404F82E60E070E0EF
:100D900080E094E00E945002672B682B692B29F0B9
:100DA0001F92FF927F926F9213C060E070E080E02C
:100DB00092E00E945002672B682B692B29F01F924A
:100DC000FF929F928F9204C01F92FF92BF92AF92A8
:100DD0001F92EF921F930F930E94E0080FB6F894B2
:100DE000DEBF0FBECDBF69E0C8010E9470000E9447
:100DF00057049F938F93DF92CF921F9289E08F9336
:100E00001F930F930E94E00868E0C8010E947000E1
:100E10000E9457040FB6F894DEBF0FBECDBF8834D2
:100E20009D4020F466E084E691E003C065E08BE637
:100E300091E00E947000509217010E944E04882396
:100E400039F00E9454040E94A20081110E945104B2
:100E500060E071E080E090E00E946802672B682B00
:100E6000692B29F067E081E791E00E94700060E063
:100E700071E080E090E00E949002672B682B692B64
:100E800029F067E089E791E00E947000FF24F39465
:100E90006F2DC8010E94B802181624F4682FC801EB
:100EA0000E947000F39489E0F812F2CF68E070E0DD
:100EB00080E090E00E946802672B682B692BB9F0F4
:100EC0001092240260E070E088E090E00E945002FE
:100ED000672B682B692B31F04092240269E081E88E
:100EE00091E003C06AE08BE891E00E94700068E046
:100EF00070E080E090E00E949002672B682B692BE5
:100F000069F080912402882321F069E086E991E06C
:100F100003C06AE080EA91E00E94700080912A029A
:100F2000882309F4C8C060E870E080E090E00E9487
:100F30009002672B682B692B79F060E870E080E005
:100F400090E00E945002672B682B692B29F465E022
:100F50008BEA91E00E94700060E470E080E090E035
:100F60000E949002672B682B692B79F060E470E097
:100F700080E090E00E945002672B682B692B29F4D7
:100F800065E081EB91E00E94700060E270E080E03B
:100F900090E00E949002672B682B692B79F060E249
:100FA00070E080E090E00E945002672B682B692B74
:100FB00029F465E087EB91E00E94700060E170E049
:100FC00080E090E00E949002672B682B692B79F0FB
:100FD00060E170E080E090E00E945002672B682B97
:100FE000692B29F465E08DEB91E00E94700060E8C8
:100FF00070E080E090E00E946802672B682B692B0C
:1010000079F060E870E080E090E00E945002672B89
:10101000682B692B29F065E083EC91E00E94700059
:1010200060E470E080E090E00E946802672B682B2B
:10103000692B79F060E470E080E090E00E9450025B
:10104000672B682B692B29F065E089EC91E00E9401
:10105000700060E270E080E090E00E946802672B20
:10106000682B692B79F060E270E080E090E00E94EC
:101070005002672B682B692B29F065E08FEC91E01B
:101080000E94700060E170E080E090E00E946802E1
:10109000672B682B692B79F060E170E080E090E0CD
:1010A0000E945002672B682B692B29F065E085EDC3
:1010B00091E00E94700060EF70E080E090E00E949C
:1010C0005002672B682B692B49F10E945704893421
:1010D0009D4038F05B9A459A8091C100886080936A
:1010E000C1000E945704853E9C4030F088E0809308
:1010F00019013092180112C08091180181110EC09F
:1011000068E08BED91E00E9470008FEF9FE726E191
:10111000815090402040E1F700C00000809119010B
:10112000882371F05B991DCE81E08093CF025092AD
:10113000D00284E68093C90288EC8093CA020DCE67
:101140006AE084EE91E00E9470008091190188238A
:10115000E1F3E8CFAA1BBB1B51E107C0AA1FBB1FCD
:10116000A617B70710F0A61BB70B881F991F5A9533
:10117000A9F780959095BC01CD010895A1E21A2EA2
:10118000AA1BBB1BFD010DC0AA1FBB1FEE1FFF1F2B
:10119000A217B307E407F50720F0A21BB30BE40B7B
:1011A000F50B661F771F881F991F1A9469F76095C2
:1011B0007095809590959B01AC01BD01CF0108957C
:1011C000AEE0B0E0E6EEF8E00C94F90E0D891E8971
:1011D0008F89988D26E02C831A83098397FF02C09C
:1011E00080E090E801979E838D83AE01455E5F4F5E
:1011F000698D7A8DCE0101960E9429094D815E810B
:1012000057FD0AC02F813885421753070CF49A0105
:10121000F801E20FF31F10822E96E4E00C94150FF4
:10122000AEE0B0E0E6E1F9E00C94FB0E8DE08C83DB
:101230008B899C899A838983AE01495E5F4F6D8952
:101240007E89CE0101960E947B0C2E96E2E00C94E2
:10125000170FACE0B0E0EFE2F9E00C94EB0E7C018C
:101260006B018A01FC0117821682838181FFBDC157
:10127000CE0101964C01F7019381F60193FD859112
:1012800093FF81916F01882309F4ABC1853239F452
:1012900093FD859193FF81916F01853229F4B70108
:1012A00090E00E941B0EE7CF512C312C20E0203221
:1012B000A0F48B3269F030F4803259F0833269F453
:1012C00020612CC08D3239F0803339F4216026C082
:1012D0002260246023C0286021C027FD27C030ED94
:1012E000380F3A3078F426FF06C0FAE05F9E300DE2
:1012F0001124532E13C08AE0389E300D1124332E52
:1013000020620CC08E3221F426FD6BC1206406C021
:101310008C3611F4206802C0883641F4F60193FD42
:10132000859193FF81916F018111C1CF982F9F7D8E
:101330009554933028F40C5F1F4FFFE3F9830DC0E1
:10134000833631F0833771F0833509F05BC022C0FA
:10135000F801808189830E5F1F4F44244394512CF0
:10136000540115C03801F2E06F0E711CF801A08025
:10137000B18026FF03C0652D70E002C06FEF7FEFE4
:10138000C5012C870E94D20D2C0183012C852F775B
:10139000222E17C03801F2E06F0E711CF801A080F8
:1013A000B18026FF03C0652D70E002C06FEF7FEFB4
:1013B000C5012C870E94C70D2C012C852068222E88
:1013C000830123FC1BC0832D90E048165906B0F41E
:1013D000B70180E290E00E941B0E3A94F4CFF50131
:1013E00027FC859127FE81915F01B70190E00E9463
:1013F0001B0E31103A94F1E04F1A51084114510478
:1014000071F7E5C0843611F0893639F5F80127FF08
:1014100007C060817181828193810C5F1F4F08C07A
:1014200060817181882777FD8095982F0E5F1F4F0F
:101430002F76722E97FF09C09095809570956195D3
:101440007F4F8F4F9F4F2068722E2AE030E0A4011B
:101450000E946C0EA82EA81844C0853729F42F7E50
:10146000B22E2AE030E025C0F22FF97FBF2E8F3652
:10147000C1F018F4883579F0B4C0803719F0883796
:1014800021F0AFC02F2F2061B22EB4FE0DC08B2DE6
:101490008460B82E09C024FF0AC09F2F9660B92E21
:1014A00006C028E030E005C020E130E002C020E1C5
:1014B00032E0F801B7FE07C06081718182819381BB
:1014C0000C5F1F4F06C06081718180E090E00E5F6D
:1014D0001F4FA4010E946C0EA82EA818FB2DFF77A9
:1014E0007F2E76FE0BC0372D3E7FA51450F474FE80
:1014F0000AC072FC08C0372D3E7E05C0BA2C372DBD
:1015000003C0BA2C01C0B52C34FF0DC0FE01EA0D9A
:10151000F11D8081803311F4397E09C032FF06C08D
:10152000B394B39404C0832F867809F0B39433FD49
:1015300013C030FF06C05A2CB31418F4530C5B18B8
:10154000B32CB31468F4B70180E290E03C870E94AA
:101550001B0EB3943C85F5CFB31410F43B1801C0B7
:10156000312C34FF12C0B70180E390E03C870E9429
:101570001B0E3C8532FF17C031FD03C088E790E0A9
:1015800002C088E590E0B7010CC0832F867859F03F
:1015900031FF02C08BE201C080E237FD8DE2B7016E
:1015A00090E00E941B0EA51438F4B70180E390E090
:1015B0000E941B0E5A94F7CFAA94F401EA0DF11D74
:1015C0008081B70190E00E941B0EA110F5CF33205F
:1015D00009F451CEB70180E290E00E941B0E3A94CC
:1015E000F6CFF7018681978102C08FEF9FEF2C968F
:1015F000E2E10C94070F20FD09C0FC0123FD05C0AA
:1016000022FF02C07383628351834083089544FDA7
:1016100010C046FD10C0DB01FC01AA0FBB1FEE1F6E
:10162000FF1F1094D1F76A0F7B1F8E1F9F1F31E0A1
:1016300003C033E001C034E0660F771F881F991F95
:101640003150D1F7620F711D811D911D08950F93C7
:101650001F93CF93DF938C01C8010E94DD0DEC0135
:1016600097FD08C00E94B40D892BB1F7B801CE01D7
:101670000E94530ECE01DF91CF911F910F910895DB
:10168000A1E0B0E0E6E4FBE00C94F10E8C01C62E84
:101690007A0129830E94DD0DAC01552729814B3247
:1016A000510521F04D32510569F42068CA94C110EA
:1016B00002C080E076C0C80129830E94DD0D298127
:1016C00097FDF7CF322F3D7FD32E322F307349F560
:1016D000803339F5BB24BA94BC0C09F44EC0C80160
:1016E00029830E94DD0D298197FD47C0382F3F7D5A
:1016F000383569F48D2D8264D82ECA94CA94CC20D2
:10170000E1F1C8010E94DD0D97FF0BC036C026FF36
:1017100004C02D2D2260D22E03C03D2D3261D32E68
:10172000CB2C812C912C540120ED280F283080F0F7
:10173000D4FE04C0B8010E94530E1CC02A3040F0F1
:10174000D6FEF8CF2F7D3FEE320F363098F7275078
:101750004D2DC501B4010E94070B4B015C018D2D7D
:101760008260D82ECA94CC2059F0C8010E94DD0DA9
:1017700097FFDACFD1FC04C09CCF812C912C54016F
:10178000D7FE08C0B094A09490948094811C911CC2
:10179000A11CB11C2D2DB501A401C7010E94FB0A9B
:1017A00081E02196ECE00C940D0FA1E2B0E0EBEDAE
:1017B000FBE00C94EF0E5C017A01CE0101966C0106
:1017C00080E2F60111928A95E9F7F501838040E005
:1017D00050E0912C712C70E0A1E0B0E0F90183FCA5
:1017E000859183FE81918F01982F9F01811103C004
:1017F00080E090E07CC08E3519F44115510549F127
:10180000E72FF0E0E417F5073CF48D3559F18D3200
:1018100019F4772001F103C0711001C0982E892FAF
:101820008695869586958601080F111D892F8770EC
:101830003D0101C0660C8A95EAF7F801808186298E
:101840008083991559F0991510F49F5FE8CF915056
:10185000E6CF71E004C07724739401C0712C4F5F10
:101860005F4FBCCF772019F08E8180628E8371111B
:1018700003C09924939416C0F6019E012F5D3F4F3B
:10188000808180958193E217F307D1F7F2CFE114BD
:10189000F10429F0F7018083C70101967C016150B2
:1018A000912CF9F0C50169A30E94DD0D69A197FD96
:1018B00016C0282F269526952695F601E20FF11DD4
:1018C000208130E0AC014770552702C0359527953F
:1018D0004A95E2F720FDDBCFB5010E94530E91102F
:1018E00087CFE114F10411F0F7011082C801A1962D
:1018F000EEE00C940B0F4F925F927F928F929F922B
:10190000AF92BF92CF92DF92EF92FF920F931F930D
:10191000CF93DF931F92CDB7DEB76C012B015A0135
:10192000FC0117821682712CF601F380F201F3FCA0
:101930008591F3FE8191382F2F01882309F4F3C09C
:1019400090E039830E94B40D3981892B21F0C601C2
:101950000E94270BE9CF353241F4F201F3FC3591B7
:10196000F3FE31912F01353269F4C60139830E94AB
:10197000DD0D398197FDD5C03817B1F2B6010E944F
:10198000530ED1C03A3239F4F3FC3591F3FE319164
:101990002F0151E001C050E0420110E020ED230F83
:1019A0002A3090F45260612F70E080E090E040E2D5
:1019B00059830E94070B162FF401F3FC3591F3FEB7
:1019C00031914F015981EACF052F232F240151FF77
:1019D00003C0111102C0A7C01FEF383619F03C3602
:1019E00059F011C0F401F3FC2591F3FE21912F0170
:1019F000283649F4052F08600460F201F3FC2591B4
:101A0000F3FE21912F01222309F48DC0622F70E093
:101A100089E790E029830E94BC0D2981892B09F474
:101A200082C000FD07C0F501E080F180C50102968B
:101A30005C0102C0E12CF12C2E3651F4F6014681F6
:101A4000578160E070E0202FC7010E94FB0A6CCF35
:101A5000233691F401FF11E0C6010E94DD0D97FDD0
:101A600060C0E114F10429F0F7018083C7010196F9
:101A70007C01115089F751C02B3559F49201A7010F
:101A8000612FC6010E94D50B2C01009709F045C0BB
:101A90003FC0C60129830E94270B298197FD41C0C1
:101AA0002F3659F128F4243631F1293649F127C06F
:101AB000233769F02537F9F022C0E114F10429F049
:101AC000F7018082C70101967C01115071F0C601B7
:101AD0000E94DD0D4C0197FD08C00E94B40D892BBA
:101AE00061F3B601C4010E94530EE114F104A9F0A0
:101AF000F701108212C0006203C0006101C00064DF
:101B0000202FA701612FC6010E94400B811105C043
:101B1000F6018381807329F406C000FD05CF73941C
:101B200003CF772019F0872D90E002C08FEF9FEF51
:101B30000F90DF91CF911F910F91FF90EF90DF9069
:101B4000CF90BF90AF909F908F907F905F904F907D
:101B50000895A8E1B0E042E050E00C94CC0E0E9461
:101B6000DA0E272F0C94DB0E911132C1803219F05E
:101B700089508550D0F70895FC010590061621F094
:101B80000020D9F7C00108953197CF010895FC01D5
:101B90000590615070400110D8F7809590958E0F98
:101BA0009F1F0895FC016150704001900110D8F70B
:101BB000809590958E0F9F1F0895CF93DF93EC0132
:101BC0002B8120FF33C026FF0AC02F7B2B838E8101
:101BD0009F8101969F838E838A8190E029C022FF96
:101BE0000FC0E881F9818081992787FD9095009742
:101BF00019F420622B831AC03196F983E8830EC052
:101C0000EA85FB85099597FF09C02B81019611F0A4
:101C100080E201C080E1822B8B8308C02E813F814E
:101C20002F5F3F4F3F832E83992702C08FEF9FEF97
:101C3000DF91CF9108950F931F93CF93DF93FB0113
:101C4000238121FD03C08FEF9FEF28C022FF16C024
:101C500046815781248135814217530744F4A0817E
:101C6000B1819D012F5F3F4F318320838C9326816B
:101C700037812F5F3F4F3783268310C0EB01092F39
:101C8000182F0084F185E02D0995892BE1F68E81CE
:101C90009F8101969F838E83812F902FDF91CF911B
:101CA0001F910F910895FB01238120FF12C026FD93
:101CB00010C08F3F3FEF930761F082832F7D206438
:101CC0002383268137812150310937832683992741
:101CD00008958FEF9FEF0895FA01AA27283051F158
:101CE000203181F1E8946F936E7F6E5F7F4F8F4F4D
:101CF0009F4FAF4FB1E03ED0B4E03CD0670F781FAC
:101D0000891F9A1FA11D680F791F8A1F911DA11D90
:101D10006A0F711D811D911DA11D20D009F46894C9
:101D20003F912AE0269F11243019305D3193DEF671
:101D3000CF010895462F4770405D4193B3E00FD027
:101D4000C9F7F6CF462F4F70405D4A3318F0495D12
:101D500031FD4052419302D0A9F7EACFB4E0A695F5
:101D60009795879577956795BA95C9F70097610517
:101D7000710508959B01AC010A2E0694579547956D
:101D800037952795BA95C9F7620F731F841F951F62
:101D9000A01D0895DC01CB01FC01F999FECF06C01E
:101DA000F2BDE1BDF89A319600B40D924150504019
:101DB000B8F70895262FF999FECF1FBA92BD81BDBD
:101DC00020BD0FB6F894FA9AF99A0FBE01960895BD
:101DD0009927882708952F923F924F925F926F9292
:101DE0007F928F929F92AF92BF92CF92DF92EF92AB
:101DF000FF920F931F93CF93DF93CDB7DEB7CA1B2C
:101E0000DB0B0FB6F894DEBF0FBECDBF09942A8856
:101E1000398848885F846E847D848C849B84AA84FE
:101E2000B984C884DF80EE80FD800C811B81AA818B
:101E3000B981CE0FD11D0FB6F894DEBF0FBECDBF56
:081E4000ED010895F894FFCFB5
:101E4800FFFFFFFFFFFFFFFFFFFF0102030405067F
:101E5800070801100E6401FA0208010000000002E0
:101E68000000000001000200000000040000000063
:101E780002000400000000080000533A25303375C2
:101E88003A460D0A00533A253033753A520D0A0086
:101E9800533A253033753A450D0A00563A25303401
:101EA800750D0A00424C4F570D0A00424F4B0D0A60
:101EB8000046305F444E0D0A0046305F55500D0A0B
:101EC80000434F4E465F444E0D0A004553544F5051
:101ED8005F444E0D0A00434F4E465F55500D0A00B1
:101EE8004553544F505F55500D0A002D4C310D0A83
:101EF800002D4C320D0A002D4C330D0A002D4C34A8
:101F08000D0A002B4C310D0A002B4C320D0A002B08
:101F18004C330D0A002B4C340D0A0042454D5054E9
:101F2800590D0A005057525F444F574E0D0A004C46
:101F38004F4B0D0A004C4552520D0A004F4E4F4B65
:101F48000D0A004F464F4B0D0A004F4552520D0ADD
:101F5800004625755F444E0D0A004625755F5550AD
:041F68000D0A00005E
:00000001FF
