:100000000C9443000C94BB010C9460000C946000B1
:100010000C9460000C9460000C9460000C946000E0
:100020000C9460000C9460000C9460000C946000D0
:100030000C9460000C9460000C941E040C94EF036C
:100040000C9460000C9460000C948C010C94AB0038
:100050000C9460000C9458030C9460000C946000A5
:100060000C9460000C9460004C256868753A20255B
:100070006868752F25686875006364696E6F7073B2
:100080007578585B000011241FBECFEFD8E0DEBFAB
:10009000CDBF11E0A0E0B1E0E0E7F8E102C00590DB
:1000A0000D92A03CB107D9F712E0A0ECB1E001C07D
:1000B0001D92A536B107E1F70E94E0040C94360CBE
:1000C0000C940000FC0190819F5F933010F49083AA
:1000D0000895108208951092C00088E98093C100AD
:1000E00086E08093C2001092C50081E08093C40036
:1000F00008956150A0F0E091C40121E02E0F2093FB
:10010000C401F0E0DC012D91CD01ED5EFD4F2083B7
:100110002091C401203468F31092C401EACF809189
:10012000C10085FD17C0E091C50181E08E0F80936D
:10013000C501F0E0ED5EFD4F80818093C6008091A7
:10014000C501803410F01092C5018091C100806219
:100150008093C10008951F920F920FB60F92112441
:100160008F939F93EF93FF939091C5018091C4016A
:10017000981799F0E091C50181E08E0F8093C50139
:10018000F0E0ED5EFD4F80818093C6008091C50157
:10019000803440F01092C50105C08091C1008F7D70
:1001A0008093C100FF91EF919F918F910F900FBEAF
:1001B0000F901F901895EF92FF920F931F93CF937C
:1001C000DF93CDB7DEB7C354D1090FB6F894DEBFC5
:1001D0000FBECDBF8091C601882309F48FC09FB7A1
:1001E000F8948091C60181508093C6019FBFDE01C3
:1001F000119620E0CD01E091C201F0E0ED52FE4FFA
:1002000030813D3019F1E091C201F0E0ED52FE4F36
:1002100030813A30D9F04091C2013091C301431787
:10022000A9F02F3399F02F5FE091C20131E03E0F2A
:100230003093C201F0E0ED52FE4F30813D9330919A
:10024000C2013034C0F21092C201D5CF3091C20148
:100250003F5F3093C2013091C201303410F01092F0
:10026000C201FC01E20FF11D10828E010F5B1F4FD6
:1002700098012F5F3F4F3F932F931F930F937E0162
:1002800023E4E20EF11CFF92EF9228E630E03F9368
:100290002F939F938F930E944D060FB6F894DEBF65
:1002A0000FBECDBF0397D9F4D701EC918FEF8E0F1E
:1002B000833088F4F0E0D8018C91EE0FFF1FE35AF1
:1002C000FD4F808311968C9181830E94DD0366E04F
:1002D0008AE991E011C067E080EA91E00DC0898170
:1002E0008B3439F48CE38093150166E087EA91E062
:1002F00003C066E081EA91E00E947900CD5BDF4FA8
:100300000FB6F894DEBF0FBECDBFDF91CF911F9126
:100310000F91FF90EF9008951F920F920FB60F92DA
:1003200011248F939F93EF93FF938091C6008A309F
:1003300011F08D3029F49091C6019F5F9093C60112
:10034000E091C30191E09E0F9093C301F0E0ED5264
:10035000FE4F80838091C301803410F01092C3015E
:10036000FF91EF919F918F910F900FBE0F901F9073
:100370001895E89A08951F920F920FB60F921124C4
:100380008F93E8988BB1806F8BB988B18F6088B9F3
:100390008CE3809315018F910F900FBE0F901F90EB
:1003A0001895CF92DF92EF92FF922FB7F894C090FA
:1003B0005702D0905802E0905902F0905A022FBF95
:1003C0006C217D218E219F21FF90EF90DF90CF90B7
:1003D00008950F931F934FB7F89400915B0210910B
:1003E0005C0220915D0230915E02602371238223C2
:1003F000932300915B0210915C0220915D02309189
:100400005E02062717272827392700935B021093DF
:100410005C0220935D0230935E024FBF1F910F91EB
:1004200008950F931F934FB7F894009153021091C2
:100430005402209155023091560260237123822389
:100440009323009153021091540220915502309150
:10045000560206271727282739270093530210939F
:10046000540220935502309356024FBF1F910F91B3
:1004700008958F929F92AF92BF92CF92DF92FF9298
:100480000F931F93CF93DF93CDB7DEB7A0970FB62F
:10049000F894DEBF0FBECDBF20E2E6E1F1E0DE0161
:1004A000119601900D922A95E1F72FEF260F283033
:1004B00008F054C0162FF92E082FC22ED12CA1E01F
:1004C000B0E0AC0FBD1F34E0239FA00DB11D11247F
:1004D0008D909D90AD90BC90C501B4010E94E90142
:1004E000672B682B692BD1F0C601865F9E4F6C018C
:1004F000FC01108360E070E088E090E00E94D10190
:10050000672B682B692B19F0185FF6011083F60131
:1005100080811F928F938DEA91E010C0C501B401D4
:100520000E941102672B682B692BD1F0F601E65F60
:10053000FE4F80811F928F9386EB91E09F938F9364
:100540001F9289E08F93FF920F930E941D068F5F89
:100550000FB6F894DEBF0FBECDBF03C08FEF01C052
:1005600080E0A0960FB6F894DEBF0FBECDBFDF913E
:10057000CF911F910F91FF90DF90CF90BF90AF90E0
:100580009F908F9008958091C70180FD3EC084B1F7
:10059000807F84B934B12091C701269581E090E035
:1005A000022E01C0880F0A94EAF7832B84B9809148
:1005B000C70181115AC08091570229B12827207F95
:1005C0008091090182238095809309019091040113
:1005D00092239827909304018223892390915702B4
:1005E0009827909357029091570220915B0298238D
:1005F000922B90935B022091570290915302209589
:100600008223892B8093530230C0869590E0FC01B1
:10061000E95AFD4F208146B12F70406F4095422727
:10062000DC01AB5FBE4F2C91242320952C93DC0181
:10063000A050BF4F3C91342332273C9324232323E3
:100640003081322730833081DC01A55ABD4F4C9177
:100650003223342B3C933081FC01ED5AFD4F8081D5
:10066000932F90952923282B20838091C7018F5F9A
:10067000883018F48093C70108951092C701089537
:1006800087E480937C00EAE7F0E08EEA80831092B2
:100690007B0080818064808308958091C9018111ED
:1006A0001092C90108951092C9018091C80108955E
:1006B0001F920F920FB60F9211242F933F934F93D7
:1006C0005F936F937F938F939F93AF93BF9320918B
:1006D0007800309179008091CB019091CC01820F0C
:1006E000931F9093CC018093CB012091CA012F5F7F
:1006F000203118F42093CA0134C01092CA0161E875
:1007000070E00E9409068EE7861B482F50E020917A
:10071000C80130E02F5F3F4F24173507CCF0209100
:10072000C80130E04F5F5F4F421753078CF0909144
:10073000C801891791F08E3729F49091C8019D372F
:1007400038F40BC0811109C09091C801923028F48F
:1007500091E09093C9018093C8011092CC0110924E
:10076000CB01BF91AF919F918F917F916F915F91DD
:100770004F913F912F910F900FBE0F901F901895A2
:1007800084B1806384B93C9A0895813031F018F0C7
:10079000823029F008952C9808952D980895449852
:1007A0000895813031F018F0823029F008952C9AA4
:1007B00008952D9A0895449A089581E08093130135
:1007C000089582E084BD84E287BD87B586958695CD
:1007D00088BD85E085BD86E080936E0008951F92F8
:1007E0000F920FB60F9211242F933F934F935F9365
:1007F0006F937F938F939F93AF93BF93EF93FF93E9
:1008000098B587B5981708F018BC87B598B5869540
:100810008695890F88BD0E94C302FF91EF91BF9119
:10082000AF919F918F917F916F915F914F913F9188
:100830002F910F900FBE0F901F9018951F920F923F
:100840000FB60F921124AF92BF92CF92DF92EF9228
:10085000FF920F931F932F933F934F935F936F9349
:100860007F938F939F93AF93BF93CF93DF93EF9338
:10087000FF938091120181508093120181112BC04E
:1008800080911501815080931501811121C00E9432
:10089000D10381E00E94D10382E00E94D1038BB199
:1008A0008F708BB988B1807F88B90E94B90183B7F6
:1008B000817F846083BF83B7816083BF85B7806693
:1008C00085BF8F7D85BF7894889583B78E7F83BFE2
:1008D00084E68093120180911401882329F080918D
:1008E000140181508093140180911301882371F0C9
:1008F0001092D0011092CD011092D1011092CE0130
:100900001092D2011092CF0110921301C0EDD1E0EC
:100910009DECE92E91E0F92E00E010E0AA24A394CA
:10092000B02E6E019881911105C08B2D0E94D103CC
:10093000A88204C0915098839923B9F3D7019C9160
:1009400091110EC08B2D0E94C503F801EE0FFF1F01
:10095000E15AFD4F8181D7018C938081888305C046
:100960009150F7019083992369F32196D6018C91D8
:10097000811103C08B2D0E94D1030F5F1F4FBFEF6A
:10098000EB1AFB0A0330110559F6FF91EF91DF9145
:10099000CF91BF91AF919F918F917F916F915F9117
:1009A0004F913F912F911F910F91FF90EF90DF900A
:1009B000CF90BF90AF900F900FBE0F901F901895E3
:1009C000CF93DF93CDB7DEB72C970FB6F894DEBF89
:1009D0000FBECDBF809164008460809364008091DD
:1009E0006400806880936400809164008F7D8093B0
:1009F000640092E080E80FB6F894809361009093D1
:100A000061000FBE8FE088B984EF8BB90E9440036C
:100A10000E946B000E94C0030E94E10378948E0143
:100A20000F5F1F4F9AEF792E2CE4E22E21E0F22E79
:100A300031E4C32E31E0D32E46E3A42E41E0B42EA0
:100A40006624639454E6952E62E3862E0E94DB00B2
:100A500060E070E080E096E00E94E901672B682B7F
:100A6000692BD9F181EC91E00E9462000E9453034E
:100A7000582E60E070E080E094E00E94D101672B86
:100A8000682B692B29F01F925F92BF92AF9213C01F
:100A900060E070E080E092E00E94D101672B682B5B
:100AA000692B29F01F925F92DF92CF9204C01F92B0
:100AB0005F92FF92EF921F928AE08F931F930F93A2
:100AC0000E941D060FB6F894DEBF0FBECDBF6AE0D0
:100AD000C8010E9479007092140160E071E080E02A
:100AE00090E00E94E901672B682B692B49F081ECAB
:100AF00091E00E94620068E087E591E00E94790041
:100B000060E071E080E090E00E941102672B682BAA
:100B1000692B29F068E08FE591E00E947900552467
:100B20005394652DC8010E943902682F18164CF4A1
:100B300081EC91E06C870E9462006C85C8010E9484
:100B40007900539499E05912ECCF68E070E080E0AE
:100B500090E00E94E901672B682B692BD9F081ECAA
:100B600091E00E9462001092C00160E070E088E0B5
:100B700090E00E94D101672B682B692B31F06092C5
:100B8000C0016AE087E691E003C06BE081E791E095
:100B90000E94790068E070E080E090E00E9411021D
:100BA000672B682B692B69F08091C001882321F0A5
:100BB0006AE08CE791E003C06BE086E891E00E9478
:100BC000790060EF70E088E090E00E94E901672B17
:100BD000682B692B49F069E081E991E00E94790076
:100BE00081EC91E00E94620010925F02909260029C
:100BF00010926102909262021092630290926402DB
:100C0000E091C101F0E0EE0FFF1FE15AFD4F80823D
:100C10001DCFAA1BBB1B51E107C0AA1FBB1FA617F4
:100C2000B70710F0A61BB70B881F991F5A95A9F795
:100C300080959095BC01CD010895AEE0B0E0E3E26F
:100C4000F6E00C940D0C0D891E898F89988D26E095
:100C50002C831A83098397FF02C080E090E80197F4
:100C60009E838D83AE01455E5F4F698D7A8DCE0187
:100C700001960E9466064D815E8157FD0AC02F8154
:100C80003885421753070CF49A01F801E20FF31F5D
:100C900010822E96E4E00C94290CAEE0B0E0E3E57F
:100CA000F6E00C940F0C8DE08C838B899C899A83E1
:100CB0008983AE01495E5F4F6D897E89CE010196C1
:100CC0000E94B8092E96E2E00C942B0CACE0B0E048
:100CD000ECE6F6E00C94FF0B7C016B018A01FC0151
:100CE00017821682838181FFBDC1CE0101964C011E
:100CF000F7019381F60193FD859193FF81916F0137
:100D0000882309F4ABC1853239F493FD859193FFB3
:100D100081916F01853229F4B70190E00E944D0B5B
:100D2000E7CF512C312C20E02032A0F48B3269F037
:100D300030F4803259F0833269F420612CC08D3256
:100D400039F0803339F4216026C02260246023C04A
:100D5000286021C027FD27C030ED380F3A3078F4E5
:100D600026FF06C0FAE05F9E300D1124532E13C0FB
:100D70008AE0389E300D1124332E20620CC08E3252
:100D800021F426FD6BC1206406C08C3611F4206866
:100D900002C0883641F4F60193FD859193FF81915D
:100DA0006F018111C1CF982F9F7D9554933028F406
:100DB0000C5F1F4FFFE3F9830DC0833631F083379B
:100DC00071F0833509F05BC022C0F801808189830E
:100DD0000E5F1F4F44244394512C540115C0380119
:100DE000F2E06F0E711CF801A080B18026FF03C0F5
:100DF000652D70E002C06FEF7FEFC5012C870E9468
:100E0000040B2C0183012C852F77222E17C038016B
:100E1000F2E06F0E711CF801A080B18026FF03C0C4
:100E2000652D70E002C06FEF7FEFC5012C870E9437
:100E3000F90A2C012C852068222E830123FC1BC07B
:100E4000832D90E048165906B0F4B70180E290E097
:100E50000E944D0B3A94F4CFF50127FC859127FEB3
:100E600081915F01B70190E00E944D0B31103A94DF
:100E7000F1E04F1A51084114510471F7E5C084366E
:100E800011F0893639F5F80127FF07C060817181BB
:100E9000828193810C5F1F4F08C060817181882718
:100EA00077FD8095982F0E5F1F4F2F76722E97FF3C
:100EB00009C090958095709561957F4F8F4F9F4F9A
:100EC0002068722E2AE030E0A4010E949E0BA82E1A
:100ED000A81844C0853729F42F7EB22E2AE030E0CE
:100EE00025C0F22FF97FBF2E8F36C1F018F4883558
:100EF00079F0B4C0803719F0883721F0AFC02F2FB8
:100F00002061B22EB4FE0DC08B2D8460B82E09C0B6
:100F100024FF0AC09F2F9660B92E06C028E030E05B
:100F200005C020E130E002C020E132E0F801B7FE68
:100F300007C060817181828193810C5F1F4F06C061
:100F40006081718180E090E00E5F1F4FA4010E94DC
:100F50009E0BA82EA818FB2DFF777F2E76FE0BC0C8
:100F6000372D3E7FA51450F474FE0AC072FC08C0F1
:100F7000372D3E7E05C0BA2C372D03C0BA2C01C0D8
:100F8000B52C34FF0DC0FE01EA0DF11D80818033C8
:100F900011F4397E09C032FF06C0B394B39404C083
:100FA000832F867809F0B39433FD13C030FF06C059
:100FB0005A2CB31418F4530C5B18B32CB31468F404
:100FC000B70180E290E03C870E944D0BB3943C85D2
:100FD000F5CFB31410F43B1801C0312C34FF12C00C
:100FE000B70180E390E03C870E944D0B3C8532FFC7
:100FF00017C031FD03C088E790E002C088E590E0AB
:10100000B7010CC0832F867859F031FF02C08BE204
:1010100001C080E237FD8DE2B70190E00E944D0BE8
:10102000A51438F4B70180E390E00E944D0B5A9468
:10103000F7CFAA94F401EA0DF11D8081B70190E089
:101040000E944D0BA110F5CF332009F451CEB7010A
:1010500080E290E00E944D0B3A94F6CFF701868132
:10106000978102C08FEF9FEF2C96E2E10C941B0C4E
:1010700020FD09C0FC0123FD05C022FF02C07383CF
:10108000628351834083089544FD10C046FD10C023
:10109000DB01FC01AA0FBB1FEE1FFF1F1094D1F74D
:1010A0006A0F7B1F8E1F9F1F31E003C033E001C01A
:1010B00034E0660F771F881F991F3150D1F7620FF8
:1010C000711D811D911D08950F931F93CF93DF9381
:1010D0008C01C8010E940F0BEC0197FD08C00E9413
:1010E000E60A892BB1F7B801CE010E94850BCE012B
:1010F000DF91CF911F910F910895A1E0B0E0E3E857
:10110000F8E00C94050C8C01C62E7A0129830E940C
:101110000F0BAC01552729814B32510521F04D327F
:10112000510569F42068CA94C11002C080E076C0FD
:10113000C80129830E940F0B298197FDF7CF322F19
:101140003D7FD32E322F307349F5803339F5BB24E0
:10115000BA94BC0C09F44EC0C80129830E940F0B3D
:10116000298197FD47C0382F3F7D383569F48D2D93
:101170008264D82ECA94CA94CC20E1F1C8010E949E
:101180000F0B97FF0BC036C026FF04C02D2D226029
:10119000D22E03C03D2D3261D32ECB2C812C912C2D
:1011A000540120ED280F283080F0D4FE04C0B8018F
:1011B0000E94850B1CC02A3040F0D6FEF8CF2F7D50
:1011C0003FEE320F363098F727504D2DC501B40150
:1011D0000E9444084B015C018D2D8260D82ECA9478
:1011E000CC2059F0C8010E940F0B97FFDACFD1FC39
:1011F00004C09CCF812C912C5401D7FE08C0B09420
:10120000A09490948094811C911CA11CB11C2D2D44
:10121000B501A401C7010E94380881E02196ECE0E5
:101220000C94210CA1E2B0E0E8E1F9E00C94030C8D
:101230005C017A01CE0101966C0180E2F601119207
:101240008A95E9F7F501838040E050E0912C712CFC
:1012500070E0A1E0B0E0F90183FC859183FE81910B
:101260008F01982F9F01811103C080E090E07CC026
:101270008E3519F44115510549F1E72FF0E0E417D7
:10128000F5073CF48D3559F18D3219F4772001F1D1
:1012900003C0711001C0982E892F8695869586957A
:1012A0008601080F111D892F87703D0101C0660C52
:1012B0008A95EAF7F801808186298083991559F08B
:1012C000991510F49F5FE8CF9150E6CF71E004C00C
:1012D0007724739401C0712C4F5F5F4FBCCF772090
:1012E00019F08E8180628E83711103C099249394CA
:1012F00016C0F6019E012F5D3F4F8081809581933E
:10130000E217F307D1F7F2CFE114F10429F0F70166
:101310008083C70101967C016150912CF9F0C501D1
:1013200069A30E940F0B69A197FD16C0282F26956F
:1013300026952695F601E20FF11D208130E0AC01E3
:101340004770552702C0359527954A95E2F720FD4D
:10135000DBCFB5010E94850B911087CFE114F1041A
:1013600011F0F7011082C801A196EEE00C941F0C59
:101370004F925F927F928F929F92AF92BF92CF9245
:10138000DF92EF92FF920F931F93CF93DF931F9201
:10139000CDB7DEB76C012B015A01FC011782168212
:1013A000712CF601F380F201F3FC8591F3FE81913B
:1013B000382F2F01882309F4F3C090E039830E946D
:1013C000E60A3981892B21F0C6010E946408E9CF21
:1013D000353241F4F201F3FC3591F3FE31912F01E6
:1013E000353269F4C60139830E940F0B398197FDAC
:1013F000D5C03817B1F2B6010E94850BD1C03A3280
:1014000039F4F3FC3591F3FE31912F0151E001C025
:1014100050E0420110E020ED230F2A3090F452609A
:10142000612F70E080E090E040E259830E94440820
:10143000162FF401F3FC3591F3FE31914F015981E0
:10144000EACF052F232F240151FF03C0111102C041
:10145000A7C01FEF383619F03C3659F011C0F4011F
:10146000F3FC2591F3FE21912F01283649F4052F35
:1014700008600460F201F3FC2591F3FE21912F0135
:10148000222309F48DC0622F70E089E790E0298360
:101490000E94EE0A2981892B09F482C000FD07C051
:1014A000F501E080F180C50102965C0102C0E12CEB
:1014B000F12C2E3651F4F6014681578160E070E040
:1014C000202FC7010E9438086CCF233691F401FF0A
:1014D00011E0C6010E940F0B97FD60C0E114F104FA
:1014E00029F0F7018083C70101967C01115089F72B
:1014F00051C02B3559F49201A701612FC6010E94FA
:1015000012092C01009709F045C03FC0C60129838C
:101510000E946408298197FD41C02F3659F128F4B3
:10152000243631F1293649F127C0233769F02537B0
:10153000F9F022C0E114F10429F0F7018082C7011B
:1015400001967C01115071F0C6010E940F0B4C01F5
:1015500097FD08C00E94E60A892B61F3B601C40119
:101560000E94850BE114F104A9F0F701108212C06A
:10157000006203C0006101C00064202FA701612F39
:10158000C6010E947D08811105C0F6018381807328
:1015900029F406C000FD05CF739403CF772019F01E
:1015A000872D90E002C08FEF9FEF0F90DF91CF91DA
:1015B0001F910F91FF90EF90DF90CF90BF90AF9071
:1015C0009F908F907F905F904F900895911114C1DC
:1015D000803219F089508550D0F70895FC010590AC
:1015E000061621F00020D9F7C00108953197CF01E8
:1015F0000895FC010590615070400110D8F7809566
:1016000090958E0F9F1F0895FC01615070400190CE
:101610000110D8F7809590958E0F9F1F0895CF9356
:10162000DF93EC012B8120FF33C026FF0AC02F7B04
:101630002B838E819F8101969F838E838A8190E088
:1016400029C022FF0FC0E881F9818081992787FD99
:101650009095009719F420622B831AC03196F98374
:10166000E8830EC0EA85FB85099597FF09C02B81A9
:10167000019611F080E201C080E1822B8B8308C0CB
:101680002E813F812F5F3F4F3F832E83992702C0DA
:101690008FEF9FEFDF91CF9108950F931F93CF931B
:1016A000DF93FB01238121FD03C08FEF9FEF28C053
:1016B00022FF16C046815781248135814217530786
:1016C00044F4A081B1819D012F5F3F4F318320837E
:1016D0008C93268137812F5F3F4F3783268310C03D
:1016E000EB01092F182F0084F185E02D0995892B36
:1016F000E1F68E819F8101969F838E83812F902FAB
:10170000DF91CF911F910F910895FB01238120FF5D
:1017100012C026FD10C08F3F3FEF930761F0828318
:101720002F7D20642383268137812150310937831F
:101730002683992708958FEF9FEF0895FA01AA272E
:10174000283051F1203181F1E8946F936E7F6E5F04
:101750007F4F8F4F9F4FAF4FB1E03ED0B4E03CD0B2
:10176000670F781F891F9A1FA11D680F791F8A1F95
:10177000911DA11D6A0F711D811D911DA11D20D0FC
:1017800009F468943F912AE0269F11243019305DB6
:101790003193DEF6CF010895462F4770405D4193A7
:1017A000B3E00FD0C9F7F6CF462F4F70405D4A33F4
:1017B00018F0495D31FD4052419302D0A9F7EACFBC
:1017C000B4E0A6959795879577956795BA95C9F7EB
:1017D00000976105710508959B01AC010A2E0694DE
:1017E0005795479537952795BA95C9F7620F731F97
:1017F000841F951FA01D08959927882708952F926B
:101800003F924F925F926F927F928F929F92AF9290
:10181000BF92CF92DF92EF92FF920F931F93CF93DD
:10182000DF93CDB7DEB7CA1BDB0B0FB6F894DEBF74
:101830000FBECDBF09942A88398848885F846E849A
:101840007D848C849B84AA84B984C884DF80EE80E4
:10185000FD800C811B81AA81B981CE0FD11D0FB6ED
:10186000F894DEBF0FBECDBFED010895F894FFCF11
:10187000FFFFFFFFFFFFFFFFFFFF0102030405065D
:1018800007086401FA3C01000000000200000000AB
:10189000010002000000000400000000020004003B
:1018A000000000080000533A253033753A460D0A0F
:1018B00000533A253033753A520D0A00533A253019
:1018C00033753A450D0A0046305F444E0D0A004616
:1018D000305F55500D0A00434F4E465F444E0D0A8F
:1018E000004553544F505F444E0D0A00434F4E463F
:1018F0005F55500D0A004553544F505F55500D0A27
:1019000000535F4C5F444E0D0A004C4F4B0D0A00D4
:101910004C4552520D0A004B4F4B0D0A004625759F
:101920005F444E0D0A004625755F55500D0A0000B4
:00000001FF
