:100000000C9445000C9411020C9462000C94620054
:100010000C9462000C9462000C9462000C946200D8
:100020000C9462000C9462000C9462000C946200C8
:100030000C9462000C9462000C94B2050C9482053E
:100040000C9462000C9462000C94E4010C94DB00AC
:100050000C9462000C94C0040C9462000C94620036
:100060000C9462000C9462006364696E6F70737527
:1000700078585B00494E4954004C256868753A2011
:10008000256868752F256868750011241FBECFEF9D
:10009000D8E0DEBFCDBF11E0A0E0B1E0ECE4FDE1CF
:1000A00002C005900D92A637B107D9F722E0A6E766
:1000B000B1E001C01D92A732B207E1F70E949A0693
:1000C0000C94A40E0C9400001092C00088E9809358
:1000D000C10086E08093C2001092C50081E0809349
:1000E000C40008956150E0F48091C10085FD17C0FF
:1000F000E091790181E08E0F80937901F0E0E55481
:10010000FE4F80818093C60080917901803410F089
:10011000109279018091C10080628093C10008959E
:10012000FC01A091780181E08A0F80937801B0E012
:100130008191A554BE4F8C9380917801803410F04A
:1001400010927801CF01CECF0F931F93CF93DF93FF
:10015000CDB7DEB728970FB6F894DEBF0FBECDBF80
:100160009091C10095FD25C01F928F9389E591E084
:100170009F938F931F9288E08F938E010F5F1F4F85
:100180001F930F930E94700867E0C8010E947200DD
:100190000FB6F894DEBF0FBECDBF81E028960FB634
:1001A000F894DEBF0FBECDBFDF91CF911F910F91AD
:1001B000089580E0F3CF1F921FB61F9211248F93F2
:1001C0009F93EF93FF939091790180917801981715
:1001D000D1F0E091790181E08E0F80937901F0E018
:1001E000E554FE4F80818093C60080917901803470
:1001F00010F010927901FF91EF919F918F911F90D4
:100200001FBE1F9018958091C1008F7D8093C10003
:10021000F2CFCF92DF92EF92FF920F931F93CF9383
:10022000DF93CDB7DEB7C454D1090FB6F894DEBF63
:100230000FBECDBF80917A01882309F4B2C09FB769
:10024000F89480917A01815080937A019FBFDE01FA
:10025000119680E06D01E0917601F0E0E558FE4FE7
:1002600090819D3089F0E0917601F0E0E558FE4FF5
:1002700090819A3049F02091760190917701291769
:1002800019F08F3309F061C0909176019F5F9093D0
:10029000760190917601903410F010927601F6017B
:1002A000E80FF11D10828E010F5B1F4FC8010196F0
:1002B0009F938F931F930F937E0124E4E20EF11C12
:1002C000FF92EF9289E790E09F938F93DF92CF9216
:1002D0000E94A0080FB6F894DEBF0FBECDBF0397F3
:1002E00009F04BC0D701EC918FEF8E0F833008F0EF
:1002F00040C02E2F2150330BF901EE0FFF1FE20FEC
:10030000F31FE85EFD4F9081D8018C91981304C0D3
:10031000918111968C9198130E946F05F70180814D
:100320008150990BD8012C91FC01EE0FFF1FE80FB3
:10033000F91FE85EFD4F208311968C91818365E063
:1003400082E691E00E9472002CC0E091760191E07B
:100350009E0F90937601F0E08F5FE558FE4F9081FD
:100360009D9390917601903408F475CF10927601A8
:1003700072CF66E088E691E0E5CF44E050E064E7C4
:1003800070E0C6010E945B0865E0892BD1F48FE61E
:1003900091E00E94720010921301109212011092CB
:1003A0001101CC5BDF4F0FB6F894DEBF0FBECDBF9F
:1003B000DF91CF911F910F91FF90EF90DF90CF9041
:1003C000089589E691E0BECF1F921FB61F921124B7
:1003D0008F939F93EF93FF938091C6008A3011F023
:1003E0008D3029F490917A019F5F90937A01E0918A
:1003F000770191E09E0F90937701F0E0E558FE4F72
:10040000808380917701803410F010927701FF9102
:10041000EF919F918F911F901FBE1F901895E89AA2
:1004200008951F920F920FB60F9211242F933F93AE
:100430004F935F936F937F938F939F93AF93BF93EC
:10044000EF93FF93E8988BB1806F8BB988B18F6081
:1004500088B9EAE7F0E080818068808380818064E9
:10046000808382E0809315010E943405FF91EF9113
:10047000BF91AF919F918F917F916F915F914F91BC
:100480003F912F910F900FBE0F901F9018950F93D3
:100490001F93CF93DF9300D000D0CDB7DEB7462FA8
:1004A000572FBC012FB7F894809104029091050258
:1004B000A0910602B09107022FBF8A019B01082379
:1004C00019232A233B23C901B8010F900F900F90E5
:1004D0000F90DF91CF911F910F910895EF92FF92AE
:1004E0000F931F93CF93DF9300D000D0CDB7DEB72B
:1004F000462F572FBC012FB7F8948091000290919E
:100500000102A0910202B09103027A018B01E8225C
:10051000F9220A231B23E982FA820B831C83809130
:10052000000290910102A0910202B09103028E2577
:100530009F25A027B1278093000290930102A093EA
:100540000202B09303022FBF69817A818B819C8163
:100550000F900F900F900F90DF91CF911F910F91FF
:10056000FF90EF900895EF92FF920F931F93CF9318
:10057000DF9300D000D0CDB7DEB7462F572FBC0198
:100580002FB7F8948091FC019091FD01A091FE019C
:10059000B091FF017A018B01E822F9220A231B2383
:1005A000E982FA820B831C838091FC019091FD010A
:1005B000A091FE01B091FF018E259F25A027B127B4
:1005C0008093FC019093FD01A093FE01B093FF0185
:1005D0002FBF69817A818B819C810F900F900F9042
:1005E0000F90DF91CF911F910F91FF90EF900895A1
:1005F0002091080220FD6FC084B1807F84B987B14B
:10060000807F87B988B18F6088B98091080286950C
:10061000823009F453C008F03FC0882309F44AC06F
:10062000813009F449C08091080281112CC0909159
:10063000040289B19827907F20910901822F892394
:10064000382F309530930901809104018923832745
:100650008093040120959223892390910402982786
:100660009093040290910402209100029823922B0F
:1006700090930002909104022091FC0190958923AF
:10068000822B8093FC01809108028F5F883008F0F4
:1006900057C0809308020895833029F6239A8091E9
:1006A0001A028823A1F0389A80911D02882389F0CC
:1006B0003B9AB9CF209AB7CF219AB5CF809120022B
:1006C000882319F03A9A229AAECF4298FCCF4098EC
:1006D000EBCF4398A8CF96B1269530E0F901EC5FB7
:1006E000FD4F8081906F8F709827D901AB5FBE4F0F
:1006F0005C91452F4095842F892B8C93D901A05074
:10070000BF4F492F40956C91462348274C93892F22
:10071000852B809584239081982790839081D9019F
:10072000A050BE4F4C919823942B9C939081F9013B
:10073000E450FE4F208190958923822B8083A3CFA4
:10074000109208020895CF93DF9300D000D000D01C
:10075000CDB7DEB780910B02882309F443C08FB771
:10076000F8942091090230910A028FBF4091110242
:10077000509112025E834D83B0E0A0E0BD01EEE037
:10078000440F551F661F771FEA95D1F749835A8397
:100790006B837C8350E040E069817A818B819C810E
:1007A0000E942A0830930E0120930D012936304112
:1007B000B8F08D819E818538E3E09E0758F0BC013A
:1007C00061507109709312026093110284E090E00D
:1007D0000E944A0E88E690E190930E0180930D01ED
:1007E00010920B0280910C02882331F045990DC0C4
:1007F00010920C021092130226960FB6F894DEBFE8
:100800000FBECDBFDF91CF9108958FB7F89420919F
:10081000090230910A023A8329838FBF80910F0227
:10082000909110022817390750F43093100220934A
:100830000F0269817A8182E090E00E944A0E8091E5
:100840000D0290910E0249815A818417950748F450
:1008500050930E0240930D02BA0180E090E00E9496
:100860004A0E80910D0290910E0220910F0230915C
:100870001002AC01421B530B652F7727E981FA81E7
:10088000E21BF30B9F01E617F707A0F0861B970BFF
:100890008E179F0778F080910B0190910C01FB015E
:1008A000E20FF31FE817F90728F0860F971F82174A
:1008B0009307D8F430930C0120930B01AFE7B0E01D
:1008C0000E944C089A0150E040E00E942A082F370D
:1008D00008F02EE78EE7821B90911302981729F0FB
:1008E00091E0909314028093130210920C0284CF33
:1008F00087E480937C00EAE7F0E08EE88083109242
:100900007B008081806480833D9A84E090E00E9437
:10091000440E909312028093110282E090E00E94B4
:10092000440E9093100280930F0280E090E00E94AA
:10093000440E90930E0280930D020895809114024C
:1009400008951092140208958091130208952FB70C
:10095000F89480910D0190910E012FBF0895BC0174
:1009600084E090E00C944A0E60E070E482E090E055
:100970000E944A0E60E070E480E090E00C944A0E21
:100980001F921FB61F9211242F933F934F935F9393
:100990008F939F939091150281E0890F20910A0116
:1009A0002223B1F120917800309179004091160214
:1009B00050911702240F351F30931702209316020F
:1009C000809315028032A8F030930A022093090226
:1009D00081E080930C02109215021092170210927F
:1009E000160210920A0180917C00807F8E608093B5
:1009F0007C0080917A00806480937A009F918F912F
:100A00005F914F913F912F911F901FBE1F9018959E
:100A1000903170F040917800509179002091160249
:100A200030911702240F351F3093170220931602BE
:100A3000809315028032E8F280911602909117029D
:100A400090930A028093090281E080930B02109236
:100A50001502109217021092160280930A018091DB
:100A60007C00807F8760C3CF84B1806384B93C9A67
:100A7000E8E1F2E08AEF8183108284831382878326
:100A800016820895282F30E0813079F0823079F095
:100A900081110AC02C98F901EE0FFF1FE20FF31F1E
:100AA000E85EFD4F81E0828308952D98F4CF44984D
:100AB000F2CF282F30E0813071F0823071F0811157
:100AC00009C02C9AF901EE0FFF1FE20FF31FE85E39
:100AD000FD4F128208952D9AF5CF449AF3CF81E00D
:100AE00080931001089582E084BD84E287BD87B5BC
:100AF0006CE00E941E0888BD85E085BD86E080937D
:100B00006E0008951F920F920FB60F9211242F932B
:100B10003F934F935F936F937F938F939F93AF9385
:100B2000BF93EF93FF9398B587B5981708F018BC5B
:100B300087B528B56CE00E941E08820F88BD0E9410
:100B4000F802FF91EF91BF91AF919F918F917F91AB
:100B50006F915F914F913F912F910F900FBE0F902A
:100B60001F9018951F920F920FB60F921124AF92FB
:100B7000BF92CF92DF92EF92FF920F931F932F932A
:100B80003F934F935F936F937F938F939F93AF9315
:100B9000BF93CF93DF93EF93FF9380910F01815029
:100BA00080930F0181115BC080911501815080936A
:100BB000150181112DC00E94590581E00E9459053F
:100BC00082E00E9459058BB18F708BB988B1807F0C
:100BD00088B95B98459880917A008F7780937A00E6
:100BE0008091C100877F8093C1000E940F0283B76C
:100BF000817F846083BF83B7816083BF85B7806650
:100C000085BF8F7D85BF7894889583B78E7F83BF9E
:100C100080911401882329F08091140181508093E0
:100C2000140180911301882329F0809113018150D0
:100C30008093130180911201882329F08091120181
:100C400081508093120180911101882329F08091B5
:100C5000110181508093110184E680930F018091EE
:100C60001001882371F01092240210922102109238
:100C70002502109222021092260210922302109254
:100C8000100194E2E92E92E0F92E01E212E0D0E0A8
:100C9000C0E0AA24A394BC2ED7018D917D01FD0153
:100CA00031976F0181111CC08B2D0E945905D6010F
:100CB000AC92D8018C91811118C0FE01EE0FFF1F7C
:100CC000EC0FFD1FE85EFD4F8181D8018C93808180
:100CD000F6018083882369F08B2D0E94420509C0AC
:100CE00081508083882301F3E4CF81508C93882343
:100CF00021F321960F5F1F4FC330D10561F6FF919D
:100D0000EF91DF91CF91BF91AF919F918F917F91A3
:100D10006F915F914F913F912F911F910F91FF9094
:100D2000EF90DF90CF90BF90AF900F900FBE0F90DD
:100D30001F901895CDB7DEB7AB970FB6F894DEBF0E
:100D40000FBECDBF80916400846080936400809169
:100D50006400806880936400809164008F7D80933C
:100D6000640080E892E00FB6F8948093610090935D
:100D700061000FBE8FE088B984EF8BB9539A0E944F
:100D800078040E9464000E9434050E9473057894E0
:100D90008091110290911202019609F460C0CE0177
:100DA00001969FA38EA37E0193E2E90EF11CE6E279
:100DB000CE2EE1E0DE2EF9E02F2E7EA06FA0A5E082
:100DC0005A2E32E3332E42E0442E0E9409010E9443
:100DD000A3036FEF7FE08BE096E00E946E0268A7AE
:100DE00079A78AA79BA7672B682B692B09F47BC07F
:100DF0006FEF7FE08BE096E00E9447024B015C01C1
:100E000066E171E0872D962D0E94690840E050E070
:100E100060E070E8CE010396FC0101969501840123
:100E20000423152326233723012B022B032B09F43C
:100E3000E1C0A1E3A08376956795579547958E15F8
:100E40009F0551F762E471E0C7010E94690864E2FE
:100E5000872D962D0E9472005092120158C082E395
:100E600080931E0284E680931F0280931902809370
:100E70001C020E946F055B9A80EB94E00E94AF0415
:100E800080EB94E090931202809311020E94B404CC
:100E900012E078E0F72E02E3F09215016FEF7FE0A9
:100EA0008BE096E00E946E02672B682B692BA1F302
:100EB000812F90E0FC01EE0FFF1FE80FF91FE85EA5
:100EC000FD4F10821F5F133009F410E0812F90E076
:100ED000FC01EE0FFF1FE80FF91FE85EFD4F0083D6
:100EE0000E946F05D9CF6FEF7FE08BE096E00E9404
:100EF000B30268A779A78AA79BA7672B682B692BE2
:100F000009F076CF80911201882309F471CF0E94F5
:100F10009E04811104C08091130181110AC00E94B6
:100F2000A4040E94A400882321F00E94A1045092EE
:100F300013018091110181112CC00E94A7048834F3
:100F40009D4008F05AC066E089E191E00E9472007D
:100F50000E94A7049F938F93DF92CF921F922F92AC
:100F600081E090E08C0F9D1F9F938F930E947008EB
:100F700068E0872D962D0E94720065E18FE291E076
:100F80000E947200309211010FB6F894DEBF0FBEBE
:100F9000CDBF60EF70E080E090E00E94470268A75C
:100FA00079A78AA79BA7672B682B692BB1F00E94B2
:100FB000A70489349D4038F05B9A459A8091C1001E
:100FC00088608093C1000E94A704853E9C40C8F0C1
:100FD00088E08093150140921401809115018230C0
:100FE00018F15B99F2CE81E080931E028AEF809324
:100FF0001F02E7CEB0E3B0831ECF65E080E291E050
:10100000A5CF809114018111E8CF68E085E491E0DB
:101010000E9472008FEF9FE7A6E181509040A040B0
:10102000E1F700C00000D9CF6AE08EE491E00E94B1
:101030007200809115018230E0F3D3CF991B79E0E3
:1010400004C0991F961708F0961B881F7A95C9F758
:1010500080950895A1E21A2EAA1BBB1BFD010DC0AD
:10106000AA1FBB1FEE1FFF1FA217B307E407F50758
:1010700020F0A21BB30BE40BF50B661F771F881F34
:10108000991F1A9469F760957095809590959B01CA
:10109000AC01BD01CF010895A29FB001B39FC00173
:1010A000A39F700D811D1124911DB29F700D811D94
:1010B0001124911D0895FB01DC014150504030F096
:1010C0008D910590801919F40020B9F7881B990BB0
:1010D0000895FB01DC0101900D920020E1F70895D5
:1010E000AEE0B0E0E6E7F8E00C947B0E0D891E89D7
:1010F0008F89988D26E02C831A83098397FF02C07D
:1011000080E090E801979E838D83AE01455E5F4F3E
:10111000698D7A8DCE0101960E94B9084D815E815C
:1011200057FD0AC02F813885421753070CF49A01E6
:10113000020F131FF80110822E96E4E00C94970E14
:10114000AEE0B0E0E6EAF8E00C947D0E8DE08C8332
:101150008B899C899A838983AE01495E5F4F6D8933
:101160007E89CE0101960E94130C2E96E2E00C942B
:10117000990EAFE0B0E0EFEBF8E00C946D0E7C015F
:101180003B018A01DC0117961C921E92169713965A
:101190008C9181FFBEC19AE0292EFE0131964F014C
:1011A000D70113969C91F30193FD859193FF819153
:1011B0003F01882309F444C1853239F493FD8591B8
:1011C00093FF81913F01853229F4B70190E00E949D
:1011D0009B0DE6CFB12C412C512CBFE1B51538F059
:1011E0008B3209F188F4803201F1833221F157FC0E
:1011F0003AC020ED280F2A3040F556FE1FC0B29CA1
:10120000200D1124B22E06C08D3291F0803379F773
:10121000689450F8F30193FD859193FF81913F010C
:101220008111DBCF20C0689451F8689452F8F2CF56
:10123000689453F8EFCF689454F8ECCF429C200D9B
:101240001124422E689455F8E5CF8E3229F456FCCD
:10125000F7C0689456F8DECF8C3619F4689457F8C6
:10126000D9CF8836B9F2982F9F7D95549330C0F02E
:101270008336A1F18337C1F1833509F05BC0D80112
:10128000CD90DD908D016B2D70E056FC02C06FEFAC
:101290007FEFC6010E94470D5C01689457F80AC0B1
:1012A0000C5F1F4FEFE3E983AA24A394B12C6401E0
:1012B000E89457F853FC04C04A141B0409F018F5CD
:1012C000342CA114B10431F5332009F469CFB701EE
:1012D00080E290E00E949B0D3A94F6CFD8018C9169
:1012E00089830E5F1F4FE0CFF801C190D1908F012D
:1012F0006B2D70E056FC02C06FEF7FEFC6010E94BD
:10130000520D5C01D5CFB70180E290E00E949B0DA9
:101310004A94D2CFF60157FC859157FE81916F0117
:10132000B70190E00E949B0D31103A94B1E0AB1AE6
:10133000B108C7CF843619F0893609F071C0F801B9
:1013400057FE67C061917191819191918F01E52D57
:10135000EF76DE2E97FF09C0909580957095619588
:101360007F4F8F4F9F4F6894D7F82AE030E0A40159
:101370000E94E30DC82EC818AC2C5D2CD6FE0CC004
:10138000E89450F8CB1440F4D4FE05C0D2FC03C05E
:101390005D2D5E7E552EAB2C54FE93C0FE01EC0DF0
:1013A000F11D8081803309F085C0652D697E562E40
:1013B000752D7870372E53FC93C050FE8DC0BC2C19
:1013C000A41410F4B40CBA1854FE90C0B70180E312
:1013D00090E00E949B0D52FE07C088E751FC88E513
:1013E00090E0B7010E949B0DCB1408F48BC0CA9407
:1013F000D12C8FEFC81AD80AC80CD91CD6018E91EF
:101400006D01B70190E00E949B0D8C149D04B1F713
:101410005BCF61917191072E000C880B990B96CFD1
:10142000D52CE894D4F82AE0853729F1F52DF97FF9
:10143000DF2E8037A1F058F48835A1F08F36D1F037
:10144000F701868197812F96E2E10C94890E883707
:10145000B9F7D4FE02C06894D2F820E10CC06894B9
:10146000D4F8F7CF54FE03C02F2F2660D22E20E1F0
:1014700032E002C028E030E0F801D7FE15C041910B
:101480005191619171914C875D876E877F878F0144
:10149000A4016C857D858E859F850E94E30DC82EF5
:1014A000C818E894D7F868CF81919191AC0170E0A9
:1014B00060E0E9CF52FC02C0A3947ACFA394A39436
:1014C00077CF852D867809F473CFF6CFB70180E208
:1014D00090E00E949B0DA394A414C0F3312C74CF10
:1014E000342C3A18A41408F46FCFF8CF852D8678E1
:1014F00009F47ACF8BE251FE80E257FC8DE2B7010E
:1015000090E070CFB70180E390E00E949B0DBA9409
:101510006BCF8FEF9FEF97CFFC01CA01DB0120FD5E
:1015200008C023FD05C022FF02C0B383A2839183BC
:1015300080830895CF92DF92EF92FF92CF93DF9353
:1015400000D000D0CDB7DEB76B017C0183E044FD55
:1015500010C084E046FD0DC0D601F701AA0FBB1FE5
:10156000EE1FFF1F1094D1F7CA0EDB1EEE1EFF1EEA
:1015700081E0CC0CDD1CEE1CFF1C8150D1F7D701A3
:10158000C601820F911DA11DB11DBC01CD010F909F
:101590000F900F900F90DF91CF91FF90EF90DF9021
:1015A000CF9008950F931F93CF93DF938C01C801C1
:1015B0000E945D0DEC0197FD08C00E94330D892B40
:1015C000B1F7B801CE010E94CB0DCE01DF91CF91D2
:1015D0001F910F910895B0E0A0E0E1EFFAE00C94C4
:1015E000750E8C01C62F5A01F22E0E945D0DFC0172
:1015F0009927EB3221F08D9781F46894F7F8C15068
:1016000031F480E0CDB7DEB7EAE00C94910EC8016A
:101610000E945D0DFC0197FDF4CFDF2DDD7F8F2D46
:10162000807309F5E033F9F4EE24EA94EC0EC1304E
:1016300091F0C8010E945D0DFC0197FD0CC08F7DEB
:10164000883569F4D264C25031F0C8010E945D0D42
:10165000FC0197FF08C0C12CD12C76011CC0F6FEFE
:101660002CC0D260CE2DC12CD12C760120ED2E0FB6
:10167000283030F1D4FD09C02A3010F1D6FF05C062
:101680002F7D8FEE820F8630D0F0B801CF010E94FF
:10169000CB0DD1FFB6CFD7FF08C0F094E094D09423
:1016A000C094C11CD11CE11CF11C2D2FB701A60157
:1016B000C5010E948C0A81E0A5CFD261D3CF27500B
:1016C0004D2FC701B6010E949A0A6B017C01D260BE
:1016D000C15009F3C8010E945D0DFC0197FFC6CF00
:1016E000DACFA0E2B0E0E7E7FBE00C94730E6C0108
:1016F000962E7A01CE0101965C0180E2F5011192ED
:101700008A95E9F7F6018380890150E040E0B0E076
:1017100020E0A0E061E070E0F80183FC959183FE99
:101720009191892F8F01911107C010E000E0C8014D
:10173000A096ECE00C948F0E9E3519F441155105DE
:1017400031F1A4171506ECF49D3549F19D32C9F429
:10175000222309F1982F969596959695F501E90F14
:10176000F11D982F97709B0101C0220F9A95EAF7FF
:101770009081292B20838B1781F08B1730F48F5F9A
:10178000E9CF2111E7CFB92FE5CF8150E3CFA1E019
:101790004F5F5F4FC1CF21E0FBCF20E0F9CF222385
:1017A00019F08E8180628E83AA2361F0F5019E017B
:1017B0002F5D3F4F8081DF01319680958C93E2173A
:1017C000F307C1F788248394C6010E945D0D97FD3D
:1017D00016C0282F269526952695F501E20FF11DB6
:1017E000208130E0AC014770552702C03595279520
:1017F0004A95E2F720FD06C0B6010E94CB0D882075
:1018000059F093CFE114F10419F0F70181937F01AE
:101810009A94812C9110D8CFE114F10409F487CF68
:10182000F701108284CFA6E0B0E0E9E1FCE00C947F
:10183000710E5C016D837E83742E652EDC0117961C
:101840001C921E921697C12CD5011396FC90ED8127
:10185000FE81F3FC8591F3FE8191182FFE83ED83C9
:101860008823F9F090E00E94330D892B21F0C50107
:101870000E94D20AE9CF153251F4ED81FE81F3FCCA
:101880001591F3FE1191FE83ED83153269F4C501C4
:101890000E945D0D97FDA3C01817B1F2B5010E941B
:1018A000CB0D8C2D90E09FC000E01A3249F4ED8101
:1018B000FE81F3FC1591F3FE1191FE83ED8301E0AF
:1018C000D12C20ED210F2A3060F101FF42C0DD2034
:1018D00041F3183609F440C01C3609F449C01123FD
:1018E00001F3612F70E088E690E00E943C0D892BA7
:1018F000C1F2E12CF12C00FD06C0E72DF62DE190A0
:10190000F1907E2E6F2E1E3609F03CC0D501169642
:101910004D915C9170E060E0202FC7010E948C0A1D
:1019200093CF02608D2D90E0B0E0A0E089839A8390
:10193000AB83BC8340E2BC01CD010E949A0AD62E43
:10194000ED81FE81F3FC1591F3FE1191FE83ED8391
:10195000B8CFDD24DA94BDCFED81FE81F3FC159183
:10196000F3FE1191FE83ED83183609F0B8CF0860BD
:101970000460ED81FE81F3FC1591F3FE1191FE836D
:10198000ED83ADCF1336B1F401FD02C0DD24D39455
:10199000C5010E945D0D97FD22C0E114F10419F00C
:1019A000F70181937F01DA94D110F2CF00FD4CCF83
:1019B000C3944ACF1B35D9F42D813E81A7016D2DEB
:1019C000C5010E94710B8D839E83ED81FE81EF2BFB
:1019D00069F7D50113968C91807309F462CF8FEF6C
:1019E0009FEFC1105ECF2696EEE00C948D0EC501E0
:1019F0000E94D20A97FDF3CF1F3699F130F41436C6
:101A000041F0193639F0006405C01337A9F01537D5
:101A1000D1F70062202FA7016D2DC5010E94EB0AAE
:101A20008111C4CFD6CFE114F10419F0F7018192EE
:101A30007F01DA94DD2071F0C5010E945D0D4C013B
:101A400097FD08C00E94330D892B69F3B501C401CD
:101A50000E94CB0DE114F10409F4A8CFF701108224
:101A6000A5CF0061D7CF91110C94410E803219F0AF
:101A700089508550C8F70895FC010590061621F09D
:101A80000020D9F7C00108953197CF010895FC01D6
:101A90000590615070400110D8F7809590958E0F99
:101AA0009F1F0895FC016150704001900110D8F70C
:101AB000809590958E0F9F1F0895CF93DF93EC0133
:101AC0008B8180FF33C086FF0CC08F7B8B838E8120
:101AD0009F8101969F838E838A8190E0DF91CF91D1
:101AE000089582FF15C0E881F9819081292F092E80
:101AF000000C330B80629923C1F03196F983E8839F
:101B00008E819F8101969F838E83C9019927E6CF9D
:101B1000EA85FB85CE0109959C0197FFF1CF8B816A
:101B20002F3F3F4F31F090E2892B8B838FEF9FEF58
:101B3000D5CF90E1F9CF0F931F93CF93DF93182F59
:101B4000092FEB018B8181FD09C01FEF0FEF812F62
:101B5000902FDF91CF911F910F91089582FF14C0B4
:101B60002E813F818C819D81281739073CF4E881C3
:101B7000F981CF0101969983888310838E819F819B
:101B800001969F838E83E3CFE885F985812F0995A0
:101B9000892BA1F3DACFFB01238120FF11C026FDA1
:101BA0000FC08F3F980771F082832F7D20642383BD
:101BB000268137812150310937832683992708955B
:101BC0008FEF9FEF0895FA01AA27283051F12031B5
:101BD00081F1E8946F936E7F6E5F7F4F8F4F9F4FC1
:101BE000AF4FB1E03ED0B4E03CD0670F781F891F03
:101BF0009A1FA11D680F791F8A1F911DA11D6A0FD1
:101C0000711D811D911DA11D20D009F468943F9183
:101C10002AE0269F11243019305D3193DEF6CF0182
:101C20000895462F4770405D4193B3E00FD0C9F748
:101C3000F6CF462F4F70405D4A3318F0495D31FDB5
:101C40004052419302D0A9F7EACFB4E0A695979508
:101C5000879577956795BA95C9F7009761057105DE
:101C600008959B01AC010A2E069457954795379528
:101C70002795BA95C9F7620F731F841F951FA01D82
:101C80000895992788270895A8E1B0E042E050E040
:101C90000C94510E0E945F0E272F0C94600EDC01F5
:101CA000CB01FC01F999FECF06C0F2BDE1BDF89A67
:101CB000319600B40D9241505040B8F70895262F48
:101CC000F999FECF1FBA92BD81BD20BD0FB6F89421
:101CD000FA9AF99A0FBE019608952F923F924F9269
:101CE0005F926F927F928F929F92AF92BF92CF92AC
:101CF000DF92EF92FF920F931F93CF93DF93CDB7B5
:101D0000DEB7CA1BDB0B0FB6F894DEBF0FBECDBF2C
:101D100009942A88398848885F846E847D848C84FD
:101D20009B84AA84B984C884DF80EE80FD800C8106
:101D30001B81AA81B981CE0FD11D0FB6F894DEBFE9
:0C1D40000FBECDBFED010895F894FFCF59
:101D4C00FFFFFFFFFFFFFFFFFFFF010040100E64CE
:101D5C000105050502084B3A00424C4F570D0A008D
:101D6C00424F4B0D0A00563A253034750D0A00527D
:101D7C00323032322D31302D31352D6562376531AF
:101D8C0031320D0A0042454D5054590D0A0050573E
:101D9C00525F444F574E0D0A00533A253033750DA0
:101DAC000A004C4F4B0D0A004C4552520D0A00498B
:061DBC004F4B0D0A000070
:00000001FF
