:100000000C9443000C9460000C9460000C9460000D
:100010000C9460000C9460000C9460000C946000E0
:100020000C9460000C9460000C9460000C946000D0
:100030000C9460000C9460000C9475030C946000A8
:100040000C9460000C9460000C94D2010C94ED00B0
:100050000C9460000C9416030C9460000C946000E7
:100060000C9460000C9460004C256868753A20255B
:100070006868752F25686875006364696E6F7073B2
:100080007578585B000011241FBECFEFD8E0DEBFAB
:10009000CDBF11E0A0E0B1E0E6E6F6E102C00590D8
:1000A0000D92A439B107D9F712E0A4E9B1E001C07B
:1000B0001D92A433B107E1F70E9427040C94310B81
:1000C0000C9400001092C00088E98093C10086E083
:1000D0008093C2001092C50081E08093C40008950F
:1000E0006150A0F0E091970121E02E0F209397013D
:1000F000F0E0DC012D91CD01EB51FE4F20832091EA
:100100009701203468F310929701EACF8091C100E3
:1001100085FD17C0E091980181E08E0F80939801D2
:10012000F0E0EB51FE4F80818093C60080919801F2
:10013000803410F0109298018091C1008062809309
:10014000C1000895FF920F931F93CF93DF93CDB714
:10015000DEB72A970FB6F894DEBF0FBECDBF9091E1
:10016000C10095FD2DC0F82E82E090E00E94FF01B5
:100170008E010F5F1F4F892B29F01F92FF9284E1A0
:1001800091E00AC081E090E00E94FF01892B91F08C
:100190001F92FF928FE191E09F938F931F928AE0CD
:1001A0008F931F930F930E9418050FB6F894DEBF2C
:1001B0000FBECDBF69E0C8010E94700081E001C0A0
:1001C00080E02A960FB6F894DEBF0FBECDBFDF9158
:1001D000CF911F910F91FF9008951F920F920FB62C
:1001E0000F9211248F939F93EF93FF939091980117
:1001F00080919701981799F0E091980181E08E0F16
:1002000080939801F0E0EB51FE4F80818093C6000F
:1002100080919801803440F01092980105C080913F
:10022000C1008F7D8093C100FF91EF919F918F91CD
:100230000F900FBE0F901F901895EF92FF920F93A3
:100240001F93CF93DF93CDB7DEB7C454D1090FB658
:10025000F894DEBF0FBECDBF80919901882309F4C9
:1002600093C09FB7F8948091990181508093990130
:100270009FBFDE01119620E0CD01E0919501F0E0F5
:10028000EB55FE4F30813D3019F1E0919501F0E0E2
:10029000EB55FE4F30813A30D9F0409195013091C5
:1002A00096014317A9F02F3399F02F5FE091950144
:1002B00031E03E0F30939501F0E0EB55FE4F308179
:1002C0003D93309195013034C0F210929501D5CF15
:1002D000309195013F5F3093950130919501303415
:1002E00010F010929501FC01E20FF11D10828E01B9
:1002F0000F5B1F4F98012F5F3F4F3F932F931F932B
:100300000F937E0124E4E20EF11CFF92EF9228E6A7
:1003100030E03F932F939F938F930E9448050FB631
:10032000F894DEBF0FBECDBF0397F9F4D701EC916F
:100330008FEF8E0F8330A8F4F0E03197D8018C91C5
:100340009F01220F331FE20FF31FE55DFD4F8083F6
:1003500011968C9181830E94680365E08FE691E09D
:1003600011C066E085E791E00DC089818B3439F4D6
:100370008CE380930B0165E08CE791E003C065E0BE
:1003800086E791E00E947000CC5BDF4F0FB6F894D7
:10039000DEBF0FBECDBFDF91CF911F910F91FF90B8
:1003A000EF9008951F920F920FB60F9211248F9322
:1003B0009F93EF93FF938091C6008A3011F08D30A8
:1003C00029F4909199019F5F90939901E091960192
:1003D00091E09E0F90939601F0E0EB55FE4F8083E5
:1003E00080919601803410F010929601FF91EF9168
:1003F0009F918F910F900FBE0F901F9018954FB740
:10040000F89420912702309128024FBF8223932332
:1004100008954FB7F8942091290230912A0282233F
:1004200093232091290230912A02282739273093DB
:100430002A02209329024FBF08954FB7F8942091C4
:1004400025023091260282239323209125023091A8
:1004500026022827392730932602209325024FBFF2
:100460000895AF92BF92DF92EF92FF920F931F9386
:10047000CF93DF93CDB7DEB728970FB6F894DEBFE2
:100480000FBECDBF28E0ECE0F1E0DE011196019057
:100490000D922A95E1F70FEF060F043008F04FC0D8
:1004A000F62ED92EE82E10E0F801EE0FFF1F21E006
:1004B00030E02C0F3D1FE20FF31FA080B180C5017B
:1004C0000E940902892BF9F00C5F1E4FF801F0829F
:1004D00080E190E00E94FF01892B21F064E06F0D24
:1004E000F801608380E290E00E94FF01892B21F0F7
:1004F000F8018081885F8083F80180811F928F934B
:1005000082E891E00DC0C5010E941D02892BC9F04F
:10051000F801EC5FFE4F80811F928F938BE891E092
:100520009F938F931F9289E08F93DF92EF920E94A7
:1005300018050FB6F894DEBF0FBECDBF03C08FEF16
:1005400001C080E028960FB6F894DEBF0FBECDBF85
:10055000DF91CF911F910F91FF90EF90DF90BF90AF
:10056000AF900895CF93DF93E7E2F2E0908123B15B
:100570002095292780910301822380958093030190
:10058000909102019223982790930201822389235C
:100590009081982790839081C9E2D2E028819823A6
:1005A000922B98832081A5E2B2E09C912095822332
:1005B000892B8C93918126B1209529278091010167
:1005C00082238095809301019091000192239827C6
:1005D00090930001822389239181982791839181AF
:1005E00029819823922B9983218111969C911197AF
:1005F00020958223892B11968C93DF91CF910895BA
:1006000087E480937C00EAE7F0E08EEA8083109232
:100610007B00808180648083089580919B01089590
:1006200010929B01089580919A0108951F920F9254
:100630000FB60F9211242F933F935F936F937F9385
:100640008F939F93AF93BF9320917800309179005F
:1006500080919D0190919E01820F931F90939E0126
:1006600080939D0120919C012F5F203118F42093ED
:100670009C0115C010929C0161E870E00E94040585
:100680008EE7861B90919A01891729F091E090934B
:100690009B0180939A0110929E0110929D01BF913F
:1006A000AF919F918F917F916F915F913F912F912A
:1006B0000F900FBE0F901F901895EBE2F2E084E0D0
:1006C000828388E0858380E280878CE28AB90895FE
:1006D00081E080930901089582E084BD94E297BD92
:1006E00095E095BD80936E0008951F920F920FB60E
:1006F0000F9211242F933F934F935F936F937F93A8
:100700008F939F93AF93BF93CF93DF93EF93FF9319
:1007100080910801815080930801811129C0809146
:100720000B01815080930B0181111FC080912D021C
:100730002091300290913302822B892B8BB985B79F
:10074000806685BF8F7D85BF83B7817F846083BFCF
:1007500083B7816083BF85B7806685BF8F7D85BF86
:100760007894889583B78E7F83BF84E68093080151
:1007700080910A01882329F080910A018150809399
:100780000A010E94B20280910901882371F010923F
:10079000A20110929F011092A3011092A001109249
:1007A000A4011092A10110920901A2EAB1E0CFE9DF
:1007B000D1E080E090E041E02C9121110DC0FC01DE
:1007C000EE0FFF1FE80FF91FE55DFD4F22813BB1E2
:1007D000232B2BB94C9304C021502C93222379F363
:1007E0002881211117C0FC01EE0FFF1FE80FF91F30
:1007F000E55DFD4F22813BB1209523232BB921815B
:10080000288320812C93222349F022813BB1232B82
:100810002BB904C021502883222329F30196119675
:1008200021968330910541F6FF91EF91DF91CF91B1
:10083000BF91AF919F918F917F916F915F914F91F8
:100840003F912F910F900FBE0F901F901895CF934F
:10085000DF93CDB7DEB72A970FB6F894DEBF0FBE91
:10086000CDBF8091640084608093640080916400B7
:10087000806880936400809164008F7D8093640021
:1008800092E080E80FB6F894809361009093610045
:100890000FBE8BE385B98FE188B90E9400030E94E7
:1008A00062000E945D030E946C0378948E010F5FCA
:1008B0001F4F8AE2C82E81E0D82E9AE0E92E2FE160
:1008C000A22E21E0B22E34E1832E31E0932E772444
:1008D00073944AEF642E0E941D0183E090E00E9411
:1008E0000902892B21F480910A0181112EC00E94F6
:1008F0001303F82E82E090E00E94FF01892B29F07B
:100900001F92FF929F928F920FC081E090E00E9411
:10091000FF01892B29F01F92FF92BF92AF9204C072
:100920001F92FF92DF92CF921F92EF921F930F932D
:100930000E9418050FB6F894DEBF0FBECDBF69E068
:10094000C8010E94700060920A010E940D03882372
:1009500039F00E9413030E94A20081110E9410032B
:1009600080E091E00E940902892B29F067E085E38D
:1009700091E00E94700080E091E00E941D02892BAE
:1009800029F067E08DE391E00E947000FF24F3946A
:100990006F2DC8010E943102181624F4682FC80177
:1009A0000E947000F39495E0F912F2CF88E090E095
:1009B0000E940902892B99F01092940180E390E043
:1009C0000E94FF01892B31F07092940169E085E467
:1009D00091E003C06AE08FE491E00E94700088E03B
:1009E00090E00E941D02892B09F475CF809194013B
:1009F000882321F069E08AE591E003C06AE084E69B
:100A000091E00E94700067CFAA1BBB1B51E107C099
:100A1000AA1FBB1FA617B70710F0A61BB70B881F8E
:100A2000991F5A95A9F780959095BC01CD0108951D
:100A3000AEE0B0E0EEE1F5E00C94080B0D891E8904
:100A40008F89988D26E02C831A83098397FF02C033
:100A500080E090E801979E838D83AE01455E5F4FF5
:100A6000698D7A8DCE0101960E9461054D815E816E
:100A700057FD0AC02F813885421753070CF49A019D
:100A8000F801E20FF31F10822E96E4E00C94240B81
:100A9000AEE0B0E0EEE4F5E00C940A0B8DE08C8360
:100AA0008B899C899A838983AE01495E5F4F6D89EA
:100AB0007E89CE0101960E94B3082E96E2E00C9446
:100AC000260BACE0B0E0E7E6F5E00C94FA0A7C0116
:100AD0006B018A01FC0117821682838181FFBDC1EF
:100AE000CE0101964C01F7019381F60193FD8591AA
:100AF00093FF81916F01882309F4ABC1853239F4EA
:100B000093FD859193FF81916F01853229F4B7019F
:100B100090E00E94480AE7CF512C312C20E020328F
:100B2000A0F48B3269F030F4803259F0833269F4EA
:100B300020612CC08D3239F0803339F4216026C019
:100B40002260246023C0286021C027FD27C030ED2B
:100B5000380F3A3078F426FF06C0FAE05F9E300D79
:100B60001124532E13C08AE0389E300D1124332EE9
:100B700020620CC08E3221F426FD6BC1206406C0B9
:100B80008C3611F4206802C0883641F4F60193FDDA
:100B9000859193FF81916F018111C1CF982F9F7D26
:100BA0009554933028F40C5F1F4FFFE3F9830DC079
:100BB000833631F0833771F0833509F05BC022C092
:100BC000F801808189830E5F1F4F44244394512C88
:100BD000540115C03801F2E06F0E711CF801A080BD
:100BE000B18026FF03C0652D70E002C06FEF7FEF7C
:100BF000C5012C870E94FF092C0183012C852F77CA
:100C0000222E17C03801F2E06F0E711CF801A0808F
:100C1000B18026FF03C0652D70E002C06FEF7FEF4B
:100C2000C5012C870E94F4092C012C852068222EF6
:100C3000830123FC1BC0832D90E048165906B0F4B5
:100C4000B70180E290E00E94480A3A94F4CFF5019F
:100C500027FC859127FE81915F01B70190E00E94FA
:100C6000480A31103A94F1E04F1A510841145104E6
:100C700071F7E5C0843611F0893639F5F80127FFA0
:100C800007C060817181828193810C5F1F4F08C012
:100C900060817181882777FD8095982F0E5F1F4FA7
:100CA0002F76722E97FF09C090958095709561956B
:100CB0007F4F8F4F9F4F2068722E2AE030E0A401B3
:100CC0000E94990AA82EA81844C0853729F42F7EBF
:100CD000B22E2AE030E025C0F22FF97FBF2E8F36EA
:100CE000C1F018F4883579F0B4C0803719F088372E
:100CF00021F0AFC02F2F2061B22EB4FE0DC08B2D7E
:100D00008460B82E09C024FF0AC09F2F9660B92EB8
:100D100006C028E030E005C020E130E002C020E15C
:100D200032E0F801B7FE07C0608171818281938152
:100D30000C5F1F4F06C06081718180E090E00E5F04
:100D40001F4FA4010E94990AA82EA818FB2DFF7717
:100D50007F2E76FE0BC0372D3E7FA51450F474FE17
:100D60000AC072FC08C0372D3E7E05C0BA2C372D54
:100D700003C0BA2C01C0B52C34FF0DC0FE01EA0D32
:100D8000F11D8081803311F4397E09C032FF06C025
:100D9000B394B39404C0832F867809F0B39433FDE1
:100DA00013C030FF06C05A2CB31418F4530C5B1850
:100DB000B32CB31468F4B70180E290E03C870E9442
:100DC000480AB3943C85F5CFB31410F43B1801C026
:100DD000312C34FF12C0B70180E390E03C870E94C1
:100DE000480A3C8532FF17C031FD03C088E790E018
:100DF00002C088E590E0B7010CC0832F867859F0D7
:100E000031FF02C08BE201C080E237FD8DE2B70105
:100E100090E00E94480AA51438F4B70180E390E0FE
:100E20000E94480A5A94F7CFAA94F401EA0DF11DE2
:100E30008081B70190E00E94480AA110F5CF3320CD
:100E400009F451CEB70180E290E00E94480A3A943A
:100E5000F6CFF7018681978102C08FEF9FEF2C9626
:100E6000E2E10C94160B20FD09C0FC0123FD05C036
:100E700022FF02C07383628351834083089544FD3F
:100E800010C046FD10C0DB01FC01AA0FBB1FEE1F06
:100E9000FF1F1094D1F76A0F7B1F8E1F9F1F31E039
:100EA00003C033E001C034E0660F771F881F991F2D
:100EB0003150D1F7620F711D811D911D08950F935F
:100EC0001F93CF93DF938C01C8010E940A0AEC01A3
:100ED00097FD08C00E94E109892BB1F7B801CE0146
:100EE0000E94800ACE01DF91CF911F910F9108954A
:100EF000A1E0B0E0EEE7F7E00C94000B8C01C62E09
:100F00007A0129830E940A0AAC01552729814B32B4
:100F1000510521F04D32510569F42068CA94C11081
:100F200002C080E076C0C80129830E940A0A298194
:100F300097FDF7CF322F3D7FD32E322F307349F5F7
:100F4000803339F5BB24BA94BC0C09F44EC0C801F7
:100F500029830E940A0A298197FD47C0382F3F7DC7
:100F6000383569F48D2D8264D82ECA94CA94CC2069
:100F7000E1F1C8010E940A0A97FF0BC036C026FFA4
:100F800004C02D2D2260D22E03C03D2D3261D32E00
:100F9000CB2C812C912C540120ED280F283080F08F
:100FA000D4FE04C0B8010E94800A1CC02A3040F060
:100FB000D6FEF8CF2F7D3FEE320F363098F7275010
:100FC0004D2DC501B4010E943F074B015C018D2DE1
:100FD0008260D82ECA94CC2059F0C8010E940A0A17
:100FE00097FFDACFD1FC04C09CCF812C912C540107
:100FF000D7FE08C0B094A09490948094811C911C5A
:10100000A11CB11C2D2DB501A401C7010E943307FD
:1010100081E02196ECE00C941C0BA1E2B0E0E3E14E
:10102000F8E00C94FE0A5C017A01CE0101966C0195
:1010300080E2F60111928A95E9F7F501838040E09C
:1010400050E0912C712C70E0A1E0B0E0F90183FC3C
:10105000859183FE81918F01982F9F01811103C09B
:1010600080E090E07CC08E3519F44115510549F1BE
:10107000E72FF0E0E417F5073CF48D3559F18D3298
:1010800019F4772001F103C0711001C0982E892F47
:101090008695869586958601080F111D892F877084
:1010A0003D0101C0660C8A95EAF7F8018081862926
:1010B0008083991559F0991510F49F5FE8CF9150EE
:1010C000E6CF71E004C07724739401C0712C4F5FA8
:1010D0005F4FBCCF772019F08E8180628E837111B3
:1010E00003C09924939416C0F6019E012F5D3F4FD3
:1010F000808180958193E217F307D1F7F2CFE11455
:10110000F10429F0F7018083C70101967C01615049
:10111000912CF9F0C50169A30E940A0A69A197FD03
:1011200016C0282F269526952695F601E20FF11D6B
:10113000208130E0AC014770552702C035952795D6
:101140004A95E2F720FDDBCFB5010E94800A91109D
:1011500087CFE114F10411F0F7011082C801A196C4
:10116000EEE00C941A0B4F925F927F928F929F92B7
:10117000AF92BF92CF92DF92EF92FF920F931F93A5
:10118000CF93DF931F92CDB7DEB76C012B015A01CD
:10119000FC0117821682712CF601F380F201F3FC38
:1011A0008591F3FE8191382F2F01882309F4F3C034
:1011B00090E039830E94E1093981892B21F0C60131
:1011C0000E945F07E9CF353241F4F201F3FC35911B
:1011D000F3FE31912F01353269F4C60139830E9443
:1011E0000A0A398197FDD5C03817B1F2B6010E94BD
:1011F000800AD1C03A3239F4F3FC3591F3FE3191D3
:101200002F0151E001C050E0420110E020ED230F1A
:101210002A3090F45260612F70E080E090E040E26C
:1012200059830E943F07162FF401F3FC3591F3FE1A
:1012300031914F015981EACF052F232F240151FF0E
:1012400003C0111102C0A7C01FEF383619F03C3699
:1012500059F011C0F401F3FC2591F3FE21912F0107
:10126000283649F4052F08600460F201F3FC25914B
:10127000F3FE21912F01222309F48DC0622F70E02B
:1012800089E790E029830E94E9092981892B09F4E3
:1012900082C000FD07C0F501E080F180C501029623
:1012A0005C0102C0E12CF12C2E3651F4F60146818E
:1012B000578160E070E0202FC7010E9433076CCF98
:1012C000233691F401FF11E0C6010E940A0A97FD3E
:1012D00060C0E114F10429F0F7018083C701019691
:1012E0007C01115089F751C02B3559F49201A701A7
:1012F000612FC6010E940D082C01009709F045C01E
:101300003FC0C60129830E945F07298197FD41C024
:101310002F3659F128F4243631F1293649F127C006
:10132000233769F02537F9F022C0E114F10429F0E0
:10133000F7018082C70101967C01115071F0C6014E
:101340000E940A0A4C0197FD08C00E94E109892BFE
:1013500061F3B601C4010E94800AE114F104A9F00E
:10136000F701108212C0006203C0006101C0006476
:10137000202FA701612FC6010E947807811105C0A7
:10138000F6018381807329F406C000FD05CF7394B4
:1013900003CF772019F0872D90E002C08FEF9FEFE9
:1013A0000F90DF91CF911F910F91FF90EF90DF9001
:1013B000CF90BF90AF909F908F907F905F904F9015
:1013C0000895911114C1803219F089508550D0F7D9
:1013D0000895FC010590061621F00020D9F7C00100
:1013E00008953197CF010895FC0105906150704038
:1013F0000110D8F7809590958E0F9F1F0895FC01DE
:101400006150704001900110D8F7809590958E0F33
:101410009F1F0895CF93DF93EC012B8120FF33C0F2
:1014200026FF0AC02F7B2B838E819F8101969F838D
:101430008E838A8190E029C022FF0FC0E881F98164
:101440008081992787FD9095009719F420622B835E
:101450001AC03196F983E8830EC0EA85FB850995A9
:1014600097FF09C02B81019611F080E201C080E155
:10147000822B8B8308C02E813F812F5F3F4F3F839C
:101480002E83992702C08FEF9FEFDF91CF910895B0
:101490000F931F93CF93DF93FB01238121FD03C0A3
:1014A0008FEF9FEF28C022FF16C04681578124810D
:1014B00035814217530744F4A081B1819D012F5F0C
:1014C0003F4F318320838C93268137812F5F3F4F9D
:1014D0003783268310C0EB01092F182F0084F18574
:1014E000E02D0995892BE1F68E819F8101969F83DE
:1014F0008E83812F902FDF91CF911F910F910895AF
:10150000FB01238120FF12C026FD10C08F3F3FEF5B
:10151000930761F082832F7D2064238326813781A6
:101520002150310937832683992708958FEF9FEF44
:101530000895FA01AA27283051F1203181F1E89469
:101540006F936E7F6E5F7F4F8F4F9F4FAF4FB1E0B6
:101550003ED0B4E03CD0670F781F891F9A1FA11DB1
:10156000680F791F8A1F911DA11D6A0F711D811DB2
:10157000911DA11D20D009F468943F912AE0269F77
:1015800011243019305D3193DEF6CF010895462FD6
:101590004770405D4193B3E00FD0C9F7F6CF462FB7
:1015A0004F70405D4A3318F0495D31FD4052419320
:1015B00002D0A9F7EACFB4E0A695979587957795DD
:1015C0006795BA95C9F700976105710508959B0164
:1015D000AC010A2E06945795479537952795BA95ED
:1015E000C9F7620F731F841F951FA01D08959927C7
:1015F000882708952F923F924F925F926F927F9229
:101600008F929F92AF92BF92CF92DF92EF92FF9212
:101610000F931F93CF93DF93CDB7DEB7CA1BDB0BBE
:101620000FB6F894DEBF0FBECDBF09942A88398863
:1016300048885F846E847D848C849B84AA84B9846A
:10164000C884DF80EE80FD800C811B81AA81B98176
:10165000CE0FD11D0FB6F894DEBF0FBECDBFED018A
:061660000895F894FFCF8D
:10166600FFFFFFFF010203046401FA3C00020004CD
:1016760000080010533A253033753A460D0A0053D8
:101686003A253033753A520D0A00533A25303375F0
:101696003A450D0A0046305F444E0D0A0046305F5B
:1016A60055500D0A00434F4E465F444E0D0A004505
:1016B60053544F505F444E0D0A00434F4E465F55FC
:1016C600500D0A004553544F505F55500D0A004CBB
:1016D6004F4B0D0A004C4552520D0A004B4F4B0D15
:1016E6000A004625755F444E0D0A004625755F556E
:0416F600500D0A0089
:00000001FF
