:100000000C9443000C942E020C9460000C9460003D
:100010000C9460000C9460000C9460000C946000E0
:100020000C9460000C9460000C9460000C946000D0
:100030000C9460000C9460000C94CA050C949B0511
:100040000C9460000C9460000C94FF010C94F5007B
:100050000C9460000C94E0040C9460000C9460001C
:100060000C9460000C9460004C256868753A20255B
:100070006868752F25686875006364696E6F7073B2
:100080007578585B000011241FBECFEFD8E0DEBFAB
:10009000CDBF12E0A0E0B1E0E6E4FFE102C00590D0
:1000A0000D92AC33B107D9F712E0ACE3B2E001C076
:1000B0001D92AE3EB107E1F70E949E060C94A10F7F
:1000C0000C9400001092C00088E98093C10086E083
:1000D0008093C2001092C50081E08093C40008950F
:1000E0006150A0F0E0913F0221E02E0F20933F02EB
:1000F000F0E0DC012D91CD01E157FD4F20832091EF
:100100003F02203468F310923F02EACF8091C10091
:1001100085FD17C0E091400281E08E0F8093400280
:10012000F0E0E157FD4F80818093C600809140024E
:10013000803410F0109240028091C1008062809360
:10014000C1000895FF920F931F93CF93DF93CDB714
:10015000DEB72A970FB6F894DEBF0FBECDBF9091E1
:10016000C10095FD35C0F82E60E070E080E094E0BD
:100170000E9450028E010F5F1F4F672B682B692B67
:1001800029F01F92FF928CE391E00EC060E070E0D6
:1001900080E092E00E945002672B682B692B91F05F
:1001A0001F92FF9287E491E09F938F931F928AE0C2
:1001B0008F931F930F930E945F090FB6F894DEBFD1
:1001C0000FBECDBF69E0C8010E94700081E001C090
:1001D00080E02A960FB6F894DEBF0FBECDBFDF9148
:1001E000CF911F910F91FF9008951F920F920FB61C
:1001F0000F9211248F939F93EF93FF93909140025E
:1002000080913F02981799F0E091400281E08E0FB3
:1002100080934002F0E0E157FD4F80818093C6005B
:1002200080914002803440F01092400205C08091DD
:10023000C1008F7D8093C100FF91EF919F918F91BD
:100240000F900FBE0F901F901895EF92FF920F9393
:100250001F93CF93DF93CDB7DEB7C454D1090FB648
:10026000F894DEBF0FBECDBF80914102882309F410
:10027000B8C09FB7F89480914102815080934102A9
:100280009FBFDE01119620E0CD01E0913D02F0E03C
:10029000E15BFD4F30813D3019F1E0913D02F0E02E
:1002A000E15BFD4F30813A30D9F040913D02309111
:1002B0003E024317A9F02F3399F02F5FE0913D02E2
:1002C00031E03E0F30933D02F0E0E15BFD4F3081C5
:1002D0003D9330913D023034C0F210923D02D5CFB3
:1002E00030913D023F5F30933D0230913D0230340A
:1002F00010F010923D02FC01E20FF11D10827E0110
:1003000021E4E20EF11C97012F5F3F4F3F932F93A3
:10031000FF92EF928E010C5B1F4F1F930F9328E605
:1003200030E03F932F939F938F930E948F090FB6D6
:10033000F894DEBF0FBECDBF039799F5D801EC91BD
:100340008FEF8E0F833048F5F0E03197CF01880FA3
:10035000991FE80FF91FEB51FD4F9081D7018C9148
:10036000981304C0918111968C9198130E9489056D
:10037000D801EC91F0E03197D7018C919F01220FC9
:10038000331FE20FF31FEB51FD4F808311968C91C9
:10039000818365E087E092E022C066E08DE092E034
:1003A0001EC089818F34C1F48A8166E0863451F0A1
:1003B0008E3479F484E192E00E94700081E08093B1
:1003C00042020FC08BE192E00E9470001092420244
:1003D00008C082E292E003C065E08EE092E00E94F5
:1003E0007000CC5BDF4F0FB6F894DEBF0FBECDBF01
:1003F000DF91CF911F910F91FF90EF9008951F9281
:100400000F920FB60F9211248F939F93EF93FF9348
:100410008091C6008A3011F08D3029F4909141020C
:100420009F5F90934102E0913E0291E09E0F909376
:100430003E02F0E0E15BFD4F808380913E0280341C
:1004400010F010923E02FF91EF919F918F910F90CB
:100450000FBE0F901F901895E89A08951F920F9263
:100460000FB60F9211248F93EF93FF93E8988BB1FF
:10047000806F8BB988B18F6088B9EAE7F0E080813E
:100480008068808380818064808381E080931B0109
:10049000FF91EF918F910F900FBE0F901F901895C5
:1004A000CF92DF92EF92FF922FB7F894C090D302D1
:1004B000D090D402E090D502F090D6022FBF6C21EC
:1004C0007D218E219F21FF90EF90DF90CF900895A6
:1004D0000F931F934FB7F8940091D7021091D80251
:1004E0002091D9023091DA02602371238223932371
:1004F0000091D7021091D8022091D9023091DA02EE
:1005000006271727282739270093D7021093D802E8
:100510002093D9023093DA024FBF1F910F910895B3
:100520000F931F934FB7F8940091CF021091D00210
:100530002091D1023091D202602371238223932330
:100540000091CF021091D0022091D1023091D202BD
:1005500006271727282739270093CF021093D002A8
:100560002093D1023093D2024FBF1F910F91089573
:100570008F929F92AF92BF92CF92DF92FF920F9392
:100580001F93CF93DF93CDB7DEB7A0970FB6F89444
:10059000DEBF0FBECDBF20E2ECE1F1E0DE0111963F
:1005A00001900D922A95E1F72FEF260F283008F0E1
:1005B00053C0162FF92E082FC22ED12CA1E0B0E087
:1005C000AC0FBD1F34E0239FA00DB11D11248D90F1
:1005D0009D90AD90BC90C501B4010E946802672B4C
:1005E000682B692BD1F0C601865F9E4F6C01FC0120
:1005F000108360E070E088E090E00E945002672B7A
:10060000682B692B19F0185FF6011083F6018081C1
:100610001F928F9389E292E010C0C501B4010E943D
:100620009002672B682B692BC9F0F601E65FFE4F3D
:1006300080811F928F9382E392E09F938F931F920A
:1006400089E08F93FF920F930E945F090FB6F89491
:10065000DEBF0FBECDBF03C08FEF01C080E0A0960C
:100660000FB6F894DEBF0FBECDBFDF91CF911F91C3
:100670000F91FF90DF90CF90BF90AF909F908F90A1
:1006800008958091430280FD5EC084B1807F84B96B
:1006900087B1807F87B988B18F6088B98091430224
:1006A0008695813041F028F0823039F0833071F046
:1006B0001CC0209A1AC0219A18C08091ED0288238C
:1006C00011F03A9A01C04298229A0FC0239A809161
:1006D000E702882311F0389A01C040988091EA021D
:1006E000882311F03B9A01C0439880914302811105
:1006F0005AC08091D30229B12827207F8091090117
:100700008223809580930901909104019223982778
:1007100090930401822389239091D3029827909388
:10072000D3029091D3022091D7029823922B9093D9
:10073000D7022091D3029091CF0220958223892B5A
:100740008093CF0230C0869590E0FC01ED52FD4FC2
:10075000208146B12F70406F40954227DC01AB5F8E
:10076000BE4F2C91242320952C93DC01A050BF4F29
:100770003C91342332273C93242323233081322796
:1007800030833081DC01A952BD4F4C913223342B90
:100790003C933081FC01E153FD4F8081932F909574
:1007A0002923282B2083809143028F5F883018F4FF
:1007B000809343020895109243020895CF93DF93EC
:1007C0008091E3028823C9F18FB7F8942091DF026A
:1007D0003091E0028FBFC091DB02D091DC02CE01EC
:1007E000A0E0B0E0BC01CD01EEE0660F771F881FEE
:1007F000991FEA95D1F740E050E00E943D093093FF
:1008000016012093150129363041A8F0C538E3E0E0
:10081000DE0758F0BE01615071097093DC026093ED
:10082000DB0284E090E00E942E0E88E690E1909337
:100830001601809315011092E3028091E40288234F
:1008400009F473C0459905C01092E4021092440265
:100850006CC08FB7F894C091DF02D091E0028FBFD7
:100860008091DD029091DE02C817D90748F4D09339
:10087000DE02C093DD02BE0182E090E00E942E0EF7
:100880008091E1029091E2028C179D0748F4D09389
:10089000E202C093E102BE0180E090E00E942E0ED1
:1008A0008091E1029091E2022091DD023091DE021E
:1008B000AC01421B530B652F7727FE01E21BF30BA4
:1008C0009F01E617F707A0F0861B970B8E179F076F
:1008D00078F08091130190911401FB01E20FF31F56
:1008E000E817F90728F0860F971F82179307D8F4A7
:1008F0003093140120931301AFE7B0E00E942E095A
:100900009A0140E050E00E943D092F3708F02EE7A1
:100910008EE7821B90914402891729F091E0909311
:100920004502809344021092E402DF91CF91089532
:1009300087E480937C00EAE7F0E08EE88083109201
:100940007B008081806480833D9A84E090E00E94F7
:10095000280E9093DC028093DB0282E090E00E94FC
:10096000280E9093DE028093DD0280E090E00E94EA
:10097000280E9093E2028093E1020895809145024F
:1009800008951092450208958091440208952FB76A
:10099000F89480911501909116012FBF0895BC0124
:1009A00084E090E00C942E0E60E070E482E090E031
:1009B0000E942E0E60E070E480E090E00C942E0E19
:1009C0001F920F920FB60F9211242F933F934F93C4
:1009D0005F938F939F939091120180914602992388
:1009E00041F1409178005091790020914702309177
:1009F0004802240F351F30934802209347028F5F2F
:100A000080934602803208F442C03093E002209383
:100A1000DF0281E08093E4021092460210924802C5
:100A2000109247021092120180917C00807F8E60AC
:100A30002CC0803170F02091780030917900409185
:100A4000470250914802240F351F309348022093EB
:100A500047028F5F809346028032C8F08091470240
:100A6000909148029093E0028093DF0281E08093AE
:100A7000E3021092460210924802109247028093BD
:100A8000120180917C00807F876080937C00809140
:100A90007A00806480937A009F918F915F914F914B
:100AA0003F912F910F900FBE0F901F90189584B11A
:100AB000806384B93C9A0895813031F018F0823017
:100AC00029F008952C9803C02D9801C0449890E017
:100AD000FC01EE0FFF1F8E0F9F1FFC01EB51FD4F1E
:100AE00081E082830895813031F018F0823029F05E
:100AF00008952C9A03C02D9A01C0449A90E0FC01FD
:100B0000EE0FFF1F8E0F9F1FFC01EB51FD4F128256
:100B1000089581E080931801089582E084BD84E205
:100B200087BD87B58695869588BD85E085BD86E0BD
:100B300080936E0008951F920F920FB60F921124AA
:100B40002F933F934F935F936F937F938F939F93D5
:100B5000AF93BF93EF93FF9398B587B5981708F0BD
:100B600018BC87B598B586958695890F88BD0E9473
:100B70004103FF91EF91BF91AF919F918F917F9131
:100B80006F915F914F913F912F910F900FBE0F90FA
:100B90001F9018951F920F920FB60F921124CF92AB
:100BA000DF92EF92FF920F931F932F933F934F93F8
:100BB0005F936F937F938F939F93AF93BF93CF93E5
:100BC000DF93EF93FF93809117018150809317017A
:100BD000811142C080911B01815080931B018111C2
:100BE0002FC00E94730581E00E94730582E00E947D
:100BF00073058BB18F708BB988B1807F88B95B9892
:100C000010924202459880917A008F7780937A0003
:100C10008091C100877F8093C1000E942C0283B71E
:100C2000817F846083BF83B7816083BF85B780661F
:100C300085BF8F7D85BF7894889583B78E7F83BF6E
:100C400080911A01882329F080911A0181508093A4
:100C50001A0184E68093170180911901882329F0F5
:100C60008091190181508093190180911801882386
:100C700071F010924C021092490210924D021092A3
:100C80004A0210924E0210924B02109218010CE48C
:100C900012E099E4E92E92E0F92EC0E0D0E0CC24F5
:100CA000C394DC2ED8019C91911106C08D2D0E9419
:100CB0007305F801C08205C09150D8019C93992317
:100CC000A9F3F7019081911113C0FE01EE0FFF1FF0
:100CD000EC0FFD1FEB51FD4F8181D7018C9380817B
:100CE000F8018083882341F08D2D0E945C0504C0AB
:100CF00091509083992349F321960F5F1F4FBFEFC7
:100D0000EB1AFB0AC330D10561F6FF91EF91DF9139
:100D1000CF91BF91AF919F918F917F916F915F9193
:100D20004F913F912F911F910F91FF90EF90DF9086
:100D3000CF900F900FBE0F901F901895CF93DF9319
:100D4000CDB7DEB72A970FB6F894DEBF0FBECDBF82
:100D50008091640084608093640080916400806866
:100D600080936400809164008F7D8093640092E0A2
:100D700080E80FB6F89480936100909361000FBEF5
:100D80008FE088B984EF8BB9539A0E9498040E942F
:100D900062000E9457050E948D0578948091DB02C5
:100DA0009091DC02019609F046C082E38093EB0249
:100DB00084E68093EC028093E6028093E9020E942D
:100DC00089055B9A80EB94E00E94CF0480EB94E06D
:100DD0009093DC028093DB020E94D40412E0B8E01E
:100DE000FB2E02E3F0921B016FEF7FE08BE096E0B9
:100DF0000E946802672B682B692BA1F3812F90E07A
:100E0000FC01EE0FFF1F8E0F9F1FFC01EB51FD4FEA
:100E100010821F5F133009F410E0812F90E0FC0175
:100E2000EE0FFF1F8E0F9F1FFC01EB51FD4F008344
:100E30000E948905D7CF8E010F5F1F4F9AE6C92EFA
:100E400091E0D92E22E5A22E21E0B22E3AE0E32E47
:100E500047E4842E41E0942E5CE3652E51E0752E2C
:100E60006AEF562E4424439482E0382E0E942501D6
:100E70000E94DE0360E070E080E096E00E9468027D
:100E8000672B682B692B21F48091190181115FC0B8
:100E90000E94C404F82E60E070E080E094E00E94BC
:100EA0005002672B682B692B29F01F92FF927F92CB
:100EB0006F9213C060E070E080E092E00E94500208
:100EC000672B682B692B29F01F92FF929F928F92BC
:100ED00004C01F92FF92BF92AF921F92EF921F9396
:100EE0000F930E945F090FB6F894DEBF0FBECDBF0F
:100EF00069E0C8010E9470000E94C70488349D40C8
:100F000020F466E08DE591E003C065E084E691E0C1
:100F10000E9470000E94C7049F938F93DF92CF922C
:100F20001F9289E08F931F930F930E945F0968E0DF
:100F3000C8010E94700065E183E791E00E947000A3
:100F4000509219010FB6F894DEBF0FBECDBF0E94BC
:100F5000BE04882339F00E94C4040E94A2008111BB
:100F60000E94C10460E071E080E090E00E946802AD
:100F7000672B682B692B29F067E089E891E00E94D4
:100F8000700060E071E080E090E00E949002672BCA
:100F9000682B692B29F067E081E991E00E947000DD
:100FA000FF24F3946F2DC8010E94B802181624F490
:100FB000682FC8010E947000F39499E0F912F2CFF3
:100FC00068E070E080E090E00E946802672B682B88
:100FD000692BB9F010923C0260E070E088E090E08C
:100FE0000E945002672B682B692B31F040923C0223
:100FF00069E089E991E003C06AE083EA91E00E9438
:10100000700068E070E080E090E00E949002672B42
:10101000682B692B69F080913C02882321F069E0FC
:101020008EEA91E003C06AE088EB91E00E947000D4
:1010300080914202882309F4C8C060E870E080E033
:1010400090E00E949002672B682B692B79F060E892
:1010500070E080E090E00E945002672B682B692BC3
:1010600029F465E083EC91E00E94700060E470E098
:1010700080E090E00E949002672B682B692B79F04A
:1010800060E470E080E090E00E945002672B682BE3
:10109000692B29F465E089EC91E00E94700060E220
:1010A00070E080E090E00E949002672B682B692B33
:1010B00079F060E270E080E090E00E945002672BDF
:1010C000682B692B29F465E08FEC91E00E94700099
:1010D00060E170E080E090E00E949002672B682B56
:1010E000692B79F060E170E080E090E00E945002AE
:1010F000672B682B692B29F465E085ED91E00E9450
:10110000700060E870E080E090E00E946802672B69
:10111000682B692B79F060E870E080E090E00E9435
:101120005002672B682B692B29F065E08BED91E06D
:101130000E94700060E470E080E090E00E9468022D
:10114000672B682B692B79F060E470E080E090E019
:101150000E945002672B682B692B29F065E081EE15
:1011600091E00E94700060E270E080E090E00E94F8
:101170006802672B682B692B79F060E270E080E0F1
:1011800090E00E945002672B682B692B29F065E0E4
:1011900087EE91E00E94700060E170E080E090E0F6
:1011A0000E946802672B682B692B79F060E170E080
:1011B00080E090E00E945002672B682B692B29F099
:1011C00065E08DEE91E00E94700060EF70E080E0DD
:1011D00090E00E945002672B682B692B49F10E9416
:1011E000C70489349D4038F05B9A459A8091C100CC
:1011F00088608093C1000E94C704853E9C4030F007
:1012000088E080931B0130921A0112C080911A016C
:1012100081110EC068E083EF91E00E9470008FEFB3
:101220009FE726E1815090402040E1F700C0000098
:1012300080911B01882341F05B9918CE81E0809357
:10124000EB025092EC020ECE6AE08CEF91E00E942D
:10125000700080911B018823E1F3EECFA29FB001C3
:10126000B39FC001A39F700D811D1124911DB29FDA
:10127000700D811D1124911D0895A1E21A2EAA1B43
:10128000BB1BFD010DC0AA1FBB1FEE1FFF1FA21736
:10129000B307E407F50720F0A21BB30BE40BF50B33
:1012A000661F771F881F991F1A9469F760957095BC
:1012B000809590959B01AC01BD01CF010895AEE0F2
:1012C000B0E0E5E6F9E00C94780F0D891E898F896E
:1012D000988D26E02C831A83098397FF02C080E053
:1012E00090E801979E838D83AE01455E5F4F698DC7
:1012F0007A8DCE0101960E94A8094D815E8157FD2D
:101300000AC02F813885421753070CF49A01F8015F
:10131000E20FF31F10822E96E4E00C94940FAEE0DF
:10132000B0E0E5E9F9E00C947A0F8DE08C838B89CD
:101330009C899A838983AE01495E5F4F6D897E895E
:10134000CE0101960E94FA0C2E96E2E00C94960FC4
:10135000ACE0B0E0EEEAF9E00C946A0F7C016B01BE
:101360008A01FC0117821682838181FFBDC1CE01F3
:1013700001964C01F7019381F60193FD859193FF4E
:1013800081916F01882309F4ABC1853239F493FD53
:10139000859193FF81916F01853229F4B70190E027
:1013A0000E949A0EE7CF512C312C20E02032A0F47D
:1013B0008B3269F030F4803259F0833269F4206165
:1013C0002CC08D3239F0803339F4216026C0226080
:1013D000246023C0286021C027FD27C030ED380FCE
:1013E0003A3078F426FF06C0FAE05F9E300D1124F3
:1013F000532E13C08AE0389E300D1124332E206204
:101400000CC08E3221F426FD6BC1206406C08C36E0
:1014100011F4206802C0883641F4F60193FD8591ED
:1014200093FF81916F018111C1CF982F9F7D9554BA
:10143000933028F40C5F1F4FFFE3F9830DC0833610
:1014400031F0833771F0833509F05BC022C0F801B9
:10145000808189830E5F1F4F44244394512C540193
:1014600015C03801F2E06F0E711CF801A080B18048
:1014700026FF03C0652D70E002C06FEF7FEFC5014E
:101480002C870E94510E2C0183012C852F77222E50
:1014900017C03801F2E06F0E711CF801A080B18016
:1014A00026FF03C0652D70E002C06FEF7FEFC5011E
:1014B0002C870E94460E2C012C852068222E830149
:1014C00023FC1BC0832D90E048165906B0F4B701E9
:1014D00080E290E00E949A0E3A94F4CFF50127FC46
:1014E000859127FE81915F01B70190E00E949A0EDD
:1014F00031103A94F1E04F1A51084114510471F738
:10150000E5C0843611F0893639F5F80127FF07C0A8
:1015100060817181828193810C5F1F4F08C060815F
:101520007181882777FD8095982F0E5F1F4F2F764A
:10153000722E97FF09C090958095709561957F4FA9
:101540008F4F9F4F2068722E2AE030E0A4010E9446
:10155000EB0EA82EA81844C0853729F42F7EB22E92
:101560002AE030E025C0F22FF97FBF2E8F36C1F080
:1015700018F4883579F0B4C0803719F0883721F035
:10158000AFC02F2F2061B22EB4FE0DC08B2D846012
:10159000B82E09C024FF0AC09F2F9660B92E06C03E
:1015A00028E030E005C020E130E002C020E132E078
:1015B000F801B7FE07C060817181828193810C5F61
:1015C0001F4F06C06081718180E090E00E5F1F4F69
:1015D000A4010E94EB0EA82EA818FB2DFF777F2EEA
:1015E00076FE0BC0372D3E7FA51450F474FE0AC062
:1015F00072FC08C0372D3E7E05C0BA2C372D03C0C3
:10160000BA2C01C0B52C34FF0DC0FE01EA0DF11D4E
:101610008081803311F4397E09C032FF06C0B39453
:10162000B39404C0832F867809F0B39433FD13C0BC
:1016300030FF06C05A2CB31418F4530C5B18B32CAB
:10164000B31468F4B70180E290E03C870E949A0EE0
:10165000B3943C85F5CFB31410F43B1801C0312C82
:1016600034FF12C0B70180E390E03C870E949A0EDD
:101670003C8532FF17C031FD03C088E790E002C00F
:1016800088E590E0B7010CC0832F867859F031FFD0
:1016900002C08BE201C080E237FD8DE2B70190E02D
:1016A0000E949A0EA51438F4B70180E390E00E94DE
:1016B0009A0E5A94F7CFAA94F401EA0DF11D808195
:1016C000B70190E00E949A0EA110F5CF332009F4E3
:1016D00051CEB70180E290E00E949A0E3A94F6CF84
:1016E000F7018681978102C08FEF9FEF2C96E2E190
:1016F0000C94860F20FD09C0FC0123FD05C022FFCC
:1017000002C07383628351834083089544FD10C0F7
:1017100046FD10C0DB01FC01AA0FBB1FEE1FFF1F1F
:101720001094D1F76A0F7B1F8E1F9F1F31E003C0FB
:1017300033E001C034E0660F771F881F991F3150D6
:10174000D1F7620F711D811D911D08950F931F9395
:10175000CF93DF938C01C8010E945C0EEC0197FDD2
:1017600008C00E94330E892BB1F7B801CE010E9448
:10177000D20ECE01DF91CF911F910F910895A1E07C
:10178000B0E0E5ECFBE00C94700F8C01C62E7A0102
:1017900029830E945C0EAC01552729814B325105EB
:1017A00021F04D32510569F42068CA94C11002C07D
:1017B00080E076C0C80129830E945C0E298197FDD4
:1017C000F7CF322F3D7FD32E322F307349F5803340
:1017D00039F5BB24BA94BC0C09F44EC0C801298366
:1017E0000E945C0E298197FD47C0382F3F7D383518
:1017F00069F48D2D8264D82ECA94CA94CC20E1F16C
:10180000C8010E945C0E97FF0BC036C026FF04C0C3
:101810002D2D2260D22E03C03D2D3261D32ECB2C34
:10182000812C912C540120ED280F283080F0D4FE1B
:1018300004C0B8010E94D20E1CC02A3040F0D6FE6F
:10184000F8CF2F7D3FEE320F363098F727504D2DD1
:10185000C501B4010E94860B4B015C018D2D826095
:10186000D82ECA94CC2059F0C8010E945C0E97FF74
:10187000DACFD1FC04C09CCF812C912C5401D7FE2F
:1018800008C0B094A09490948094811C911CA11CD9
:10189000B11C2D2DB501A401C7010E947A0B81E076
:1018A0002196ECE00C948C0FA1E2B0E0EAE5FCE0BC
:1018B0000C946E0F5C017A01CE0101966C0180E2FE
:1018C000F60111928A95E9F7F501838040E050E036
:1018D000912C712C70E0A1E0B0E0F90183FC8591BE
:1018E00083FE81918F01982F9F01811103C080E0B9
:1018F00090E07CC08E3519F44115510549F1E72F70
:10190000F0E0E417F5073CF48D3559F18D3219F408
:10191000772001F103C0711001C0982E892F8695A0
:10192000869586958601080F111D892F87703D01C8
:1019300001C0660C8A95EAF7F801808186298083C8
:10194000991559F0991510F49F5FE8CF9150E6CFA3
:1019500071E004C07724739401C0712C4F5F5F4F16
:10196000BCCF772019F08E8180628E83711103C005
:101970009924939416C0F6019E012F5D3F4F8081FC
:1019800080958193E217F307D1F7F2CFE114F104C8
:1019900029F0F7018083C70101967C016150912CE9
:1019A000F9F0C50169A30E945C0E69A197FD16C0FC
:1019B000282F269526952695F601E20FF11D208108
:1019C00030E0AC014770552702C0359527954A9500
:1019D000E2F720FDDBCFB5010E94D20E911087CF38
:1019E000E114F10411F0F7011082C801A196EEE0B4
:1019F0000C948A0F4F925F927F928F929F92AF9238
:101A0000BF92CF92DF92EF92FF920F931F93CF93EB
:101A1000DF931F92CDB7DEB76C012B015A01FC0199
:101A200017821682712CF601F380F201F3FC859186
:101A3000F3FE8191382F2F01882309F4F3C090E041
:101A400039830E94330E3981892B21F0C6010E940F
:101A5000A60BE9CF353241F4F201F3FC3591F3FEE8
:101A600031912F01353269F4C60139830E945C0E31
:101A7000398197FDD5C03817B1F2B6010E94D20E58
:101A8000D1C03A3239F4F3FC3591F3FE31912F0194
:101A900051E001C050E0420110E020ED230F2A3058
:101AA00090F45260612F70E080E090E040E2598352
:101AB0000E94860B162FF401F3FC3591F3FE319151
:101AC0004F015981EACF052F232F240151FF03C075
:101AD000111102C0A7C01FEF383619F03C3659F07B
:101AE00011C0F401F3FC2591F3FE21912F0128365A
:101AF00049F4052F08600460F201F3FC2591F3FE20
:101B000021912F01222309F48DC0622F70E089E713
:101B100090E029830E943B0E2981892B09F482C021
:101B200000FD07C0F501E080F180C50102965C016F
:101B300002C0E12CF12C2E3651F4F601468157817A
:101B400060E070E0202FC7010E947A0B6CCF233633
:101B500091F401FF11E0C6010E945C0E97FD60C088
:101B6000E114F10429F0F7018083C70101967C019B
:101B7000115089F751C02B3559F49201A701612FFB
:101B8000C6010E94540C2C01009709F045C03FC0CB
:101B9000C60129830E94A60B298197FD41C02F36DB
:101BA00059F128F4243631F1293649F127C0233779
:101BB00069F02537F9F022C0E114F10429F0F701AA
:101BC0008082C70101967C01115071F0C6010E940C
:101BD0005C0E4C0197FD08C00E94330E892B61F307
:101BE000B601C4010E94D20EE114F104A9F0F7017C
:101BF000108212C0006203C0006101C00064202F87
:101C0000A701612FC6010E94BF0B811105C0F6011B
:101C10008381807329F406C000FD05CF739403CF40
:101C2000772019F0872D90E002C08FEF9FEF0F9083
:101C3000DF91CF911F910F91FF90EF90DF90CF90A8
:101C4000BF90AF909F908F907F905F904F9008953E
:101C5000A8E1B0E042E050E00C944B0F0E94590F15
:101C6000272F0C945A0F911132C1803219F08950EC
:101C70008550D0F70895FC010590061621F000204C
:101C8000D9F7C00108953197CF010895FC0105905F
:101C9000615070400110D8F7809590958E0F9F1F6E
:101CA0000895FC016150704001900110D8F78095B3
:101CB00090958E0F9F1F0895CF93DF93EC012B819A
:101CC00020FF33C026FF0AC02F7B2B838E819F818C
:101CD00001969F838E838A8190E029C022FF0FC0E6
:101CE000E881F9818081992787FD9095009719F403
:101CF00020622B831AC03196F983E8830EC0EA85EF
:101D0000FB85099597FF09C02B81019611F080E2B0
:101D100001C080E1822B8B8308C02E813F812F5F21
:101D20003F4F3F832E83992702C08FEF9FEFDF91B4
:101D3000CF9108950F931F93CF93DF93FB012381DE
:101D400021FD03C08FEF9FEF28C022FF16C0468100
:101D50005781248135814217530744F4A081B18112
:101D60009D012F5F3F4F318320838C9326813781E4
:101D70002F5F3F4F3783268310C0EB01092F182FA9
:101D80000084F185E02D0995892BE1F68E819F81F4
:101D900001969F838E83812F902FDF91CF911F918A
:101DA0000F910895FB01238120FF12C026FD10C072
:101DB0008F3F3FEF930761F082832F7D2064238361
:101DC0002681378121503109378326839927089549
:101DD0008FEF9FEF0895FA01AA27283051F12031A3
:101DE00081F1E8946F936E7F6E5F7F4F8F4F9F4FAF
:101DF000AF4FB1E03ED0B4E03CD0670F781F891FF1
:101E00009A1FA11D680F791F8A1F911DA11D6A0FBE
:101E1000711D811D911DA11D20D009F468943F9171
:101E20002AE0269F11243019305D3193DEF6CF0170
:101E30000895462F4770405D4193B3E00FD0C9F736
:101E4000F6CF462F4F70405D4A3318F0495D31FDA3
:101E50004052419302D0A9F7EACFB4E0A6959795F6
:101E6000879577956795BA95C9F7009761057105CC
:101E700008959B01AC010A2E069457954795379516
:101E80002795BA95C9F7620F731F841F951FA01D70
:101E90000895DC01CB01FC01F999FECF06C0F2BD2B
:101EA000E1BDF89A319600B40D9241505040B8F718
:101EB0000895262FF999FECF1FBA92BD81BD20BD8E
:101EC0000FB6F894FA9AF99A0FBE019608959927D9
:101ED000882708952F923F924F925F926F927F9240
:101EE0008F929F92AF92BF92CF92DF92EF92FF922A
:101EF0000F931F93CF93DF93CDB7DEB7CA1BDB0BD6
:101F00000FB6F894DEBF0FBECDBF09942A8839887A
:101F100048885F846E847D848C849B84AA84B98481
:101F2000C884DF80EE80FD800C811B81AA81B9818D
:101F3000CE0FD11D0FB6F894DEBF0FBECDBFED01A1
:061F40000895F894FFCFA4
:101F4600FFFFFFFFFFFFFFFFFFFF01020304050680
:101F56000708010040100E6401FA020801000000A3
:101F66000002000000000100020000000004000062
:101F7600000002000400000000080000533A25306B
:101F860033753A460D0A00533A253033753A520DE9
:101F96000A00533A253033753A450D0A00424C4F34
:101FA600570D0A00424F4B0D0A00563A253034753C
:101FB6000D0A0052323031392D30382D31382D612D
:101FC6003063346466310D0A0046305F444E0D0AB4
:101FD6000046305F55500D0A00434F4E465F444E53
:101FE6000D0A004553544F505F444E0D0A00434FAF
:101FF6004E465F55500D0A004553544F505F55509D
:102006000D0A002D4C310D0A002D4C320D0A002D03
:102016004C330D0A002D4C340D0A002B4C310D0AA1
:10202600002B4C320D0A002B4C330D0A002B4C347E
:102036000D0A0042454D5054590D0A005057525F43
:10204600444F574E0D0A004C4F4B0D0A004C45525B
:10205600520D0A004F4E4F4B0D0A004F464F4B0D87
:102066000A004F4552520D0A004625755F444E0D33
:0C2076000A004625755F55500D0A000059
:00000001FF
