:100000000C9443000C94B2010C9460000C946000BA
:100010000C9460000C9460000C9460000C946000E0
:100020000C9460000C9460000C9460000C946000D0
:100030000C9460000C9460000C9419040C94EA0376
:100040000C9460000C9460000C9483010C94A2004A
:100050000C9460000C9453030C9460000C946000AA
:100060000C9460000C9460004C256868753A20255B
:100070006868752F25686875006364696E6F7073B2
:100080007578585B000011241FBECFEFD8E0DEBFAB
:10009000CDBF11E0A0E0B1E0EAE1F9E102C00590D6
:1000A0000D92A63EB107D9F712E0A6EEB1E001C06D
:1000B0001D92AA38B107E1F70E94DD040C948B0C65
:1000C0000C9400001092C00088E98093C10086E083
:1000D0008093C2001092C50081E08093C40008950F
:1000E0006150A0F0E091E90121E02E0F2093E90199
:1000F000F0E0DC012D91CD01E85CFD4F20832091E3
:10010000E901203468F31092E901EACF8091C1003F
:1001100085FD17C0E091EA0181E08E0F8093EA012E
:10012000F0E0E85CFD4F80818093C6008091EA0199
:10013000803410F01092EA018091C10080628093B7
:10014000C10008951F920F920FB60F9211248F9342
:100150009F93EF93FF939091EA018091E9019817A3
:1001600099F0E091EA0181E08E0F8093EA01F0E0DE
:10017000E85CFD4F80818093C6008091EA01803465
:1001800040F01092EA0105C08091C1008F7D8093FC
:10019000C100FF91EF919F918F910F900FBE0F9033
:1001A0001F901895EF92FF920F931F93CF93DF93B9
:1001B000CDB7DEB7C354D1090FB6F894DEBF0FBE7A
:1001C000CDBF8091EB01882309F48FC09FB7F894CD
:1001D0008091EB0181508093EB019FBFDE0111966E
:1001E00020E0CD01E091E701F0E0E850FE4F3081E2
:1001F0003D3019F1E091E701F0E0E850FE4F308129
:100200003A30D9F04091E7013091E8014317A9F065
:100210002F3399F02F5FE091E70131E03E0F3093EB
:10022000E701F0E0E850FE4F30813D933091E70167
:100230003034C0F21092E701D5CF3091E7013F5F33
:100240003093E7013091E701303410F01092E7016C
:10025000FC01E20FF11D10828E010F5B1F4F980110
:100260002F5F3F4F3F932F931F930F937E0123E404
:10027000E20EF11CFF92EF9228E630E03F932F93BD
:100280009F938F930E94A2060FB6F894DEBF0FBE15
:10029000CDBF0397D9F4D701EC918FEF8E0F833048
:1002A00088F4F0E0D8018C91EE0FFF1FEE57FD4F60
:1002B000808311968C9181830E94D80366E081EC43
:1002C00091E011C067E087EC91E00DC089818B342B
:1002D00039F48CE38093150166E08EEC91E003C065
:1002E00066E088EC91E00E947000CD5BDF4F0FB6B6
:1002F000F894DEBF0FBECDBFDF91CF911F910F915C
:10030000FF90EF9008951F920F920FB60F92112455
:100310008F939F93EF93FF938091C6008A3011F0E3
:100320008D3029F49091EB019F5F9093EB01E09168
:10033000E80191E09E0F9093E801F0E0E850FE4F55
:1003400080838091E801803410F01092E801FF91E1
:10035000EF919F918F910F900FBE0F901F90189566
:10036000E89A08951F920F920FB60F9211248F935F
:10037000E8988BB1806F8BB988B18F6088B95B9A30
:10038000459A8CE3809315018F910F900FBE0F90CB
:100390001F901895CF92DF92EF92FF922FB7F894AB
:1003A000C0907C02D0907D02E0907E02F0907F02AF
:1003B0002FBF6C217D218E219F21FF90EF90DF9038
:1003C000CF9008950F931F934FB7F8940091800238
:1003D0001091810220918202309183026023712367
:1003E0008223932300918002109181022091820246
:1003F0003091830206271727282739270093800288
:100400001093810220938202309383024FBF1F9189
:100410000F9108950F931F934FB7F89400917802AE
:100420001091790220917A0230917B02602371232E
:1004300082239323009178021091790220917A020D
:1004400030917B0206271727282739270093780247
:100450001093790220937A0230937B024FBF1F9151
:100460000F9108958F929F92AF92BF92CF92DF9299
:10047000FF920F931F93CF93DF93CDB7DEB7A09773
:100480000FB6F894DEBF0FBECDBF20E2E6E1F1E08B
:10049000DE01119601900D922A95E1F72FEF260FBC
:1004A000283008F054C0162FF92E082FC22ED12C58
:1004B000A1E0B0E0AC0FBD1F34E0239FA00DB11D43
:1004C00011248D909D90AD90BC90C501B4010E9407
:1004D000E201672B682B692BD1F0C601865F9E4F26
:1004E0006C01FC01108360E070E088E090E00E9405
:1004F000CA01672B682B692B19F0185FF60110836E
:10050000F60180811F928F9384ED91E010C0C501A8
:10051000B4010E940A02672B682B692BD1F0F60107
:10052000E65FFE4F80811F928F938DED91E09F9348
:100530008F931F9289E08F93FF920F930E94720610
:100540008F5F0FB6F894DEBF0FBECDBF03C08FEF35
:1005500001C080E0A0960FB6F894DEBF0FBECDBFFD
:10056000DF91CF911F910F91FF90DF90CF90BF90BF
:10057000AF909F908F9008958091EC0180FD3EC0D8
:1005800084B1807F84B934B12091EC01269581E05B
:1005900090E0022E01C0880F0A94EAF7832B84B9F9
:1005A0008091EC0181115AC080917C0229B12827E9
:1005B000207F809109018223809580930901909189
:1005C0000401922398279093040182238923909118
:1005D0007C02982790937C0290917C02209180026B
:1005E0009823922B9093800220917C029091780224
:1005F00020958223892B8093780230C0869590E0E5
:10060000FC01E458FD4F208146B12F70406F4095AA
:100610004227DC01AB5FBE4F2C91242320952C9305
:10062000DC01A050BF4F3C91342332273C9324235C
:1006300023233081322730833081DC01A058BD4F25
:100640004C913223342B3C933081FC01E858FD4F10
:100650008081932F90952923282B20838091EC0172
:100660008F5F883018F48093EC0108951092EC01AC
:10067000089587E480937C00EAE7F0E08EEA8083C7
:1006800010927B008081806480833D9A459A089512
:100690008091EE0181111092EE0108951092EE0109
:1006A0008091ED0108951F920F920FB60F921124C1
:1006B0002F933F934F935F936F937F938F939F936A
:1006C000AF93BF9320917800309179008091F00131
:1006D0009091F101820F931F9093F1018093F001AB
:1006E0002091EF012F5F203118F42093EF0134C0E7
:1006F0001092EF0161E870E00E945E068EE7861BB3
:10070000482F50E02091ED0130E02F5F3F4F24173C
:100710003507CCF02091ED0130E04F5F5F4F42177D
:1007200053078CF09091ED01891791F08E3729F4E1
:100730009091ED019D3738F40BC0811109C0909163
:10074000ED01923028F491E09093EE018093ED0159
:100750001092F1011092F001BF91AF919F918F9192
:100760007F916F915F914F913F912F910F900FBEAD
:100770000F901F90189584B1806384B93C9A0895B6
:10078000813031F018F0823029F008952C980895C6
:100790002D98089544980895813031F018F08230F2
:1007A00029F008952C9A08952D9A0895449A089551
:1007B00081E080931301089582E084BD84E287BDC7
:1007C00087B58695869588BD85E085BD86E0809352
:1007D0006E0008951F920F920FB60F9211242F935F
:1007E0003F934F935F936F937F938F939F93AF93B9
:1007F000BF93EF93FF9398B587B5981708F018BC8F
:1008000087B598B586958695890F88BD0E94BC02EC
:10081000FF91EF91BF91AF919F918F917F916F91D8
:100820005F914F913F912F910F900FBE0F901F90AE
:1008300018951F920F920FB60F921124AF92BF928C
:10084000CF92DF92EF92FF920F931F932F933F93DC
:100850004F935F936F937F938F939F93AF93BF93C8
:10086000CF93DF93EF93FF93809112018150809398
:10087000120181112DC080911501815080931501C5
:10088000811123C00E94CC0381E00E94CC0382E04E
:100890000E94CC038BB18F708BB988B1807F88B9EF
:1008A0005B9845980E94B00183B7817F846083BFC5
:1008B00083B7816083BF85B7806685BF8F7D85BF25
:1008C0007894889583B78E7F83BF84E680931201E6
:1008D00080911401882329F0809114018150809324
:1008E000140180911301882371F01092F501109288
:1008F000F2011092F6011092F3011092F70110929A
:10090000F40110921301C5EFD1E092EFE92E91E0CE
:10091000F92E00E010E0AA24A394B02E6E01988175
:10092000911105C08B2D0E94CC03A88204C0915068
:1009300098839923B9F3D7019C9191110EC08B2D07
:100940000E94C003F801EE0FFF1FEC57FD4F81819D
:10095000D7018C938081888305C09150F7019083E3
:10096000992369F32196D6018C91811103C08B2DB7
:100970000E94CC030F5F1F4FBFEFEB1AFB0A03303F
:10098000110559F6FF91EF91DF91CF91BF91AF9192
:100990009F918F917F916F915F914F913F912F9197
:1009A0001F910F91FF90EF90DF90CF90BF90AF908D
:1009B0000F900FBE0F901F901895CF93DF93CDB778
:1009C000DEB72B970FB6F894DEBF0FBECDBF809178
:1009D00064008460809364008091640080688093E8
:1009E0006400809164008F7D8093640092E080E8D1
:1009F0000FB6F89480936100909361000FBE8FE072
:100A000088B984EF8BB9539A5B9A0E9439030E948C
:100A100062000E94BB030E94DC0378948E010F5F8A
:100A20001F4F8CE4C82E81E0D82E91E4A92E91E0CE
:100A3000B92E26E3822E21E0922E3AEF732E662401
:100A400063944CE3E42E0E94D20060E070E080E00A
:100A500096E00E94E201672B682B692B91F00E94BF
:100A60004E03F82E60E070E080E094E00E94CA013E
:100A7000672B682B692B71F01F92FF929F928F92C8
:100A80001CC00E9448038111EACF80911401882381
:100A900031F325C060E070E080E092E00E94CA017E
:100AA000672B682B692B29F01F92FF92BF92AF92A0
:100AB00004C01F92FF92DF92CF921F928AE08F9321
:100AC0001F930F930E9472060FB6F894DEBF0FBEFD
:100AD000CDBF6AE0C8010E9470007092140160E00E
:100AE00071E080E090E00E94E201672B682B692BA7
:100AF00029F068E087E591E00E94700060E071E015
:100B000080E090E00E940A02672B682B692B29F095
:100B100068E08FE591E00E947000FF24F3946F2D50
:100B2000C8010E943202181624F4682FC8010E94DE
:100B30007000F39499E0F912F2CF68E070E080E081
:100B400090E00E94E201672B682B692BB9F01092AC
:100B5000E60160E070E088E090E00E94CA01672B47
:100B6000682B692B31F06092E6016AE087E691E03C
:100B700003C06BE081E791E00E94700068E070E0E4
:100B800080E090E00E940A02672B682B692B69F0D5
:100B90008091E601882321F06AE08CE791E003C0B0
:100BA0006BE086E891E00E94700060E870E080E011
:100BB00090E00E94E201672B682B692B29F066E028
:100BC00081E991E00E94700060E470E080E090E0D4
:100BD0000E94E201672B682B692B29F066E087E908
:100BE00091E00E94700060E270E080E090E00E947E
:100BF000E201672B682B692B29F066E08DE991E013
:100C00000E94700060E170E080E090E00E94E201EC
:100C1000672B682B692B29F066E083EA91E00E943C
:100C2000700060E870E080E090E00E940A02672BAC
:100C3000682B692B29F066E089EA91E00E94700038
:100C400060E470E080E090E00E940A02672B682B6D
:100C5000692B29F066E08FEA91E00E94700060E263
:100C600070E080E090E00E940A02672B682B692BFD
:100C700029F066E085EB91E00E94700060E170E091
:100C800080E090E00E940A02672B682B692B29F014
:100C900066E08BEB91E00E94700060EF70E080E016
:100CA00090E00E94CA01672B682B692B09F4CBCE18
:100CB0008FB7F894E09215018FBFC5CEAA1BBB1B5E
:100CC00051E107C0AA1FBB1FA617B70710F0A61B4C
:100CD000B70B881F991F5A95A9F780959095BC016D
:100CE000CD010895AEE0B0E0E8E7F6E00C94620CC8
:100CF0000D891E898F89988D26E02C831A8309839C
:100D000097FF02C080E090E801979E838D83AE013B
:100D1000455E5F4F698D7A8DCE0101960E94BB06BC
:100D20004D815E8157FD0AC02F81388542175307D8
:100D30000CF49A01F801E20FF31F10822E96E4E002
:100D40000C947E0CAEE0B0E0E8EAF6E00C94640CA3
:100D50008DE08C838B899C899A838983AE01495E5F
:100D60005F4F6D897E89CE0101960E940D0A2E96F5
:100D7000E2E00C94800CACE0B0E0E1ECF6E00C9426
:100D8000540C7C016B018A01FC011782168283815D
:100D900081FFBDC1CE0101964C01F7019381F6019F
:100DA00093FD859193FF81916F01882309F4ABC175
:100DB000853239F493FD859193FF81916F018532DE
:100DC00029F4B70190E00E94A20BE7CF512C312CFF
:100DD00020E02032A0F48B3269F030F4803259F0F8
:100DE000833269F420612CC08D3239F0803339F4BC
:100DF000216026C02260246023C0286021C027FD16
:100E000027C030ED380F3A3078F426FF06C0FAE0FC
:100E10005F9E300D1124532E13C08AE0389E300D92
:100E20001124332E20620CC08E3221F426FD6BC1BA
:100E3000206406C08C3611F4206802C0883641F464
:100E4000F60193FD859193FF81916F018111C1CFCF
:100E5000982F9F7D9554933028F40C5F1F4FFFE32C
:100E6000F9830DC0833631F0833771F0833509F093
:100E70005BC022C0F801808189830E5F1F4F44242C
:100E80004394512C540115C03801F2E06F0E711CCF
:100E9000F801A080B18026FF03C0652D70E002C07C
:100EA0006FEF7FEFC5012C870E94590B2C01830146
:100EB0002C852F77222E17C03801F2E06F0E711C9F
:100EC000F801A080B18026FF03C0652D70E002C04C
:100ED0006FEF7FEFC5012C870E944E0B2C012C85F4
:100EE0002068222E830123FC1BC0832D90E048162E
:100EF0005906B0F4B70180E290E00E94A20B3A9448
:100F0000F4CFF50127FC859127FE81915F01B701A0
:100F100090E00E94A20B31103A94F1E04F1A510870
:100F20004114510471F7E5C0843611F0893639F562
:100F3000F80127FF07C060817181828193810C5F76
:100F40001F4F08C060817181882777FD8095982F99
:100F50000E5F1F4F2F76722E97FF09C090958095D8
:100F6000709561957F4F8F4F9F4F2068722E2AE0BA
:100F700030E0A4010E94F30BA82EA81844C08537C6
:100F800029F42F7EB22E2AE030E025C0F22FF97F1F
:100F9000BF2E8F36C1F018F4883579F0B4C0803791
:100FA00019F0883721F0AFC02F2F2061B22EB4FE88
:100FB0000DC08B2D8460B82E09C024FF0AC09F2F5E
:100FC0009660B92E06C028E030E005C020E130E090
:100FD00002C020E132E0F801B7FE07C060817181F4
:100FE000828193810C5F1F4F06C06081718180E018
:100FF00090E00E5F1F4FA4010E94F30BA82EA818CB
:10100000FB2DFF777F2E76FE0BC0372D3E7FA5147C
:1010100050F474FE0AC072FC08C0372D3E7E05C035
:10102000BA2C372D03C0BA2C01C0B52C34FF0DC02B
:10103000FE01EA0DF11D8081803311F4397E09C073
:1010400032FF06C0B394B39404C0832F867809F0AE
:10105000B39433FD13C030FF06C05A2CB31418F4F8
:10106000530C5B18B32CB31468F4B70180E290E022
:101070003C870E94A20BB3943C85F5CFB31410F4C7
:101080003B1801C0312C34FF12C0B70180E390E05F
:101090003C870E94A20B3C8532FF17C031FD03C084
:1010A00088E790E002C088E590E0B7010CC0832F8C
:1010B000867859F031FF02C08BE201C080E237FD33
:1010C0008DE2B70190E00E94A20BA51438F4B7019D
:1010D00080E390E00E94A20B5A94F7CFAA94F40107
:1010E000EA0DF11D8081B70190E00E94A20BA110D2
:1010F000F5CF332009F451CEB70180E290E00E9491
:10110000A20B3A94F6CFF7018681978102C08FEF48
:101110009FEF2C96E2E10C94700C20FD09C0FC01BD
:1011200023FD05C022FF02C0738362835183408385
:10113000089544FD10C046FD10C0DB01FC01AA0F5C
:10114000BB1FEE1FFF1F1094D1F76A0F7B1F8E1F6E
:101150009F1F31E003C033E001C034E0660F771F0A
:10116000881F991F3150D1F7620F711D811D911D8C
:1011700008950F931F93CF93DF938C01C8010E94B2
:10118000640BEC0197FD08C00E943B0B892BB1F763
:10119000B801CE010E94DA0BCE01DF91CF911F91F1
:1011A0000F910895A1E0B0E0E8EDF8E00C945A0C3E
:1011B0008C01C62E7A0129830E94640BAC0155274D
:1011C00029814B32510521F04D32510569F42068D7
:1011D000CA94C11002C080E076C0C80129830E9471
:1011E000640B298197FDF7CF322F3D7FD32E322F0D
:1011F000307349F5803339F5BB24BA94BC0C09F43B
:101200004EC0C80129830E94640B298197FD47C005
:10121000382F3F7D383569F48D2D8264D82ECA94DD
:10122000CA94CC20E1F1C8010E94640B97FF0BC067
:1012300036C026FF04C02D2D2260D22E03C03D2DC6
:101240003261D32ECB2C812C912C540120ED280F10
:10125000283080F0D4FE04C0B8010E94DA0B1CC014
:101260002A3040F0D6FEF8CF2F7D3FEE320F3630D9
:1012700098F727504D2DC501B4010E9499084B01E4
:101280005C018D2D8260D82ECA94CC2059F0C80103
:101290000E94640B97FFDACFD1FC04C09CCF812C55
:1012A000912C5401D7FE08C0B094A09490948094DF
:1012B000811C911CA11CB11C2D2DB501A401C701DD
:1012C0000E948D0881E02196ECE00C94760CA1E25E
:1012D000B0E0EDE6F9E00C94580C5C017A01CE0127
:1012E00001966C0180E2F60111928A95E9F7F50109
:1012F000838040E050E0912C712C70E0A1E0B0E0E0
:10130000F90183FC859183FE81918F01982F9F01C4
:10131000811103C080E090E07CC08E3519F4411546
:10132000510549F1E72FF0E0E417F5073CF48D355E
:1013300059F18D3219F4772001F103C0711001C009
:10134000982E892F8695869586958601080F111D02
:10135000892F87703D0101C0660C8A95EAF7F80174
:10136000808186298083991559F0991510F49F5F23
:10137000E8CF9150E6CF71E004C07724739401C0A8
:10138000712C4F5F5F4FBCCF772019F08E81806248
:101390008E83711103C09924939416C0F6019E01A7
:1013A0002F5D3F4F808180958193E217F307D1F73E
:1013B000F2CFE114F10429F0F7018083C70101960F
:1013C0007C016150912CF9F0C50169A30E94640B66
:1013D00069A197FD16C0282F269526952695F6011A
:1013E000E20FF11D208130E0AC014770552702C0AB
:1013F000359527954A95E2F720FDDBCFB5010E9490
:10140000DA0B911087CFE114F10411F0F70110828B
:10141000C801A196EEE00C94740C4F925F927F92FB
:101420008F929F92AF92BF92CF92DF92EF92FF92F4
:101430000F931F93CF93DF931F92CDB7DEB76C014D
:101440002B015A01FC0117821682712CF601F380E0
:10145000F201F3FC8591F3FE8191382F2F0188234F
:1014600009F4F3C090E039830E943B0B3981892B4A
:1014700021F0C6010E94B908E9CF353241F4F201EA
:10148000F3FC3591F3FE31912F01353269F4C60139
:1014900039830E94640B398197FDD5C03817B1F2AA
:1014A000B6010E94DA0BD1C03A3239F4F3FC35911F
:1014B000F3FE31912F0151E001C050E0420110E0F4
:1014C00020ED230F2A3090F45260612F70E080E00D
:1014D00090E040E259830E949908162FF401F3FC32
:1014E0003591F3FE31914F015981EACF052F232F1A
:1014F000240151FF03C0111102C0A7C01FEF3836ED
:1015000019F03C3659F011C0F401F3FC2591F3FEBB
:1015100021912F01283649F4052F08600460F2015B
:10152000F3FC2591F3FE21912F01222309F48DC0B4
:10153000622F70E089E790E029830E94430B2981A4
:10154000892B09F482C000FD07C0F501E080F1801D
:10155000C50102965C0102C0E12CF12C2E3651F43B
:10156000F6014681578160E070E0202FC7010E949C
:101570008D086CCF233691F401FF11E0C6010E9463
:10158000640B97FD60C0E114F10429F0F70180833A
:10159000C70101967C01115089F751C02B3559F4D0
:1015A0009201A701612FC6010E9467092C010097D3
:1015B00009F045C03FC0C60129830E94B9082981AE
:1015C00097FD41C02F3659F128F4243631F12936E0
:1015D00049F127C0233769F02537F9F022C0E1141B
:1015E000F10429F0F7018082C70101967C011150B6
:1015F00071F0C6010E94640B4C0197FD08C00E9467
:101600003B0B892B61F3B601C4010E94DA0BE11494
:10161000F104A9F0F701108212C0006203C000615A
:1016200001C00064202FA701612FC6010E94D208CB
:10163000811105C0F6018381807329F406C000FD85
:1016400005CF739403CF772019F0872D90E002C067
:101650008FEF9FEF0F90DF91CF911F910F91FF9030
:10166000EF90DF90CF90BF90AF909F908F907F9042
:101670005F904F900895911114C1803219F08950F4
:101680008550D0F70895FC010590061621F0002042
:10169000D9F7C00108953197CF010895FC01059055
:1016A000615070400110D8F7809590958E0F9F1F64
:1016B0000895FC016150704001900110D8F78095A9
:1016C00090958E0F9F1F0895CF93DF93EC012B8190
:1016D00020FF33C026FF0AC02F7B2B838E819F8182
:1016E00001969F838E838A8190E029C022FF0FC0DC
:1016F000E881F9818081992787FD9095009719F4F9
:1017000020622B831AC03196F983E8830EC0EA85E4
:10171000FB85099597FF09C02B81019611F080E2A6
:1017200001C080E1822B8B8308C02E813F812F5F17
:101730003F4F3F832E83992702C08FEF9FEFDF91AA
:10174000CF9108950F931F93CF93DF93FB012381D4
:1017500021FD03C08FEF9FEF28C022FF16C04681F6
:101760005781248135814217530744F4A081B18108
:101770009D012F5F3F4F318320838C9326813781DA
:101780002F5F3F4F3783268310C0EB01092F182F9F
:101790000084F185E02D0995892BE1F68E819F81EA
:1017A00001969F838E83812F902FDF91CF911F9180
:1017B0000F910895FB01238120FF12C026FD10C068
:1017C0008F3F3FEF930761F082832F7D2064238357
:1017D000268137812150310937832683992708953F
:1017E0008FEF9FEF0895FA01AA27283051F1203199
:1017F00081F1E8946F936E7F6E5F7F4F8F4F9F4FA5
:10180000AF4FB1E03ED0B4E03CD0670F781F891FE6
:101810009A1FA11D680F791F8A1F911DA11D6A0FB4
:10182000711D811D911DA11D20D009F468943F9167
:101830002AE0269F11243019305D3193DEF6CF0166
:101840000895462F4770405D4193B3E00FD0C9F72C
:10185000F6CF462F4F70405D4A3318F0495D31FD99
:101860004052419302D0A9F7EACFB4E0A6959795EC
:10187000879577956795BA95C9F7009761057105C2
:1018800008959B01AC010A2E06945795479537950C
:101890002795BA95C9F7620F731F841F951FA01D66
:1018A00008959927882708952F923F924F925F922B
:1018B0006F927F928F929F92AF92BF92CF92DF9260
:1018C000EF92FF920F931F93CF93DF93CDB7DEB7C5
:1018D000CA1BDB0B0FB6F894DEBF0FBECDBF099459
:1018E0002A88398848885F846E847D848C849B84B0
:1018F000AA84B984C884DF80EE80FD800C811B81BE
:10190000AA81B981CE0FD11D0FB6F894DEBF0FBEEC
:0A191000CDBFED010895F894FFCF5C
:10191A00FFFFFFFFFFFFFFFFFFFF010203040506B2
:10192A0007086401FA3C0100000000020000000000
:10193A000100020000000004000000000200040090
:10194A00000000080000533A253033753A460D0A64
:10195A0000533A253033753A520D0A00533A25306E
:10196A0033753A450D0A0046305F444E0D0A00466B
:10197A00305F55500D0A00434F4E465F444E0D0AE4
:10198A00004553544F505F444E0D0A00434F4E4694
:10199A005F55500D0A004553544F505F55500D0A7C
:1019AA00002B4C310D0A002B4C320D0A002B4C3304
:1019BA000D0A002B4C340D0A002D4C310D0A002D56
:1019CA004C320D0A002D4C330D0A002D4C340D0AF1
:1019DA00004C4F4B0D0A004C4552520D0A004B4F1A
:1019EA004B0D0A004625755F444E0D0A00462575C3
:0619FA005F55500D0A00CC
:00000001FF
