:100000000C9445000C9411020C9462000C94620054
:100010000C9462000C9462000C9462000C946200D8
:100020000C9462000C9462000C9462000C946200C8
:100030000C9462000C9462000C9494050C9464057A
:100040000C9462000C9462000C94E4010C94D900AE
:100050000C9462000C94B8040C9462000C9462003E
:100060000C9462000C9462006364696E6F70737527
:1000700078585B00494E4954004C256868753A2011
:10008000256868752F256868750011241FBECFEF9D
:10009000D8E0DEBFCDBF11E0A0E0B1E0E2E4FDE1D9
:1000A00002C005900D92AC37B107D9F722E0ACE75A
:1000B000B1E001C01D92AD36B207E1F70E947F06A4
:1000C0000C949F0E0C9400001092C00088E980935D
:1000D000C10086E08093C2001092C50081E0809349
:1000E000C40008956150D8F48091C10085FD16C008
:1000F000E0917F0181E08E0F80937F01F0E0EF536C
:10010000FE4F80818093C60080917F0187FD109211
:100110007F018091C10080628093C1000895FC013D
:10012000A0917E0181E08A0F80937E01B0E08191F1
:10013000AF53BE4F8C9380917E0187FD10927E015C
:10014000CF01D0CF0F931F93CF93DF93CDB7DEB7FF
:1001500028970FB6F894DEBF0FBECDBF9091C100B7
:1001600095FD25C01F928F9380E691E09F938F931A
:100170001F9288E08F938E010F5F1F4F1F930F9385
:100180000E946B0867E0C8010E9472000FB6F894E5
:10019000DEBF0FBECDBF81E028960FB6F894DEBF5C
:1001A0000FBECDBFDF91CF911F910F91089580E0D9
:1001B000F3CF1F921FB61F9211248F939F93EF933B
:1001C000FF9390917F0180917E019817C9F0E09193
:1001D0007F0181E08E0F80937F01F0E0EF53FE4FAF
:1001E00080818093C60080917F0187FD10927F01FE
:1001F000FF91EF919F918F911F901FBE1F901895B7
:100200008091C1008F7D8093C100F2CFCF92DF92A9
:10021000EF92FF920F931F93CF93DF93CDB7DEB78B
:10022000C454D1090FB6F894DEBF0FBECDBF809184
:100230008001882309F4B5C09FB7F89480918001AC
:100240008150809380019FBFDE01119680E06D0197
:10025000E0917C01F0E0EF57FE4F90819D3089F0F6
:10026000E0917C01F0E0EF57FE4F90819A3049F029
:1002700020917C0190917D01291719F08F3309F0AD
:1002800064C090917C019F5F90937C0190917C0170
:10029000903410F010927C01882309F482C0F6019A
:1002A000E80FF11D10828E010F5B1F4FC8010196F0
:1002B0009F938F931F930F937E0124E4E20EF11C12
:1002C000FF92EF9289E790E09F938F93DF92CF9216
:1002D0000E949B080FB6F894DEBF0FBECDBF0397F8
:1002E00009F04BC0D701EC918FEF8E0F833008F0EF
:1002F00040C02E2F2150330BF901EE0FFF1FE20FEC
:10030000F31FE25AFD4F9081D8018C91981304C0DD
:10031000918111968C9198130E945105F70180816B
:100320008150990BD8012C91FC01EE0FFF1FE80FB3
:10033000F91FE25AFD4F208311968C91818365E06D
:1003400089E691E00E9472002CC0E0917C0191E06E
:100350009E0F90937C01F0E08F5FEF57FE4F9081EE
:100360009D9390917C01903408F472CF10927C019F
:100370006FCF66E08FE691E0E5CF44E050E064E7C0
:1003800070E0C6010E94560865E0892BD1F486E72B
:1003900091E00E94720010921301109212011092CB
:1003A0001101CC5BDF4F0FB6F894DEBF0FBECDBF9F
:1003B000DF91CF911F910F91FF90EF90DF90CF9041
:1003C000089580E791E0BECF1F921FB61F921124BF
:1003D0008F939F93EF93FF938091C6008A3011F023
:1003E0008D3029F4909180019F5F90938001E0917E
:1003F0007D0191E09E0F90937D01F0E0EF57FE4F5D
:10040000808380917D01803410F010927D01FF91F6
:10041000EF919F918F911F901FBE1F901895E89AA2
:1004200008951F920F920FB60F9211242F933F93AE
:100430004F935F936F937F938F939F93AF93BF93EC
:10044000EF93FF93E8988BB1806F8BB988B18F6081
:1004500088B9EAE7F0E080818068808380818064E9
:10046000808382E0809315010E942C05FF91EF911B
:10047000BF91AF919F918F917F916F915F914F91BC
:100480003F912F910F900FBE0F901F9018950F93D3
:100490001F93CF93DF9300D000D0CDB7DEB7462FA8
:1004A000572FBC012FB7F89480914A0290914B02CC
:1004B000A0914C02B0914D022FBF8A019B010823ED
:1004C00019232A233B23C901B8010F900F900F90E5
:1004D0000F90DF91CF911F910F910895EF92FF92AE
:1004E0000F931F93CF93DF9300D000D0CDB7DEB72B
:1004F000462F572FBC012FB7F89480914602909158
:100500004702A0914802B09149027A018B01E8228A
:10051000F9220A231B23E982FA820B831C83809130
:10052000460290914702A0914802B09149028E255F
:100530009F25A027B1278093460290934702A0935E
:100540004802B09349022FBF69817A818B819C81D7
:100550000F900F900F900F90DF91CF911F910F91FF
:10056000FF90EF900895EF92FF920F931F93CF9318
:10057000DF9300D000D0CDB7DEB7462F572FBC0198
:100580002FB7F8948091420290914302A0914402C7
:10059000B09145027A018B01E822F9220A231B233C
:1005A000E982FA820B831C8380914202909143027C
:1005B000A0914402B09145028E259F25A027B12726
:1005C0008093420290934302A0934402B093450269
:1005D0002FBF69817A818B819C810F900F900F9042
:1005E0000F90DF91CF911F910F91FF90EF900895A1
:1005F00020914E0220FD67C084B1807C84B985B112
:10060000806385B980914E028695823009F453C08B
:1006100008F03FC0882309F44AC0813009F449C07A
:1006200080914E0281112CC090914A0289B1982785
:10063000907F20910901822F8923382F30953093A4
:100640000901809104018923832780930401209567
:100650009223892390914A02982790934A0290917D
:100660004A02209146029823922B90934602909141
:100670004A022091420290958923822B8093420264
:1006800080914E028F5F883008F052C080934E02F6
:100690000895833029F6239A809160028111259A6A
:1006A00080916302882309F4BBCF249AB9CF209AA2
:1006B000B7CF219AB5CF229A80916602882309F498
:1006C000AFCF259AADCF96B1269530E0F901E65B24
:1006D000FD4F8081906F8F709827D901AB5FBE4F1F
:1006E0005C91452F4095842F892B8C93D901A05084
:1006F000BF4F492F40956C91462348274C93892F33
:10070000852B809584239081982790839081D901AF
:10071000AA5BBD4F4C919823942B9C939081F90137
:10072000EE5BFD4F208190958923822B8083A8CF9B
:1007300010924E020895CF93DF9300D000D000D0E6
:10074000CDB7DEB780915102882309F443C08FB73B
:10075000F89420914F02309150028FBF4091570280
:10076000509158025E834D83B0E0A0E0BD01EEE001
:10077000440F551F661F771FEA95D1F749835A83A7
:100780006B837C8350E040E069817A818B819C811E
:100790000E94250830930E0120930D012936304127
:1007A000B8F08D819E818538E3E09E0758F0BC014A
:1007B00061507109709358026093570284E090E091
:1007C0000E94450E88E690E190930E0180930D0102
:1007D0001092510280915202882331F045990DC048
:1007E000109252021092590226960FB6F894DEBF6C
:1007F0000FBECDBFDF91CF9108958FB7F8942091B0
:100800004F02309150023A8329838FBF8091550265
:10081000909156022817390750F4309356022093CE
:10082000550269817A8182E090E00E94450E8091B4
:1008300053029091540249815A818417950748F4D4
:100840005093540240935302BA0180E090E00E941A
:10085000450E80915302909154022091550230919F
:100860005602AC01421B530B652F7727E981FA81B1
:10087000E21BF30B9F01E617F707A0F0861B970B0F
:100880008E179F0778F080910B0190910C01FB016E
:10089000E20FF31FE817F90728F0860F971F82175A
:1008A0009307D8F430930C0120930B01AFE7B0E02D
:1008B0000E9447089A0150E040E00E9425082F3727
:1008C00008F02EE78EE7821B90915902981729F0C5
:1008D00091E090935A02809359021092520284CF71
:1008E00087E480937C00EAE7F0E08EE88083109252
:1008F0007B008081806480833D9A84E090E00E9448
:100900003F0E909358028093570282E090E00E943D
:100910003F0E909356028093550280E090E00E9433
:100920003F0E9093540280935302089580915A028F
:10093000089510925A0208958091590208952FB790
:10094000F89480910D0190910E012FBF0895BC0184
:1009500084E090E00C94450E60E070E482E090E06A
:100960000E94450E60E070E480E090E00C94450E3B
:100970001F921FB61F9211242F933F934F935F93A3
:100980008F939F9390915B0281E0890F20910A01E0
:100990002223B1F1209178003091790040915C02DE
:1009A00050915D02240F351F30935D0220935C024D
:1009B00080935B028032A8F03093500220934F0264
:1009C00081E08093520210925B0210925D021092BD
:1009D0005C0210920A0180917C00807F8E6080937F
:1009E0007C0080917A00806480937A009F918F913F
:1009F0005F914F913F912F911F901FBE1F901895AF
:100A0000903170F0409178005091790020915C0213
:100A100030915D02240F351F30935D0220935C02FC
:100A200080935B028032E8F280915C0290915D02DB
:100A30009093500280934F0281E080935102109274
:100A40005B0210925D0210925C0280930A01809119
:100A50007C00807F8760C3CF3C9A4498EEE5F2E04B
:100A60008AEF81831082848313828783168208959C
:100A7000833050F490E0FC01EE0FFF1FE80FF91FE8
:100A8000E25AFD4F81E082830895833048F490E07C
:100A9000FC01EE0FFF1FE80FF91FE25AFD4F128213
:100AA000089581E080931001089582E084BD84E27E
:100AB00087BD87B56CE00E94190888BD85E085BDBB
:100AC00086E080936E0008951F920F920FB60F92EA
:100AD00011242F933F934F935F936F937F938F9343
:100AE0009F93AF93BF93EF93FF9398B587B59817F4
:100AF00008F018BC87B528B56CE00E941908820F71
:100B000088BD0E94F802FF91EF91BF91AF919F9134
:100B10008F917F916F915F914F913F912F910F90A6
:100B20000FBE0F901F9018951F920F920FB60F9245
:100B30001124AF92BF92CF92DF92EF92FF920F9368
:100B40001F932F933F934F935F936F937F938F9355
:100B50009F93AF93BF93CF93DF93EF93FF938091D6
:100B60000F01815080930F0181115EC080911501AA
:100B7000815080931501811130C00E94450581E0AC
:100B80000E94450582E00E94450544982C982D98C6
:100B90008BB18F708BB988B1807F88B95B9845988D
:100BA00080917A008F7780937A008091C100877F4F
:100BB0008093C1000E940F0283B7817F846083BF4E
:100BC00083B7816083BF85B7806685BF8F7D85BF12
:100BD0007894889583B78E7F83BF80911401882392
:100BE00029F08091140181508093140180911301A8
:100BF000882329F080911301815080931301809103
:100C00001201882329F080911201815080931201F2
:100C100080911101882329F08091110181508093E6
:100C2000110184E680930F0180911001882371F0F7
:100C300010926A021092670210926B021092680280
:100C400010926C0210926902109210019AE6E92E3D
:100C500092E0F92E07E612E0D0E0C0E0AA24A394C7
:100C6000BC2ED7018D917D01FD0131976F0181115E
:100C70001CC08B2D0E944505D601AC92D8018C91E9
:100C8000811118C0FE01EE0FFF1FEC0FFD1FE25A8D
:100C9000FD4F8181D8018C938081F6018083882368
:100CA00069F08B2D0E94380509C08150808388230C
:100CB00001F3E4CF81508C93882321F321960F5FB9
:100CC0001F4FC330D10561F6FF91EF91DF91CF91B6
:100CD000BF91AF919F918F917F916F915F914F9154
:100CE0003F912F911F910F91FF90EF90DF90CF9048
:100CF000BF90AF900F900FBE0F901F901895CDB77B
:100D0000DEB7AB970FB6F894DEBF0FBECDBF8091B4
:100D100064008460809364008091640080688093A4
:100D20006400809164008F7D8093640080E892E08D
:100D30000FB6F89480936100909361000FBE8FE02E
:100D400088B984EF8BB9539A0E9470040E946400A2
:100D50000E942C050E94550578948091570290912D
:100D60005802019609F460C0CE0101969FA38EA39C
:100D70007E0193E2E90EF11CE6E2CE2EE1E0DE2EEA
:100D8000F9E02F2E7EA06FA0A5E05A2E32E3332E7D
:100D900042E0442E0E9406010E949B036FEF7FE019
:100DA0008BE096E00E946E0268A779A78AA79BA7AE
:100DB000672B682B692B09F47BC06FEF7FE08BE01A
:100DC00096E00E9447024B015C0166E171E0872DCD
:100DD000962D0E94640840E050E060E070E8CE018B
:100DE0000396FC0101969501840104231523262313
:100DF0003723012B022B032B09F4F5C0A1E3A083B9
:100E000076956795579547958E159F0551F769E437
:100E100071E0C7010E94640864E2872D962D0E944C
:100E200072005092120158C082E38093640284E6FB
:100E30008093650280935F02809362020E94510555
:100E40005B9A80EB94E00E94A70480EB94E090937F
:100E50005802809357020E94AC0412E078E0F72E0B
:100E600002E3F09215016FEF7FE08BE096E00E94C5
:100E70006E02672B682B692BA1F3812F90E0FC0198
:100E8000EE0FFF1FE80FF91FE25AFD4F10821F5FA0
:100E9000133009F410E0812F90E0FC01EE0FFF1FEA
:100EA000E80FF91FE25AFD4F00830E945105D9CF88
:100EB0006FEF7FE08BE096E00E94B30268A779A70E
:100EC0008AA79BA7672B682B692B09F076CF8091A7
:100ED0001201882309F471CF0E949604811104C085
:100EE0008091130181110AC00E949C040E94A200FB
:100EF000882321F00E9499045092130180911101DE
:100F000081112CC00E949F0488349D4008F06EC05F
:100F100066E089E191E00E9472000E949F049F9325
:100F20008F93DF92CF921F922F9281E090E08C0FEF
:100F30009D1F9F938F930E946B0868E0872D962DCD
:100F40000E9472006CE18FE291E00E947200309288
:100F500011010FB6F894DEBF0FBECDBF60EF70E099
:100F600080E090E00E94470268A779A78AA79BA724
:100F7000672B682B692BB1F00E949F0489349D4038
:100F800038F05B9A459A8091C10088608093C100D7
:100F90000E949F04853E9C4068F188E08093150183
:100FA000409214010E949F04853E9C4078F060E0CE
:100FB00070E088E090E00E94470268A779A78AA7BE
:100FC0009BA7672B682B692B41F1449A80911501EF
:100FD000823028F15B99DECE81E0809364028AEF53
:100FE00080936502D3CEB0E3B0830ACF65E080E2A0
:100FF00091E091CF809114018111D4CF68E08CE40D
:1010000091E00E9472008FEF9FE7A6E1815090402F
:10101000A040E1F700C00000C5CF4498D7CF6AE0F8
:1010200085E591E00E947200809115018230E0F325
:10103000D1CF991B79E004C0991F961708F0961B31
:10104000881F7A95C9F780950895A1E21A2EAA1BE8
:10105000BB1BFD010DC0AA1FBB1FEE1FFF1FA21768
:10106000B307E407F50720F0A21BB30BE40BF50B65
:10107000661F771F881F991F1A9469F760957095EE
:10108000809590959B01AC01BD01CF010895A29F71
:10109000B001B39FC001A39F700D811D1124911D4C
:1010A000B29F700D811D1124911D0895FB01DC017B
:1010B0004150504030F08D910590801919F4002076
:1010C000B9F7881B990B0895FB01DC0101900D9283
:1010D0000020E1F70895AEE0B0E0E1E7F8E00C941D
:1010E000760E0D891E898F89988D26E02C831A83B0
:1010F000098397FF02C080E090E801979E838D836B
:10110000AE01455E5F4F698D7A8DCE0101960E94DA
:10111000B4084D815E8157FD0AC02F813885421782
:1011200053070CF49A01020F131FF80110822E9638
:10113000E4E00C94920EAEE0B0E0E1EAF8E00C944A
:10114000780E8DE08C838B899C899A838983AE018C
:10115000495E5F4F6D897E89CE0101960E940E0C1B
:101160002E96E2E00C94940EAFE0B0E0EAEBF8E0EB
:101170000C94680E7C013B018A01DC0117961C92DD
:101180001E92169713968C9181FFBEC19AE0292E6C
:10119000FE0131964F01D70113969C91F30193FD07
:1011A000859193FF81913F01882309F444C18532E1
:1011B00039F493FD859193FF81913F01853229F4A4
:1011C000B70190E00E94960DE6CFB12C412C512C36
:1011D000BFE1B51538F08B3209F188F4803201F1A6
:1011E000833221F157FC3AC020ED280F2A3040F518
:1011F00056FE1FC0B29C200D1124B22E06C08D32A7
:1012000091F0803379F7689450F8F30193FD85915C
:1012100093FF81913F018111DBCF20C0689451F889
:10122000689452F8F2CF689453F8EFCF689454F86A
:10123000ECCF429C200D1124422E689455F8E5CF46
:101240008E3229F456FCF7C0689456F8DECF8C36FF
:1012500019F4689457F8D9CF8836B9F2982F9F7D42
:1012600095549330C0F08336A1F18337C1F18335B3
:1012700009F05BC0D801CD90DD908D016B2D70E041
:1012800056FC02C06FEF7FEFC6010E94420D5C0169
:10129000689457F80AC00C5F1F4FEFE3E983AA2454
:1012A000A394B12C6401E89457F853FC04C04A1489
:1012B0001B0409F018F5342CA114B10431F53320C6
:1012C00009F469CFB70180E290E00E94960D3A944C
:1012D000F6CFD8018C9189830E5F1F4FE0CFF801C4
:1012E000C190D1908F016B2D70E056FC02C06FEF62
:1012F0007FEFC6010E944D0D5C01D5CFB70180E2A2
:1013000090E00E94960D4A94D2CFF60157FC859149
:1013100057FE81916F01B70190E00E94960D311048
:101320003A94B1E0AB1AB108C7CF843619F08936C8
:1013300009F071C0F80157FE67C061917191819108
:1013400091918F01E52DEF76DE2E97FF09C09095E4
:101350008095709561957F4F8F4F9F4F6894D7F818
:101360002AE030E0A4010E94DE0DC82EC818AC2C83
:101370005D2CD6FE0CC0E89450F8CB1440F4D4FE9B
:1013800005C0D2FC03C05D2D5E7E552EAB2C54FEF5
:1013900093C0FE01EC0DF11D8081803309F085C002
:1013A000652D697E562E752D7870372E53FC93C0AF
:1013B00050FE8DC0BC2CA41410F4B40CBA1854FE0A
:1013C00090C0B70180E390E00E94960D52FE07C0E6
:1013D00088E751FC88E590E0B7010E94960DCB1498
:1013E00008F48BC0CA94D12C8FEFC81AD80AC80C45
:1013F000D91CD6018E916D01B70190E00E94960D27
:101400008C149D04B1F75BCF61917191072E000C94
:10141000880B990B96CFD52CE894D4F82AE0853721
:1014200029F1F52DF97FDF2E8037A1F058F48835AA
:10143000A1F08F36D1F0F701868197812F96E2E1F6
:101440000C94840E8837B9F7D4FE02C06894D2F8A1
:1014500020E10CC06894D4F8F7CF54FE03C02F2FBE
:101460002660D22E20E132E002C028E030E0F80110
:10147000D7FE15C041915191619171914C875D8763
:101480006E877F878F01A4016C857D858E859F8502
:101490000E94DE0DC82EC818E894D7F868CF819155
:1014A0009191AC0170E060E0E9CF52FC02C0A394DE
:1014B0007ACFA394A39477CF852D867809F473CF40
:1014C000F6CFB70180E290E00E94960DA394A41499
:1014D000C0F3312C74CF342C3A18A41408F46FCF15
:1014E000F8CF852D867809F47ACF8BE251FE80E221
:1014F00057FC8DE2B70190E070CFB70180E390E038
:101500000E94960DBA946BCF8FEF9FEF97CFFC019F
:10151000CA01DB0120FD08C023FD05C022FF02C077
:10152000B383A283918380830895CF92DF92EF9259
:10153000FF92CF93DF9300D000D0CDB7DEB76B0121
:101540007C0183E044FD10C084E046FD0DC0D6015F
:10155000F701AA0FBB1FEE1FFF1F1094D1F7CA0E91
:10156000DB1EEE1EFF1E81E0CC0CDD1CEE1CFF1C02
:101570008150D1F7D701C601820F911DA11DB11D68
:10158000BC01CD010F900F900F900F90DF91CF9184
:10159000FF90EF90DF90CF9008950F931F93CF931C
:1015A000DF938C01C8010E94580DEC0197FD08C023
:1015B0000E942E0D892BB1F7B801CE010E94C60DF5
:1015C000CE01DF91CF911F910F910895B0E0A0E07F
:1015D000ECEEFAE00C94700E8C01C62F5A01F22E3C
:1015E0000E94580DFC019927EB3221F08D9781F470
:1015F0006894F7F8C15031F480E0CDB7DEB7EAE087
:101600000C948C0EC8010E94580DFC0197FDF4CF7C
:10161000DF2DDD7F8F2D807309F5E033F9F4EE24A3
:10162000EA94EC0EC13091F0C8010E94580DFC0103
:1016300097FD0CC08F7D883569F4D264C25031F0BB
:10164000C8010E94580DFC0197FF08C0C12CD12C85
:1016500076011CC0F6FE2CC0D260CE2DC12CD12C40
:10166000760120ED2E0F283030F1D4FD09C02A304C
:1016700010F1D6FF05C02F7D8FEE820F8630D0F09F
:10168000B801CF010E94C60DD1FFB6CFD7FF08C069
:10169000F094E094D094C094C11CD11CE11CF11CC6
:1016A0002D2FB701A601C5010E94870A81E0A5CFB1
:1016B000D261D3CF27504D2FC701B6010E94950AA2
:1016C0006B017C01D260C15009F3C8010E94580D22
:1016D000FC0197FFC6CFDACFA0E2B0E0E2E7FBE083
:1016E0000C946E0E6C01962E7A01CE0101965C016F
:1016F00080E2F50111928A95E9F7F601838089016C
:1017000050E040E0B0E020E0A0E061E070E0F801EF
:1017100083FC959183FE9191892F8F01911107C0D0
:1017200010E000E0C801A096ECE00C948A0E9E3513
:1017300019F44115510531F1A4171506ECF49D3546
:1017400049F19D32C9F4222309F1982F9695969577
:101750009695F501E90FF11D982F97709B0101C037
:10176000220F9A95EAF79081292B20838B1781F01D
:101770008B1730F48F5FE9CF2111E7CFB92FE5CF79
:101780008150E3CFA1E04F5F5F4FC1CF21E0FBCF9E
:1017900020E0F9CF222319F08E8180628E83AA2364
:1017A00061F0F5019E012F5D3F4F8081DF01319691
:1017B00080958C93E217F307C1F788248394C601C0
:1017C0000E94580D97FD16C0282F26952695269520
:1017D000F501E20FF11D208130E0AC014770552783
:1017E00002C0359527954A95E2F720FD06C0B6015F
:1017F0000E94C60D882059F093CFE114F10419F02E
:10180000F70181937F019A94812C9110D8CFE11434
:10181000F10409F487CFF701108284CFA6E0B0E08D
:10182000E4E1FCE00C946C0E5C016D837E83742E0D
:10183000652EDC0117961C921E921697C12CD501BD
:101840001396FC90ED81FE81F3FC8591F3FE81916E
:10185000182FFE83ED838823F9F090E00E942E0D6F
:10186000892B21F0C5010E94CD0AE9CF153251F430
:10187000ED81FE81F3FC1591F3FE1191FE83ED8362
:10188000153269F4C5010E94580D97FDA3C01817C1
:10189000B1F2B5010E94C60D8C2D90E09FC000E012
:1018A0001A3249F4ED81FE81F3FC1591F3FE11919A
:1018B000FE83ED8301E0D12C20ED210F2A3060F171
:1018C00001FF42C0DD2041F3183609F440C01C3648
:1018D00009F449C0112301F3612F70E088E690E01C
:1018E0000E94370D892BC1F2E12CF12C00FD06C0BE
:1018F000E72DF62DE190F1907E2E6F2E1E3609F029
:101900003CC0D50116964D915C9170E060E0202FAF
:10191000C7010E94870A93CF02608D2D90E0B0E04E
:10192000A0E089839A83AB83BC8340E2BC01CD01F4
:101930000E94950AD62EED81FE81F3FC1591F3FEEF
:101940001191FE83ED83B8CFDD24DA94BDCFED8114
:10195000FE81F3FC1591F3FE1191FE83ED831836A1
:1019600009F0B8CF08600460ED81FE81F3FC1591A9
:10197000F3FE1191FE83ED83ADCF1336B1F401FD7B
:1019800002C0DD24D394C5010E94580D97FD22C0EA
:10199000E114F10419F0F70181937F01DA94D11079
:1019A000F2CF00FD4CCFC3944ACF1B35D9F42D8123
:1019B0003E81A7016D2DC5010E946C0B8D839E8316
:1019C000ED81FE81EF2B69F7D50113968C91807321
:1019D00009F462CF8FEF9FEFC1105ECF2696EEE045
:1019E0000C94880EC5010E94CD0A97FDF3CF1F36D7
:1019F00099F130F4143641F0193639F0006405C01D
:101A00001337A9F01537D1F70062202FA7016D2DEC
:101A1000C5010E94E60A8111C4CFD6CFE114F104BA
:101A200019F0F70181927F01DA94DD2071F0C50190
:101A30000E94580D4C0197FD08C00E942E0D892B65
:101A400069F3B501C4010E94C60DE114F10409F463
:101A5000A8CFF7011082A5CF0061D7CF91110C94C8
:101A60003C0E803219F089508550C8F70895FC016A
:101A70000590061621F00020D9F7C001089531978E
:101A8000CF010895FC010590615070400110D8F716
:101A9000809590958E0F9F1F0895FC0161507040B6
:101AA00001900110D8F7809590958E0F9F1F089593
:101AB000CF93DF93EC018B8180FF33C086FF0CC096
:101AC0008F7B8B838E819F8101969F838E838A81FA
:101AD00090E0DF91CF91089582FF15C0E881F981F0
:101AE0009081292F092E000C330B80629923C1F0BD
:101AF0003196F983E8838E819F8101969F838E833F
:101B0000C9019927E6CFEA85FB85CE0109959C019D
:101B100097FFF1CF8B812F3F3F4F31F090E2892B20
:101B20008B838FEF9FEFD5CF90E1F9CF0F931F936A
:101B3000CF93DF93182F092FEB018B8181FD09C013
:101B40001FEF0FEF812F902FDF91CF911F910F91FA
:101B5000089582FF14C02E813F818C819D812817BA
:101B600039073CF4E881F981CF0101969983888394
:101B700010838E819F8101969F838E83E3CFE885BA
:101B8000F985812F0995892BA1F3DACFFB012381F8
:101B900020FF11C026FD0FC08F3F980771F0828390
:101BA0002F7D20642383268137812150310937839B
:101BB0002683992708958FEF9FEF0895FA01AA27AA
:101BC000283051F1203181F1E8946F936E7F6E5F80
:101BD0007F4F8F4F9F4FAF4FB1E03ED0B4E03CD02E
:101BE000670F781F891F9A1FA11D680F791F8A1F11
:101BF000911DA11D6A0F711D811D911DA11D20D078
:101C000009F468943F912AE0269F11243019305D31
:101C10003193DEF6CF010895462F4770405D419322
:101C2000B3E00FD0C9F7F6CF462F4F70405D4A336F
:101C300018F0495D31FD4052419302D0A9F7EACF37
:101C4000B4E0A6959795879577956795BA95C9F766
:101C500000976105710508959B01AC010A2E069459
:101C60005795479537952795BA95C9F7620F731F12
:101C7000841F951FA01D0895992788270895A8E11E
:101C8000B0E042E050E00C944C0E0E945A0E272F18
:101C90000C945B0EDC01CB01FC01F999FECF06C070
:101CA000F2BDE1BDF89A319600B40D92415050401A
:101CB000B8F70895262FF999FECF1FBA92BD81BDBE
:101CC00020BD0FB6F894FA9AF99A0FBE01960895BE
:101CD0002F923F924F925F926F927F928F929F923C
:101CE000AF92BF92CF92DF92EF92FF920F931F932A
:101CF000CF93DF93CDB7DEB7CA1BDB0B0FB6F894DB
:101D0000DEBF0FBECDBF09942A88398848885F841A
:101D10006E847D848C849B84AA84B984C884DF808B
:101D2000EE80FD800C811B81AA81B981CE0FD11D6F
:101D30000FB6F894DEBF0FBECDBFED010895F89445
:021D4000FFCFD3
:101D4200FFFFFFFFFFFFFFFFFFFF010040100E64D8
:101D52000105050502084B3A00424C4F570D0A0097
:101D6200424F4B0D0A00563A253034750D0A005287
:101D72003A323032352D30332D32362D64646631AD
:101D82003332322D65737031320D0A0042454D50A7
:101D920054590D0A005057525F444F574E0D0A00D6
:101DA200533A253033750D0A004C4F4B0D0A004C47
:0C1DB2004552520D0A00494F4B0D0A002B
:00000001FF
